{
	"data": {
		"bytecode": {
			"linkReferences": {},
			"object": "608060405234801561000f575f80fd5b506104288061001d5f395ff3fe608060405234801561000f575f80fd5b5060043610610029575f3560e01c80634862351b1461002d575b5f80fd5b610047600480360381019061004291906102a8565b610049565b005b8273ffffffffffffffffffffffffffffffffffffffff168473ffffffffffffffffffffffffffffffffffffffff168673ffffffffffffffffffffffffffffffffffffffff167f6780a9ab2d15062aadb945b32c5be7f040808fecb5ae31a17f3cc80a0480306b85856040516100bf9291906103c4565b60405180910390a45050505050565b5f604051905090565b5f80fd5b5f80fd5b5f73ffffffffffffffffffffffffffffffffffffffff82169050919050565b5f610108826100df565b9050919050565b610118816100fe565b8114610122575f80fd5b50565b5f813590506101338161010f565b92915050565b5f80fd5b5f80fd5b5f601f19601f8301169050919050565b7f4e487b71000000000000000000000000000000000000000000000000000000005f52604160045260245ffd5b61018782610141565b810181811067ffffffffffffffff821117156101a6576101a5610151565b5b80604052505050565b5f6101b86100ce565b90506101c4828261017e565b919050565b5f67ffffffffffffffff8211156101e3576101e2610151565b5b6101ec82610141565b9050602081019050919050565b828183375f83830152505050565b5f610219610214846101c9565b6101af565b9050828152602081018484840111156102355761023461013d565b5b6102408482856101f9565b509392505050565b5f82601f83011261025c5761025b610139565b5b813561026c848260208601610207565b91505092915050565b5f819050919050565b61028781610275565b8114610291575f80fd5b50565b5f813590506102a28161027e565b92915050565b5f805f805f60a086880312156102c1576102c06100d7565b5b5f6102ce88828901610125565b95505060206102df88828901610125565b94505060406102f088828901610125565b935050606086013567ffffffffffffffff811115610311576103106100db565b5b61031d88828901610248565b925050608061032e88828901610294565b9150509295509295909350565b5f81519050919050565b5f82825260208201905092915050565b5f5b83811015610372578082015181840152602081019050610357565b5f8484015250505050565b5f6103878261033b565b6103918185610345565b93506103a1818560208601610355565b6103aa81610141565b840191505092915050565b6103be81610275565b82525050565b5f6040820190508181035f8301526103dc818561037d565b90506103eb60208301846103b5565b939250505056fea2646970667358221220f4ade9a7042bbac653b4b1688187b557364f2f04d80d13055f4383eaac31aa2064736f6c63430008180033",
			"opcodes": "PUSH1 0x80 PUSH1 0x40 MSTORE CALLVALUE DUP1 ISZERO PUSH2 0xF JUMPI PUSH0 DUP1 REVERT JUMPDEST POP PUSH2 0x428 DUP1 PUSH2 0x1D PUSH0 CODECOPY PUSH0 RETURN INVALID PUSH1 0x80 PUSH1 0x40 MSTORE CALLVALUE DUP1 ISZERO PUSH2 0xF JUMPI PUSH0 DUP1 REVERT JUMPDEST POP PUSH1 0x4 CALLDATASIZE LT PUSH2 0x29 JUMPI PUSH0 CALLDATALOAD PUSH1 0xE0 SHR DUP1 PUSH4 0x4862351B EQ PUSH2 0x2D JUMPI JUMPDEST PUSH0 DUP1 REVERT JUMPDEST PUSH2 0x47 PUSH1 0x4 DUP1 CALLDATASIZE SUB DUP2 ADD SWAP1 PUSH2 0x42 SWAP2 SWAP1 PUSH2 0x2A8 JUMP JUMPDEST PUSH2 0x49 JUMP JUMPDEST STOP JUMPDEST DUP3 PUSH20 0xFFFFFFFFFFFFFFFFFFFFFFFFFFFFFFFFFFFFFFFF AND DUP5 PUSH20 0xFFFFFFFFFFFFFFFFFFFFFFFFFFFFFFFFFFFFFFFF AND DUP7 PUSH20 0xFFFFFFFFFFFFFFFFFFFFFFFFFFFFFFFFFFFFFFFF AND PUSH32 0x6780A9AB2D15062AADB945B32C5BE7F040808FECB5AE31A17F3CC80A0480306B DUP6 DUP6 PUSH1 0x40 MLOAD PUSH2 0xBF SWAP3 SWAP2 SWAP1 PUSH2 0x3C4 JUMP JUMPDEST PUSH1 0x40 MLOAD DUP1 SWAP2 SUB SWAP1 LOG4 POP POP POP POP POP JUMP JUMPDEST PUSH0 PUSH1 0x40 MLOAD SWAP1 POP SWAP1 JUMP JUMPDEST PUSH0 DUP1 REVERT JUMPDEST PUSH0 DUP1 REVERT JUMPDEST PUSH0 PUSH20 0xFFFFFFFFFFFFFFFFFFFFFFFFFFFFFFFFFFFFFFFF DUP3 AND SWAP1 POP SWAP2 SWAP1 POP JUMP JUMPDEST PUSH0 PUSH2 0x108 DUP3 PUSH2 0xDF JUMP JUMPDEST SWAP1 POP SWAP2 SWAP1 POP JUMP JUMPDEST PUSH2 0x118 DUP2 PUSH2 0xFE JUMP JUMPDEST DUP2 EQ PUSH2 0x122 JUMPI PUSH0 DUP1 REVERT JUMPDEST POP JUMP JUMPDEST PUSH0 DUP2 CALLDATALOAD SWAP1 POP PUSH2 0x133 DUP2 PUSH2 0x10F JUMP JUMPDEST SWAP3 SWAP2 POP POP JUMP JUMPDEST PUSH0 DUP1 REVERT JUMPDEST PUSH0 DUP1 REVERT JUMPDEST PUSH0 PUSH1 0x1F NOT PUSH1 0x1F DUP4 ADD AND SWAP1 POP SWAP2 SWAP1 POP JUMP JUMPDEST PUSH32 0x4E487B7100000000000000000000000000000000000000000000000000000000 PUSH0 MSTORE PUSH1 0x41 PUSH1 0x4 MSTORE PUSH1 0x24 PUSH0 REVERT JUMPDEST PUSH2 0x187 DUP3 PUSH2 0x141 JUMP JUMPDEST DUP2 ADD DUP2 DUP2 LT PUSH8 0xFFFFFFFFFFFFFFFF DUP3 GT OR ISZERO PUSH2 0x1A6 JUMPI PUSH2 0x1A5 PUSH2 0x151 JUMP JUMPDEST JUMPDEST DUP1 PUSH1 0x40 MSTORE POP POP POP JUMP JUMPDEST PUSH0 PUSH2 0x1B8 PUSH2 0xCE JUMP JUMPDEST SWAP1 POP PUSH2 0x1C4 DUP3 DUP3 PUSH2 0x17E JUMP JUMPDEST SWAP2 SWAP1 POP JUMP JUMPDEST PUSH0 PUSH8 0xFFFFFFFFFFFFFFFF DUP3 GT ISZERO PUSH2 0x1E3 JUMPI PUSH2 0x1E2 PUSH2 0x151 JUMP JUMPDEST JUMPDEST PUSH2 0x1EC DUP3 PUSH2 0x141 JUMP JUMPDEST SWAP1 POP PUSH1 0x20 DUP2 ADD SWAP1 POP SWAP2 SWAP1 POP JUMP JUMPDEST DUP3 DUP2 DUP4 CALLDATACOPY PUSH0 DUP4 DUP4 ADD MSTORE POP POP POP JUMP JUMPDEST PUSH0 PUSH2 0x219 PUSH2 0x214 DUP5 PUSH2 0x1C9 JUMP JUMPDEST PUSH2 0x1AF JUMP JUMPDEST SWAP1 POP DUP3 DUP2 MSTORE PUSH1 0x20 DUP2 ADD DUP5 DUP5 DUP5 ADD GT ISZERO PUSH2 0x235 JUMPI PUSH2 0x234 PUSH2 0x13D JUMP JUMPDEST JUMPDEST PUSH2 0x240 DUP5 DUP3 DUP6 PUSH2 0x1F9 JUMP JUMPDEST POP SWAP4 SWAP3 POP POP POP JUMP JUMPDEST PUSH0 DUP3 PUSH1 0x1F DUP4 ADD SLT PUSH2 0x25C JUMPI PUSH2 0x25B PUSH2 0x139 JUMP JUMPDEST JUMPDEST DUP2 CALLDATALOAD PUSH2 0x26C DUP5 DUP3 PUSH1 0x20 DUP7 ADD PUSH2 0x207 JUMP JUMPDEST SWAP2 POP POP SWAP3 SWAP2 POP POP JUMP JUMPDEST PUSH0 DUP2 SWAP1 POP SWAP2 SWAP1 POP JUMP JUMPDEST PUSH2 0x287 DUP2 PUSH2 0x275 JUMP JUMPDEST DUP2 EQ PUSH2 0x291 JUMPI PUSH0 DUP1 REVERT JUMPDEST POP JUMP JUMPDEST PUSH0 DUP2 CALLDATALOAD SWAP1 POP PUSH2 0x2A2 DUP2 PUSH2 0x27E JUMP JUMPDEST SWAP3 SWAP2 POP POP JUMP JUMPDEST PUSH0 DUP1 PUSH0 DUP1 PUSH0 PUSH1 0xA0 DUP7 DUP9 SUB SLT ISZERO PUSH2 0x2C1 JUMPI PUSH2 0x2C0 PUSH2 0xD7 JUMP JUMPDEST JUMPDEST PUSH0 PUSH2 0x2CE DUP9 DUP3 DUP10 ADD PUSH2 0x125 JUMP JUMPDEST SWAP6 POP POP PUSH1 0x20 PUSH2 0x2DF DUP9 DUP3 DUP10 ADD PUSH2 0x125 JUMP JUMPDEST SWAP5 POP POP PUSH1 0x40 PUSH2 0x2F0 DUP9 DUP3 DUP10 ADD PUSH2 0x125 JUMP JUMPDEST SWAP4 POP POP PUSH1 0x60 DUP7 ADD CALLDATALOAD PUSH8 0xFFFFFFFFFFFFFFFF DUP2 GT ISZERO PUSH2 0x311 JUMPI PUSH2 0x310 PUSH2 0xDB JUMP JUMPDEST JUMPDEST PUSH2 0x31D DUP9 DUP3 DUP10 ADD PUSH2 0x248 JUMP JUMPDEST SWAP3 POP POP PUSH1 0x80 PUSH2 0x32E DUP9 DUP3 DUP10 ADD PUSH2 0x294 JUMP JUMPDEST SWAP2 POP POP SWAP3 SWAP6 POP SWAP3 SWAP6 SWAP1 SWAP4 POP JUMP JUMPDEST PUSH0 DUP2 MLOAD SWAP1 POP SWAP2 SWAP1 POP JUMP JUMPDEST PUSH0 DUP3 DUP3 MSTORE PUSH1 0x20 DUP3 ADD SWAP1 POP SWAP3 SWAP2 POP POP JUMP JUMPDEST PUSH0 JUMPDEST DUP4 DUP2 LT ISZERO PUSH2 0x372 JUMPI DUP1 DUP3 ADD MLOAD DUP2 DUP5 ADD MSTORE PUSH1 0x20 DUP2 ADD SWAP1 POP PUSH2 0x357 JUMP JUMPDEST PUSH0 DUP5 DUP5 ADD MSTORE POP POP POP POP JUMP JUMPDEST PUSH0 PUSH2 0x387 DUP3 PUSH2 0x33B JUMP JUMPDEST PUSH2 0x391 DUP2 DUP6 PUSH2 0x345 JUMP JUMPDEST SWAP4 POP PUSH2 0x3A1 DUP2 DUP6 PUSH1 0x20 DUP7 ADD PUSH2 0x355 JUMP JUMPDEST PUSH2 0x3AA DUP2 PUSH2 0x141 JUMP JUMPDEST DUP5 ADD SWAP2 POP POP SWAP3 SWAP2 POP POP JUMP JUMPDEST PUSH2 0x3BE DUP2 PUSH2 0x275 JUMP JUMPDEST DUP3 MSTORE POP POP JUMP JUMPDEST PUSH0 PUSH1 0x40 DUP3 ADD SWAP1 POP DUP2 DUP2 SUB PUSH0 DUP4 ADD MSTORE PUSH2 0x3DC DUP2 DUP6 PUSH2 0x37D JUMP JUMPDEST SWAP1 POP PUSH2 0x3EB PUSH1 0x20 DUP4 ADD DUP5 PUSH2 0x3B5 JUMP JUMPDEST SWAP4 SWAP3 POP POP POP JUMP INVALID LOG2 PUSH5 0x6970667358 0x22 SLT KECCAK256 DELEGATECALL 0xAD 0xE9 0xA7 DIV 0x2B 0xBA 0xC6 MSTORE8 0xB4 0xB1 PUSH9 0x8187B557364F2F04D8 0xD SGT SDIV PUSH0 NUMBER DUP4 0xEA 0xAC BALANCE 0xAA KECCAK256 PUSH5 0x736F6C6343 STOP ADDMOD XOR STOP CALLER "
		},
		"gasEstimates": {
			"creation": {
				"codeDepositCost": "212800",
				"executionCost": "255",
				"totalCost": "213055"
			},
			"external": {
				"recordSale(address,address,address,string,uint256)": "infinite"
			}
		},
		"methodIdentifiers": {
			"recordSale(address,address,address,string,uint256)": "4862351b"
		}
	},
	"abi": [
		{
			"anonymous": false,
			"inputs": [
				{
					"indexed": true,
					"internalType": "address",
					"name": "artist",
					"type": "address"
				},
				{
					"indexed": true,
					"internalType": "address",
					"name": "seller",
					"type": "address"
				},
				{
					"indexed": true,
					"internalType": "address",
					"name": "buyer",
					"type": "address"
				},
				{
					"indexed": false,
					"internalType": "string",
					"name": "artworkDetails",
					"type": "string"
				},
				{
					"indexed": false,
					"internalType": "uint256",
					"name": "saleValue",
					"type": "uint256"
				}
			],
			"name": "SaleRecorded",
			"type": "event"
		},
		{
			"inputs": [
				{
					"internalType": "address",
					"name": "artist",
					"type": "address"
				},
				{
					"internalType": "address",
					"name": "seller",
					"type": "address"
				},
				{
					"internalType": "address",
					"name": "buyer",
					"type": "address"
				},
				{
					"internalType": "string",
					"name": "artworkDetails",
					"type": "string"
				},
				{
					"internalType": "uint256",
					"name": "saleValue",
					"type": "uint256"
				}
			],
			"name": "recordSale",
			"outputs": [],
			"stateMutability": "nonpayable",
			"type": "function"
		}
	]
}