{
	"data": {
		"bytecode": {
			"linkReferences": {},
			"object": "608060405234801561001057600080fd5b50604051613b82380380613b8283398181016040528101906100329190610272565b806040518060400160405280601881526020017f44535343205468696e67537065616b204964656e7469747900000000000000008152506040518060400160405280600781526020017f445353432d54530000000000000000000000000000000000000000000000000081525081600090816100ae91906104ef565b5080600190816100be91906104ef565b505050600073ffffffffffffffffffffffffffffffffffffffff168173ffffffffffffffffffffffffffffffffffffffff16036101335760006040517f1e4fbdf700000000000000000000000000000000000000000000000000000000815260040161012a91906105d0565b60405180910390fd5b6101428161014960201b60201c565b50506105eb565b6000600660009054906101000a900473ffffffffffffffffffffffffffffffffffffffff16905081600660006101000a81548173ffffffffffffffffffffffffffffffffffffffff021916908373ffffffffffffffffffffffffffffffffffffffff1602179055508173ffffffffffffffffffffffffffffffffffffffff168173ffffffffffffffffffffffffffffffffffffffff167f8be0079c531659141344cd1fd0a4f28419497f9722a3daafe3b4186f6b6457e060405160405180910390a35050565b600080fd5b600073ffffffffffffffffffffffffffffffffffffffff82169050919050565b600061023f82610214565b9050919050565b61024f81610234565b811461025a57600080fd5b50565b60008151905061026c81610246565b92915050565b6000602082840312156102885761028761020f565b5b60006102968482850161025d565b91505092915050565b600081519050919050565b7f4e487b7100000000000000000000000000000000000000000000000000000000600052604160045260246000fd5b7f4e487b7100000000000000000000000000000000000000000000000000000000600052602260045260246000fd5b6000600282049050600182168061032057607f821691505b602082108103610333576103326102d9565b5b50919050565b60008190508160005260206000209050919050565b60006020601f8301049050919050565b600082821b905092915050565b60006008830261039b7fffffffffffffffffffffffffffffffffffffffffffffffffffffffffffffffff8261035e565b6103a5868361035e565b95508019841693508086168417925050509392505050565b6000819050919050565b6000819050919050565b60006103ec6103e76103e2846103bd565b6103c7565b6103bd565b9050919050565b6000819050919050565b610406836103d1565b61041a610412826103f3565b84845461036b565b825550505050565b600090565b61042f610422565b61043a8184846103fd565b505050565b5b8181101561045e57610453600082610427565b600181019050610440565b5050565b601f8211156104a35761047481610339565b61047d8461034e565b8101602085101561048c578190505b6104a06104988561034e565b83018261043f565b50505b505050565b600082821c905092915050565b60006104c6600019846008026104a8565b1980831691505092915050565b60006104df83836104b5565b9150826002028217905092915050565b6104f88261029f565b67ffffffffffffffff811115610511576105106102aa565b5b61051b8254610308565b610526828285610462565b600060209050601f8311600181146105595760008415610547578287015190505b61055185826104d3565b8655506105b9565b601f19841661056786610339565b60005b8281101561058f5784890151825560018201915060208501945060208101905061056a565b868310156105ac57848901516105a8601f8916826104b5565b8355505b6001600288020188555050505b505050505050565b6105ca81610234565b82525050565b60006020820190506105e560008301846105c1565b92915050565b613588806105fa6000396000f3fe608060405234801561001057600080fd5b50600436106101c45760003560e01c8063715018a6116100f9578063ccc772e711610097578063e985e9c511610071578063e985e9c514610538578063f2fde38b14610568578063f3e15def14610584578063f403cfb6146105b4576101c4565b8063ccc772e7146104c9578063e7e027f114610500578063e815cf241461051c576101c4565b806395d89b41116100d357806395d89b4114610443578063a22cb46514610461578063b88d4fde1461047d578063c87b56dd14610499576101c4565b8063715018a6146103eb5780638da5cb5b146103f557806395839cb214610413576101c4565b8063348d73621161016657806360c5d7a41161014057806360c5d7a41461034e57806361b1ca271461036c5780636352211e1461038b57806370a08231146103bb576101c4565b8063348d7362146102d257806342842e0e146103025780634f558e791461031e576101c4565b8063095ea7b3116101a2578063095ea7b3146102475780630ef644a5146102635780631941fd141461027f57806323b872dd146102b6576101c4565b806301ffc9a7146101c957806306fdde03146101f9578063081812fc14610217575b600080fd5b6101e360048036038101906101de9190612616565b6105d2565b6040516101f0919061265e565b60405180910390f35b6102016106b4565b60405161020e9190612709565b60405180910390f35b610231600480360381019061022c9190612761565b610746565b60405161023e91906127cf565b60405180910390f35b610261600480360381019061025c9190612816565b610762565b005b61027d60048036038101906102789190612882565b610778565b005b61029960048036038101906102949190612761565b610832565b6040516102ad9897969594939291906128d1565b60405180910390f35b6102d060048036038101906102cb919061295d565b610997565b005b6102ec60048036038101906102e79190612761565b610a99565b6040516102f991906129b0565b60405180910390f35b61031c6004803603810190610317919061295d565b610abb565b005b61033860048036038101906103339190612761565b610adb565b604051610345919061265e565b60405180910390f35b610356610b1c565b6040516103639190612709565b60405180910390f35b610374610b55565b6040516103829291906129cb565b60405180910390f35b6103a560048036038101906103a09190612761565b610bcc565b6040516103b291906127cf565b60405180910390f35b6103d560048036038101906103d09190612a02565b610bde565b6040516103e291906129b0565b60405180910390f35b6103f3610c98565b005b6103fd610cac565b60405161040a91906127cf565b60405180910390f35b61042d60048036038101906104289190612b64565b610cd6565b60405161043a919061265e565b60405180910390f35b61044b610f37565b6040516104589190612709565b60405180910390f35b61047b60048036038101906104769190612bd3565b610fc9565b005b61049760048036038101906104929190612cb4565b610fdf565b005b6104b360048036038101906104ae9190612761565b611004565b6040516104c09190612709565b60405180910390f35b6104e360048036038101906104de9190612761565b61106d565b6040516104f79897969594939291906128d1565b60405180910390f35b61051a60048036038101906105159190612d37565b61129a565b005b61053660048036038101906105319190612d77565b611341565b005b610552600480360381019061054d9190612de6565b61142a565b60405161055f919061265e565b60405180910390f35b610582600480360381019061057d9190612a02565b6114be565b005b61059e60048036038101906105999190612e26565b611544565b6040516105ab91906129b0565b60405180910390f35b6105bc611683565b6040516105c99190612709565b60405180910390f35b60007f80ac58cd000000000000000000000000000000000000000000000000000000007bffffffffffffffffffffffffffffffffffffffffffffffffffffffff1916827bffffffffffffffffffffffffffffffffffffffffffffffffffffffff1916148061069d57507f5b5e139f000000000000000000000000000000000000000000000000000000007bffffffffffffffffffffffffffffffffffffffffffffffffffffffff1916827bffffffffffffffffffffffffffffffffffffffffffffffffffffffff1916145b806106ad57506106ac826116bc565b5b9050919050565b6060600080546106c390612ef4565b80601f01602080910402602001604051908101604052809291908181526020018280546106ef90612ef4565b801561073c5780601f106107115761010080835404028352916020019161073c565b820191906000526020600020905b81548152906001019060200180831161071f57829003601f168201915b5050505050905090565b600061075182611726565b5061075b826117ae565b9050919050565b610774828261076f6117eb565b6117f3565b5050565b610780611805565b61078982610adb565b6107c8576040517f08c379a00000000000000000000000000000000000000000000000000000000081526004016107bf90612f71565b60405180910390fd5b806008600084815260200190815260200160002060030160006101000a81548160ff021916908315150217905550817fc03020d2adf1b6aa3eb2d84172d6f3bf992c3fec852befa29df3b990634e801c82604051610826919061265e565b60405180910390a25050565b600860205280600052604060002060009150905080600001805461085590612ef4565b80601f016020809104026020016040519081016040528092919081815260200182805461088190612ef4565b80156108ce5780601f106108a3576101008083540402835291602001916108ce565b820191906000526020600020905b8154815290600101906020018083116108b157829003601f168201915b5050505050908060010154908060020154908060030160009054906101000a900460ff169080600401549080600501805461090890612ef4565b80601f016020809104026020016040519081016040528092919081815260200182805461093490612ef4565b80156109815780601f1061095657610100808354040283529160200191610981565b820191906000526020600020905b81548152906001019060200180831161096457829003601f168201915b5050505050908060060154908060070154905088565b600073ffffffffffffffffffffffffffffffffffffffff168273ffffffffffffffffffffffffffffffffffffffff1603610a095760006040517f64a0ae92000000000000000000000000000000000000000000000000000000008152600401610a0091906127cf565b60405180910390fd5b6000610a1d8383610a186117eb565b61188c565b90508373ffffffffffffffffffffffffffffffffffffffff168173ffffffffffffffffffffffffffffffffffffffff1614610a93578382826040517f64283d7b000000000000000000000000000000000000000000000000000000008152600401610a8a93929190612f91565b60405180910390fd5b50505050565b60006103e88283610aaa9190612ff7565b610ab49190613068565b9050919050565b610ad683838360405180602001604052806000815250610fdf565b505050565b60008073ffffffffffffffffffffffffffffffffffffffff16610afd83611aa6565b73ffffffffffffffffffffffffffffffffffffffff1614159050919050565b6040518060400160405280600781526020017f323333363234350000000000000000000000000000000000000000000000000081525081565b6060806040518060400160405280600781526020017f32333336323435000000000000000000000000000000000000000000000000008152506040518060400160405280601081526020017f5758454552305451425833443652595900000000000000000000000000000000815250915091509091565b6000610bd782611726565b9050919050565b60008073ffffffffffffffffffffffffffffffffffffffff168273ffffffffffffffffffffffffffffffffffffffff1603610c515760006040517f89c62b64000000000000000000000000000000000000000000000000000000008152600401610c4891906127cf565b60405180910390fd5b600360008373ffffffffffffffffffffffffffffffffffffffff1673ffffffffffffffffffffffffffffffffffffffff168152602001908152602001600020549050919050565b610ca0611805565b610caa6000611ae3565b565b6000600660009054906101000a900473ffffffffffffffffffffffffffffffffffffffff16905090565b6000610ce184610adb565b610d20576040517f08c379a0000000000000000000000000000000000000000000000000000000008152600401610d1790612f71565b60405180910390fd5b60006008600086815260200190815260200160002060405180610100016040529081600082018054610d5190612ef4565b80601f0160208091040260200160405190810160405280929190818152602001828054610d7d90612ef4565b8015610dca5780601f10610d9f57610100808354040283529160200191610dca565b820191906000526020600020905b815481529060010190602001808311610dad57829003601f168201915b5050505050815260200160018201548152602001600282015481526020016003820160009054906101000a900460ff1615151515815260200160048201548152602001600582018054610e1c90612ef4565b80601f0160208091040260200160405190810160405280929190818152602001828054610e4890612ef4565b8015610e955780601f10610e6a57610100808354040283529160200191610e95565b820191906000526020600020905b815481529060010190602001808311610e7857829003601f168201915b50505050508152602001600682015481526020016007820154815250509050600084805190602001208260000151805190602001201490506000606460058460800151610ee29190612ff7565b610eec9190613068565b90506000818460800151610f009190613099565b8610158015610f1e5750818460800151610f1a91906130cd565b8611155b9050828015610f2a5750805b9450505050509392505050565b606060018054610f4690612ef4565b80601f0160208091040260200160405190810160405280929190818152602001828054610f7290612ef4565b8015610fbf5780601f10610f9457610100808354040283529160200191610fbf565b820191906000526020600020905b815481529060010190602001808311610fa257829003601f168201915b5050505050905090565b610fdb610fd46117eb565b8383611ba9565b5050565b610fea848484610997565b610ffe610ff56117eb565b85858585611d18565b50505050565b606061100f82611726565b50600061101a611ec9565b9050600081511161103a5760405180602001604052806000815250611065565b8061104484611ee0565b60405160200161105592919061313d565b6040516020818303038152906040525b915050919050565b6060600080600080606060008061108389610adb565b6110c2576040517f08c379a00000000000000000000000000000000000000000000000000000000081526004016110b990612f71565b60405180910390fd5b6000600860008b8152602001908152602001600020604051806101000160405290816000820180546110f390612ef4565b80601f016020809104026020016040519081016040528092919081815260200182805461111f90612ef4565b801561116c5780601f106111415761010080835404028352916020019161116c565b820191906000526020600020905b81548152906001019060200180831161114f57829003601f168201915b5050505050815260200160018201548152602001600282015481526020016003820160009054906101000a900460ff16151515158152602001600482015481526020016005820180546111be90612ef4565b80601f01602080910402602001604051908101604052809291908181526020018280546111ea90612ef4565b80156112375780601f1061120c57610100808354040283529160200191611237565b820191906000526020600020905b81548152906001019060200180831161121a57829003601f168201915b50505050508152602001600682015481526020016007820154815250509050806000015181602001518260400151836060015184608001518560a001518660c001518760e001519850985098509850985098509850985050919395975091939597565b6112a2611805565b6112ab82610adb565b6112ea576040517f08c379a00000000000000000000000000000000000000000000000000000000081526004016112e190612f71565b60405180910390fd5b806008600084815260200190815260200160002060020181905550817fd6cd605c806ff5dae8b0842a3546836032b46da42a50717460aa91de9485e57d8260405161133591906129b0565b60405180910390a25050565b611349611805565b61135283610adb565b611391576040517f08c379a000000000000000000000000000000000000000000000000000000000815260040161138890612f71565b60405180910390fd5b816008600085815260200190815260200160002060040181905550806008600085815260200190815260200160002060050190816113cf919061330d565b50426008600085815260200190815260200160002060060181905550827f606d8b1ebe934e7371eed38b93ac297f4b8552e39260e95ce221c4a450b6b65c834260405161141d9291906133df565b60405180910390a2505050565b6000600560008473ffffffffffffffffffffffffffffffffffffffff1673ffffffffffffffffffffffffffffffffffffffff16815260200190815260200160002060008373ffffffffffffffffffffffffffffffffffffffff1673ffffffffffffffffffffffffffffffffffffffff16815260200190815260200160002060009054906101000a900460ff16905092915050565b6114c6611805565b600073ffffffffffffffffffffffffffffffffffffffff168173ffffffffffffffffffffffffffffffffffffffff16036115385760006040517f1e4fbdf700000000000000000000000000000000000000000000000000000000815260040161152f91906127cf565b60405180910390fd5b61154181611ae3565b50565b60006115506007611fae565b600061155c6007611fc4565b90506115683382611fd2565b6040518061010001604052808781526020014281526020018681526020016000151581526020018581526020018481526020014281526020016223a5f58152506008600083815260200190815260200160002060008201518160000190816115d0919061330d565b50602082015181600101556040820151816002015560608201518160030160006101000a81548160ff0219169083151502179055506080820151816004015560a0820151816005019081611624919061330d565b5060c0820151816006015560e08201518160070155905050807efdef70896233d13aecaeb348100609b605ad8ad14fdd19a153bef0c4a16fd087864260405161166f93929190613408565b60405180910390a280915050949350505050565b6040518060400160405280601081526020017f575845455230545142583344365259590000000000000000000000000000000081525081565b60007f01ffc9a7000000000000000000000000000000000000000000000000000000007bffffffffffffffffffffffffffffffffffffffffffffffffffffffff1916827bffffffffffffffffffffffffffffffffffffffffffffffffffffffff1916149050919050565b60008061173283611aa6565b9050600073ffffffffffffffffffffffffffffffffffffffff168173ffffffffffffffffffffffffffffffffffffffff16036117a557826040517f7e27328900000000000000000000000000000000000000000000000000000000815260040161179c91906129b0565b60405180910390fd5b80915050919050565b60006004600083815260200190815260200160002060009054906101000a900473ffffffffffffffffffffffffffffffffffffffff169050919050565b600033905090565b6118008383836001611ff0565b505050565b61180d6117eb565b73ffffffffffffffffffffffffffffffffffffffff1661182b610cac565b73ffffffffffffffffffffffffffffffffffffffff161461188a5761184e6117eb565b6040517f118cdaa700000000000000000000000000000000000000000000000000000000815260040161188191906127cf565b60405180910390fd5b565b60008061189884611aa6565b9050600073ffffffffffffffffffffffffffffffffffffffff168373ffffffffffffffffffffffffffffffffffffffff16146118da576118d98184866121b5565b5b600073ffffffffffffffffffffffffffffffffffffffff168173ffffffffffffffffffffffffffffffffffffffff161461196b5761191c600085600080611ff0565b6001600360008373ffffffffffffffffffffffffffffffffffffffff1673ffffffffffffffffffffffffffffffffffffffff168152602001908152602001600020600082825403925050819055505b600073ffffffffffffffffffffffffffffffffffffffff168573ffffffffffffffffffffffffffffffffffffffff16146119ee576001600360008773ffffffffffffffffffffffffffffffffffffffff1673ffffffffffffffffffffffffffffffffffffffff168152602001908152602001600020600082825401925050819055505b846002600086815260200190815260200160002060006101000a81548173ffffffffffffffffffffffffffffffffffffffff021916908373ffffffffffffffffffffffffffffffffffffffff160217905550838573ffffffffffffffffffffffffffffffffffffffff168273ffffffffffffffffffffffffffffffffffffffff167fddf252ad1be2c89b69c2b068fc378daa952ba7f163c4a11628f55a4df523b3ef60405160405180910390a4809150509392505050565b60006002600083815260200190815260200160002060009054906101000a900473ffffffffffffffffffffffffffffffffffffffff169050919050565b6000600660009054906101000a900473ffffffffffffffffffffffffffffffffffffffff16905081600660006101000a81548173ffffffffffffffffffffffffffffffffffffffff021916908373ffffffffffffffffffffffffffffffffffffffff1602179055508173ffffffffffffffffffffffffffffffffffffffff168173ffffffffffffffffffffffffffffffffffffffff167f8be0079c531659141344cd1fd0a4f28419497f9722a3daafe3b4186f6b6457e060405160405180910390a35050565b600073ffffffffffffffffffffffffffffffffffffffff168273ffffffffffffffffffffffffffffffffffffffff1603611c1a57816040517f5b08ba18000000000000000000000000000000000000000000000000000000008152600401611c1191906127cf565b60405180910390fd5b80600560008573ffffffffffffffffffffffffffffffffffffffff1673ffffffffffffffffffffffffffffffffffffffff16815260200190815260200160002060008473ffffffffffffffffffffffffffffffffffffffff1673ffffffffffffffffffffffffffffffffffffffff16815260200190815260200160002060006101000a81548160ff0219169083151502179055508173ffffffffffffffffffffffffffffffffffffffff168373ffffffffffffffffffffffffffffffffffffffff167f17307eab39ab6107e8899845ad3d59bd9653f200f220920489ca2b5937696c3183604051611d0b919061265e565b60405180910390a3505050565b60008373ffffffffffffffffffffffffffffffffffffffff163b1115611ec2578273ffffffffffffffffffffffffffffffffffffffff1663150b7a02868685856040518563ffffffff1660e01b8152600401611d77949392919061349b565b6020604051808303816000875af1925050508015611db357506040513d601f19601f82011682018060405250810190611db091906134fc565b60015b611e37573d8060008114611de3576040519150601f19603f3d011682016040523d82523d6000602084013e611de8565b606091505b506000815103611e2f57836040517f64a0ae92000000000000000000000000000000000000000000000000000000008152600401611e2691906127cf565b60405180910390fd5b805181602001fd5b63150b7a0260e01b7bffffffffffffffffffffffffffffffffffffffffffffffffffffffff1916817bffffffffffffffffffffffffffffffffffffffffffffffffffffffff191614611ec057836040517f64a0ae92000000000000000000000000000000000000000000000000000000008152600401611eb791906127cf565b60405180910390fd5b505b5050505050565b606060405180602001604052806000815250905090565b606060006001611eef84612279565b01905060008167ffffffffffffffff811115611f0e57611f0d612a39565b5b6040519080825280601f01601f191660200182016040528015611f405781602001600182028036833780820191505090505b509050600082602001820190505b600115611fa3578080600190039150507f3031323334353637383961626364656600000000000000000000000000000000600a86061a8153600a8581611f9757611f96613039565b5b04945060008503611f4e575b819350505050919050565b6001816000016000828254019250508190555050565b600081600001549050919050565b611fec8282604051806020016040528060008152506123cc565b5050565b80806120295750600073ffffffffffffffffffffffffffffffffffffffff168273ffffffffffffffffffffffffffffffffffffffff1614155b1561215d57600061203984611726565b9050600073ffffffffffffffffffffffffffffffffffffffff168373ffffffffffffffffffffffffffffffffffffffff16141580156120a457508273ffffffffffffffffffffffffffffffffffffffff168173ffffffffffffffffffffffffffffffffffffffff1614155b80156120b757506120b5818461142a565b155b156120f957826040517fa9fbf51f0000000000000000000000000000000000000000000000000000000081526004016120f091906127cf565b60405180910390fd5b811561215b57838573ffffffffffffffffffffffffffffffffffffffff168273ffffffffffffffffffffffffffffffffffffffff167f8c5be1e5ebec7d5bd14f71427d1e84f3dd0314c0f7b2291e5b200ac8c7c3b92560405160405180910390a45b505b836004600085815260200190815260200160002060006101000a81548173ffffffffffffffffffffffffffffffffffffffff021916908373ffffffffffffffffffffffffffffffffffffffff16021790555050505050565b6121c08383836123f0565b61227457600073ffffffffffffffffffffffffffffffffffffffff168373ffffffffffffffffffffffffffffffffffffffff160361223557806040517f7e27328900000000000000000000000000000000000000000000000000000000815260040161222c91906129b0565b60405180910390fd5b81816040517f177e802f00000000000000000000000000000000000000000000000000000000815260040161226b929190613529565b60405180910390fd5b505050565b600080600090507a184f03e93ff9f4daa797ed6e38ed64bf6a1f01000000000000000083106122d7577a184f03e93ff9f4daa797ed6e38ed64bf6a1f01000000000000000083816122cd576122cc613039565b5b0492506040810190505b6d04ee2d6d415b85acef81000000008310612314576d04ee2d6d415b85acef8100000000838161230a57612309613039565b5b0492506020810190505b662386f26fc10000831061234357662386f26fc10000838161233957612338613039565b5b0492506010810190505b6305f5e100831061236c576305f5e100838161236257612361613039565b5b0492506008810190505b612710831061239157612710838161238757612386613039565b5b0492506004810190505b606483106123b457606483816123aa576123a9613039565b5b0492506002810190505b600a83106123c3576001810190505b80915050919050565b6123d683836124b1565b6123eb6123e16117eb565b6000858585611d18565b505050565b60008073ffffffffffffffffffffffffffffffffffffffff168373ffffffffffffffffffffffffffffffffffffffff16141580156124a857508273ffffffffffffffffffffffffffffffffffffffff168473ffffffffffffffffffffffffffffffffffffffff1614806124695750612468848461142a565b5b806124a757508273ffffffffffffffffffffffffffffffffffffffff1661248f836117ae565b73ffffffffffffffffffffffffffffffffffffffff16145b5b90509392505050565b600073ffffffffffffffffffffffffffffffffffffffff168273ffffffffffffffffffffffffffffffffffffffff16036125235760006040517f64a0ae9200000000000000000000000000000000000000000000000000000000815260040161251a91906127cf565b60405180910390fd5b60006125318383600061188c565b9050600073ffffffffffffffffffffffffffffffffffffffff168173ffffffffffffffffffffffffffffffffffffffff16146125a55760006040517f73c6ac6e00000000000000000000000000000000000000000000000000000000815260040161259c91906127cf565b60405180910390fd5b505050565b6000604051905090565b600080fd5b600080fd5b60007fffffffff0000000000000000000000000000000000000000000000000000000082169050919050565b6125f3816125be565b81146125fe57600080fd5b50565b600081359050612610816125ea565b92915050565b60006020828403121561262c5761262b6125b4565b5b600061263a84828501612601565b91505092915050565b60008115159050919050565b61265881612643565b82525050565b6000602082019050612673600083018461264f565b92915050565b600081519050919050565b600082825260208201905092915050565b60005b838110156126b3578082015181840152602081019050612698565b60008484015250505050565b6000601f19601f8301169050919050565b60006126db82612679565b6126e58185612684565b93506126f5818560208601612695565b6126fe816126bf565b840191505092915050565b6000602082019050818103600083015261272381846126d0565b905092915050565b6000819050919050565b61273e8161272b565b811461274957600080fd5b50565b60008135905061275b81612735565b92915050565b600060208284031215612777576127766125b4565b5b60006127858482850161274c565b91505092915050565b600073ffffffffffffffffffffffffffffffffffffffff82169050919050565b60006127b98261278e565b9050919050565b6127c9816127ae565b82525050565b60006020820190506127e460008301846127c0565b92915050565b6127f3816127ae565b81146127fe57600080fd5b50565b600081359050612810816127ea565b92915050565b6000806040838503121561282d5761282c6125b4565b5b600061283b85828601612801565b925050602061284c8582860161274c565b9150509250929050565b61285f81612643565b811461286a57600080fd5b50565b60008135905061287c81612856565b92915050565b60008060408385031215612899576128986125b4565b5b60006128a78582860161274c565b92505060206128b88582860161286d565b9150509250929050565b6128cb8161272b565b82525050565b60006101008201905081810360008301526128ec818b6126d0565b90506128fb602083018a6128c2565b61290860408301896128c2565b612915606083018861264f565b61292260808301876128c2565b81810360a083015261293481866126d0565b905061294360c08301856128c2565b61295060e08301846128c2565b9998505050505050505050565b600080600060608486031215612976576129756125b4565b5b600061298486828701612801565b935050602061299586828701612801565b92505060406129a68682870161274c565b9150509250925092565b60006020820190506129c560008301846128c2565b92915050565b600060408201905081810360008301526129e581856126d0565b905081810360208301526129f981846126d0565b90509392505050565b600060208284031215612a1857612a176125b4565b5b6000612a2684828501612801565b91505092915050565b600080fd5b600080fd5b7f4e487b7100000000000000000000000000000000000000000000000000000000600052604160045260246000fd5b612a71826126bf565b810181811067ffffffffffffffff82111715612a9057612a8f612a39565b5b80604052505050565b6000612aa36125aa565b9050612aaf8282612a68565b919050565b600067ffffffffffffffff821115612acf57612ace612a39565b5b612ad8826126bf565b9050602081019050919050565b82818337600083830152505050565b6000612b07612b0284612ab4565b612a99565b905082815260208101848484011115612b2357612b22612a34565b5b612b2e848285612ae5565b509392505050565b600082601f830112612b4b57612b4a612a2f565b5b8135612b5b848260208601612af4565b91505092915050565b600080600060608486031215612b7d57612b7c6125b4565b5b6000612b8b8682870161274c565b935050602084013567ffffffffffffffff811115612bac57612bab6125b9565b5b612bb886828701612b36565b9250506040612bc98682870161274c565b9150509250925092565b60008060408385031215612bea57612be96125b4565b5b6000612bf885828601612801565b9250506020612c098582860161286d565b9150509250929050565b600067ffffffffffffffff821115612c2e57612c2d612a39565b5b612c37826126bf565b9050602081019050919050565b6000612c57612c5284612c13565b612a99565b905082815260208101848484011115612c7357612c72612a34565b5b612c7e848285612ae5565b509392505050565b600082601f830112612c9b57612c9a612a2f565b5b8135612cab848260208601612c44565b91505092915050565b60008060008060808587031215612cce57612ccd6125b4565b5b6000612cdc87828801612801565b9450506020612ced87828801612801565b9350506040612cfe8782880161274c565b925050606085013567ffffffffffffffff811115612d1f57612d1e6125b9565b5b612d2b87828801612c86565b91505092959194509250565b60008060408385031215612d4e57612d4d6125b4565b5b6000612d5c8582860161274c565b9250506020612d6d8582860161274c565b9150509250929050565b600080600060608486031215612d9057612d8f6125b4565b5b6000612d9e8682870161274c565b9350506020612daf8682870161274c565b925050604084013567ffffffffffffffff811115612dd057612dcf6125b9565b5b612ddc86828701612b36565b9150509250925092565b60008060408385031215612dfd57612dfc6125b4565b5b6000612e0b85828601612801565b9250506020612e1c85828601612801565b9150509250929050565b60008060008060808587031215612e4057612e3f6125b4565b5b600085013567ffffffffffffffff811115612e5e57612e5d6125b9565b5b612e6a87828801612b36565b9450506020612e7b8782880161274c565b9350506040612e8c8782880161274c565b925050606085013567ffffffffffffffff811115612ead57612eac6125b9565b5b612eb987828801612b36565b91505092959194509250565b7f4e487b7100000000000000000000000000000000000000000000000000000000600052602260045260246000fd5b60006002820490506001821680612f0c57607f821691505b602082108103612f1f57612f1e612ec5565b5b50919050565b7f445353433a20546f6b656e20646f6573206e6f74206578697374000000000000600082015250565b6000612f5b601a83612684565b9150612f6682612f25565b602082019050919050565b60006020820190508181036000830152612f8a81612f4e565b9050919050565b6000606082019050612fa660008301866127c0565b612fb360208301856128c2565b612fc060408301846127c0565b949350505050565b7f4e487b7100000000000000000000000000000000000000000000000000000000600052601160045260246000fd5b60006130028261272b565b915061300d8361272b565b925082820261301b8161272b565b9150828204841483151761303257613031612fc8565b5b5092915050565b7f4e487b7100000000000000000000000000000000000000000000000000000000600052601260045260246000fd5b60006130738261272b565b915061307e8361272b565b92508261308e5761308d613039565b5b828204905092915050565b60006130a48261272b565b91506130af8361272b565b92508282039050818111156130c7576130c6612fc8565b5b92915050565b60006130d88261272b565b91506130e38361272b565b92508282019050808211156130fb576130fa612fc8565b5b92915050565b600081905092915050565b600061311782612679565b6131218185613101565b9350613131818560208601612695565b80840191505092915050565b6000613149828561310c565b9150613155828461310c565b91508190509392505050565b60008190508160005260206000209050919050565b60006020601f8301049050919050565b600082821b905092915050565b6000600883026131c37fffffffffffffffffffffffffffffffffffffffffffffffffffffffffffffffff82613186565b6131cd8683613186565b95508019841693508086168417925050509392505050565b6000819050919050565b600061320a6132056132008461272b565b6131e5565b61272b565b9050919050565b6000819050919050565b613224836131ef565b61323861323082613211565b848454613193565b825550505050565b600090565b61324d613240565b61325881848461321b565b505050565b5b8181101561327c57613271600082613245565b60018101905061325e565b5050565b601f8211156132c15761329281613161565b61329b84613176565b810160208510156132aa578190505b6132be6132b685613176565b83018261325d565b50505b505050565b600082821c905092915050565b60006132e4600019846008026132c6565b1980831691505092915050565b60006132fd83836132d3565b9150826002028217905092915050565b61331682612679565b67ffffffffffffffff81111561332f5761332e612a39565b5b6133398254612ef4565b613344828285613280565b600060209050601f8311600181146133775760008415613365578287015190505b61336f85826132f1565b8655506133d7565b601f19841661338586613161565b60005b828110156133ad57848901518255600182019150602085019450602081019050613388565b868310156133ca57848901516133c6601f8916826132d3565b8355505b6001600288020188555050505b505050505050565b60006040820190506133f460008301856128c2565b61340160208301846128c2565b9392505050565b6000606082019050818103600083015261342281866126d0565b905061343160208301856128c2565b61343e60408301846128c2565b949350505050565b600081519050919050565b600082825260208201905092915050565b600061346d82613446565b6134778185613451565b9350613487818560208601612695565b613490816126bf565b840191505092915050565b60006080820190506134b060008301876127c0565b6134bd60208301866127c0565b6134ca60408301856128c2565b81810360608301526134dc8184613462565b905095945050505050565b6000815190506134f6816125ea565b92915050565b600060208284031215613512576135116125b4565b5b6000613520848285016134e7565b91505092915050565b600060408201905061353e60008301856127c0565b61354b60208301846128c2565b939250505056fea264697066735822122006534e242671d6af08717e575ef768532f6e1b806128897ab2df166af399de9864736f6c634300081b0033",
			"opcodes": "PUSH1 0x80 PUSH1 0x40 MSTORE CALLVALUE DUP1 ISZERO PUSH2 0x10 JUMPI PUSH1 0x0 DUP1 REVERT JUMPDEST POP PUSH1 0x40 MLOAD PUSH2 0x3B82 CODESIZE SUB DUP1 PUSH2 0x3B82 DUP4 CODECOPY DUP2 DUP2 ADD PUSH1 0x40 MSTORE DUP2 ADD SWAP1 PUSH2 0x32 SWAP2 SWAP1 PUSH2 0x272 JUMP JUMPDEST DUP1 PUSH1 0x40 MLOAD DUP1 PUSH1 0x40 ADD PUSH1 0x40 MSTORE DUP1 PUSH1 0x18 DUP2 MSTORE PUSH1 0x20 ADD PUSH32 0x44535343205468696E67537065616B204964656E746974790000000000000000 DUP2 MSTORE POP PUSH1 0x40 MLOAD DUP1 PUSH1 0x40 ADD PUSH1 0x40 MSTORE DUP1 PUSH1 0x7 DUP2 MSTORE PUSH1 0x20 ADD PUSH32 0x445353432D545300000000000000000000000000000000000000000000000000 DUP2 MSTORE POP DUP2 PUSH1 0x0 SWAP1 DUP2 PUSH2 0xAE SWAP2 SWAP1 PUSH2 0x4EF JUMP JUMPDEST POP DUP1 PUSH1 0x1 SWAP1 DUP2 PUSH2 0xBE SWAP2 SWAP1 PUSH2 0x4EF JUMP JUMPDEST POP POP POP PUSH1 0x0 PUSH20 0xFFFFFFFFFFFFFFFFFFFFFFFFFFFFFFFFFFFFFFFF AND DUP2 PUSH20 0xFFFFFFFFFFFFFFFFFFFFFFFFFFFFFFFFFFFFFFFF AND SUB PUSH2 0x133 JUMPI PUSH1 0x0 PUSH1 0x40 MLOAD PUSH32 0x1E4FBDF700000000000000000000000000000000000000000000000000000000 DUP2 MSTORE PUSH1 0x4 ADD PUSH2 0x12A SWAP2 SWAP1 PUSH2 0x5D0 JUMP JUMPDEST PUSH1 0x40 MLOAD DUP1 SWAP2 SUB SWAP1 REVERT JUMPDEST PUSH2 0x142 DUP2 PUSH2 0x149 PUSH1 0x20 SHL PUSH1 0x20 SHR JUMP JUMPDEST POP POP PUSH2 0x5EB JUMP JUMPDEST PUSH1 0x0 PUSH1 0x6 PUSH1 0x0 SWAP1 SLOAD SWAP1 PUSH2 0x100 EXP SWAP1 DIV PUSH20 0xFFFFFFFFFFFFFFFFFFFFFFFFFFFFFFFFFFFFFFFF AND SWAP1 POP DUP2 PUSH1 0x6 PUSH1 0x0 PUSH2 0x100 EXP DUP2 SLOAD DUP2 PUSH20 0xFFFFFFFFFFFFFFFFFFFFFFFFFFFFFFFFFFFFFFFF MUL NOT AND SWAP1 DUP4 PUSH20 0xFFFFFFFFFFFFFFFFFFFFFFFFFFFFFFFFFFFFFFFF AND MUL OR SWAP1 SSTORE POP DUP2 PUSH20 0xFFFFFFFFFFFFFFFFFFFFFFFFFFFFFFFFFFFFFFFF AND DUP2 PUSH20 0xFFFFFFFFFFFFFFFFFFFFFFFFFFFFFFFFFFFFFFFF AND PUSH32 0x8BE0079C531659141344CD1FD0A4F28419497F9722A3DAAFE3B4186F6B6457E0 PUSH1 0x40 MLOAD PUSH1 0x40 MLOAD DUP1 SWAP2 SUB SWAP1 LOG3 POP POP JUMP JUMPDEST PUSH1 0x0 DUP1 REVERT JUMPDEST PUSH1 0x0 PUSH20 0xFFFFFFFFFFFFFFFFFFFFFFFFFFFFFFFFFFFFFFFF DUP3 AND SWAP1 POP SWAP2 SWAP1 POP JUMP JUMPDEST PUSH1 0x0 PUSH2 0x23F DUP3 PUSH2 0x214 JUMP JUMPDEST SWAP1 POP SWAP2 SWAP1 POP JUMP JUMPDEST PUSH2 0x24F DUP2 PUSH2 0x234 JUMP JUMPDEST DUP2 EQ PUSH2 0x25A JUMPI PUSH1 0x0 DUP1 REVERT JUMPDEST POP JUMP JUMPDEST PUSH1 0x0 DUP2 MLOAD SWAP1 POP PUSH2 0x26C DUP2 PUSH2 0x246 JUMP JUMPDEST SWAP3 SWAP2 POP POP JUMP JUMPDEST PUSH1 0x0 PUSH1 0x20 DUP3 DUP5 SUB SLT ISZERO PUSH2 0x288 JUMPI PUSH2 0x287 PUSH2 0x20F JUMP JUMPDEST JUMPDEST PUSH1 0x0 PUSH2 0x296 DUP5 DUP3 DUP6 ADD PUSH2 0x25D JUMP JUMPDEST SWAP2 POP POP SWAP3 SWAP2 POP POP JUMP JUMPDEST PUSH1 0x0 DUP2 MLOAD SWAP1 POP SWAP2 SWAP1 POP JUMP JUMPDEST PUSH32 0x4E487B7100000000000000000000000000000000000000000000000000000000 PUSH1 0x0 MSTORE PUSH1 0x41 PUSH1 0x4 MSTORE PUSH1 0x24 PUSH1 0x0 REVERT JUMPDEST PUSH32 0x4E487B7100000000000000000000000000000000000000000000000000000000 PUSH1 0x0 MSTORE PUSH1 0x22 PUSH1 0x4 MSTORE PUSH1 0x24 PUSH1 0x0 REVERT JUMPDEST PUSH1 0x0 PUSH1 0x2 DUP3 DIV SWAP1 POP PUSH1 0x1 DUP3 AND DUP1 PUSH2 0x320 JUMPI PUSH1 0x7F DUP3 AND SWAP2 POP JUMPDEST PUSH1 0x20 DUP3 LT DUP2 SUB PUSH2 0x333 JUMPI PUSH2 0x332 PUSH2 0x2D9 JUMP JUMPDEST JUMPDEST POP SWAP2 SWAP1 POP JUMP JUMPDEST PUSH1 0x0 DUP2 SWAP1 POP DUP2 PUSH1 0x0 MSTORE PUSH1 0x20 PUSH1 0x0 KECCAK256 SWAP1 POP SWAP2 SWAP1 POP JUMP JUMPDEST PUSH1 0x0 PUSH1 0x20 PUSH1 0x1F DUP4 ADD DIV SWAP1 POP SWAP2 SWAP1 POP JUMP JUMPDEST PUSH1 0x0 DUP3 DUP3 SHL SWAP1 POP SWAP3 SWAP2 POP POP JUMP JUMPDEST PUSH1 0x0 PUSH1 0x8 DUP4 MUL PUSH2 0x39B PUSH32 0xFFFFFFFFFFFFFFFFFFFFFFFFFFFFFFFFFFFFFFFFFFFFFFFFFFFFFFFFFFFFFFFF DUP3 PUSH2 0x35E JUMP JUMPDEST PUSH2 0x3A5 DUP7 DUP4 PUSH2 0x35E JUMP JUMPDEST SWAP6 POP DUP1 NOT DUP5 AND SWAP4 POP DUP1 DUP7 AND DUP5 OR SWAP3 POP POP POP SWAP4 SWAP3 POP POP POP JUMP JUMPDEST PUSH1 0x0 DUP2 SWAP1 POP SWAP2 SWAP1 POP JUMP JUMPDEST PUSH1 0x0 DUP2 SWAP1 POP SWAP2 SWAP1 POP JUMP JUMPDEST PUSH1 0x0 PUSH2 0x3EC PUSH2 0x3E7 PUSH2 0x3E2 DUP5 PUSH2 0x3BD JUMP JUMPDEST PUSH2 0x3C7 JUMP JUMPDEST PUSH2 0x3BD JUMP JUMPDEST SWAP1 POP SWAP2 SWAP1 POP JUMP JUMPDEST PUSH1 0x0 DUP2 SWAP1 POP SWAP2 SWAP1 POP JUMP JUMPDEST PUSH2 0x406 DUP4 PUSH2 0x3D1 JUMP JUMPDEST PUSH2 0x41A PUSH2 0x412 DUP3 PUSH2 0x3F3 JUMP JUMPDEST DUP5 DUP5 SLOAD PUSH2 0x36B JUMP JUMPDEST DUP3 SSTORE POP POP POP POP JUMP JUMPDEST PUSH1 0x0 SWAP1 JUMP JUMPDEST PUSH2 0x42F PUSH2 0x422 JUMP JUMPDEST PUSH2 0x43A DUP2 DUP5 DUP5 PUSH2 0x3FD JUMP JUMPDEST POP POP POP JUMP JUMPDEST JUMPDEST DUP2 DUP2 LT ISZERO PUSH2 0x45E JUMPI PUSH2 0x453 PUSH1 0x0 DUP3 PUSH2 0x427 JUMP JUMPDEST PUSH1 0x1 DUP2 ADD SWAP1 POP PUSH2 0x440 JUMP JUMPDEST POP POP JUMP JUMPDEST PUSH1 0x1F DUP3 GT ISZERO PUSH2 0x4A3 JUMPI PUSH2 0x474 DUP2 PUSH2 0x339 JUMP JUMPDEST PUSH2 0x47D DUP5 PUSH2 0x34E JUMP JUMPDEST DUP2 ADD PUSH1 0x20 DUP6 LT ISZERO PUSH2 0x48C JUMPI DUP2 SWAP1 POP JUMPDEST PUSH2 0x4A0 PUSH2 0x498 DUP6 PUSH2 0x34E JUMP JUMPDEST DUP4 ADD DUP3 PUSH2 0x43F JUMP JUMPDEST POP POP JUMPDEST POP POP POP JUMP JUMPDEST PUSH1 0x0 DUP3 DUP3 SHR SWAP1 POP SWAP3 SWAP2 POP POP JUMP JUMPDEST PUSH1 0x0 PUSH2 0x4C6 PUSH1 0x0 NOT DUP5 PUSH1 0x8 MUL PUSH2 0x4A8 JUMP JUMPDEST NOT DUP1 DUP4 AND SWAP2 POP POP SWAP3 SWAP2 POP POP JUMP JUMPDEST PUSH1 0x0 PUSH2 0x4DF DUP4 DUP4 PUSH2 0x4B5 JUMP JUMPDEST SWAP2 POP DUP3 PUSH1 0x2 MUL DUP3 OR SWAP1 POP SWAP3 SWAP2 POP POP JUMP JUMPDEST PUSH2 0x4F8 DUP3 PUSH2 0x29F JUMP JUMPDEST PUSH8 0xFFFFFFFFFFFFFFFF DUP2 GT ISZERO PUSH2 0x511 JUMPI PUSH2 0x510 PUSH2 0x2AA JUMP JUMPDEST JUMPDEST PUSH2 0x51B DUP3 SLOAD PUSH2 0x308 JUMP JUMPDEST PUSH2 0x526 DUP3 DUP3 DUP6 PUSH2 0x462 JUMP JUMPDEST PUSH1 0x0 PUSH1 0x20 SWAP1 POP PUSH1 0x1F DUP4 GT PUSH1 0x1 DUP2 EQ PUSH2 0x559 JUMPI PUSH1 0x0 DUP5 ISZERO PUSH2 0x547 JUMPI DUP3 DUP8 ADD MLOAD SWAP1 POP JUMPDEST PUSH2 0x551 DUP6 DUP3 PUSH2 0x4D3 JUMP JUMPDEST DUP7 SSTORE POP PUSH2 0x5B9 JUMP JUMPDEST PUSH1 0x1F NOT DUP5 AND PUSH2 0x567 DUP7 PUSH2 0x339 JUMP JUMPDEST PUSH1 0x0 JUMPDEST DUP3 DUP2 LT ISZERO PUSH2 0x58F JUMPI DUP5 DUP10 ADD MLOAD DUP3 SSTORE PUSH1 0x1 DUP3 ADD SWAP2 POP PUSH1 0x20 DUP6 ADD SWAP5 POP PUSH1 0x20 DUP2 ADD SWAP1 POP PUSH2 0x56A JUMP JUMPDEST DUP7 DUP4 LT ISZERO PUSH2 0x5AC JUMPI DUP5 DUP10 ADD MLOAD PUSH2 0x5A8 PUSH1 0x1F DUP10 AND DUP3 PUSH2 0x4B5 JUMP JUMPDEST DUP4 SSTORE POP JUMPDEST PUSH1 0x1 PUSH1 0x2 DUP9 MUL ADD DUP9 SSTORE POP POP POP JUMPDEST POP POP POP POP POP POP JUMP JUMPDEST PUSH2 0x5CA DUP2 PUSH2 0x234 JUMP JUMPDEST DUP3 MSTORE POP POP JUMP JUMPDEST PUSH1 0x0 PUSH1 0x20 DUP3 ADD SWAP1 POP PUSH2 0x5E5 PUSH1 0x0 DUP4 ADD DUP5 PUSH2 0x5C1 JUMP JUMPDEST SWAP3 SWAP2 POP POP JUMP JUMPDEST PUSH2 0x3588 DUP1 PUSH2 0x5FA PUSH1 0x0 CODECOPY PUSH1 0x0 RETURN INVALID PUSH1 0x80 PUSH1 0x40 MSTORE CALLVALUE DUP1 ISZERO PUSH2 0x10 JUMPI PUSH1 0x0 DUP1 REVERT JUMPDEST POP PUSH1 0x4 CALLDATASIZE LT PUSH2 0x1C4 JUMPI PUSH1 0x0 CALLDATALOAD PUSH1 0xE0 SHR DUP1 PUSH4 0x715018A6 GT PUSH2 0xF9 JUMPI DUP1 PUSH4 0xCCC772E7 GT PUSH2 0x97 JUMPI DUP1 PUSH4 0xE985E9C5 GT PUSH2 0x71 JUMPI DUP1 PUSH4 0xE985E9C5 EQ PUSH2 0x538 JUMPI DUP1 PUSH4 0xF2FDE38B EQ PUSH2 0x568 JUMPI DUP1 PUSH4 0xF3E15DEF EQ PUSH2 0x584 JUMPI DUP1 PUSH4 0xF403CFB6 EQ PUSH2 0x5B4 JUMPI PUSH2 0x1C4 JUMP JUMPDEST DUP1 PUSH4 0xCCC772E7 EQ PUSH2 0x4C9 JUMPI DUP1 PUSH4 0xE7E027F1 EQ PUSH2 0x500 JUMPI DUP1 PUSH4 0xE815CF24 EQ PUSH2 0x51C JUMPI PUSH2 0x1C4 JUMP JUMPDEST DUP1 PUSH4 0x95D89B41 GT PUSH2 0xD3 JUMPI DUP1 PUSH4 0x95D89B41 EQ PUSH2 0x443 JUMPI DUP1 PUSH4 0xA22CB465 EQ PUSH2 0x461 JUMPI DUP1 PUSH4 0xB88D4FDE EQ PUSH2 0x47D JUMPI DUP1 PUSH4 0xC87B56DD EQ PUSH2 0x499 JUMPI PUSH2 0x1C4 JUMP JUMPDEST DUP1 PUSH4 0x715018A6 EQ PUSH2 0x3EB JUMPI DUP1 PUSH4 0x8DA5CB5B EQ PUSH2 0x3F5 JUMPI DUP1 PUSH4 0x95839CB2 EQ PUSH2 0x413 JUMPI PUSH2 0x1C4 JUMP JUMPDEST DUP1 PUSH4 0x348D7362 GT PUSH2 0x166 JUMPI DUP1 PUSH4 0x60C5D7A4 GT PUSH2 0x140 JUMPI DUP1 PUSH4 0x60C5D7A4 EQ PUSH2 0x34E JUMPI DUP1 PUSH4 0x61B1CA27 EQ PUSH2 0x36C JUMPI DUP1 PUSH4 0x6352211E EQ PUSH2 0x38B JUMPI DUP1 PUSH4 0x70A08231 EQ PUSH2 0x3BB JUMPI PUSH2 0x1C4 JUMP JUMPDEST DUP1 PUSH4 0x348D7362 EQ PUSH2 0x2D2 JUMPI DUP1 PUSH4 0x42842E0E EQ PUSH2 0x302 JUMPI DUP1 PUSH4 0x4F558E79 EQ PUSH2 0x31E JUMPI PUSH2 0x1C4 JUMP JUMPDEST DUP1 PUSH4 0x95EA7B3 GT PUSH2 0x1A2 JUMPI DUP1 PUSH4 0x95EA7B3 EQ PUSH2 0x247 JUMPI DUP1 PUSH4 0xEF644A5 EQ PUSH2 0x263 JUMPI DUP1 PUSH4 0x1941FD14 EQ PUSH2 0x27F JUMPI DUP1 PUSH4 0x23B872DD EQ PUSH2 0x2B6 JUMPI PUSH2 0x1C4 JUMP JUMPDEST DUP1 PUSH4 0x1FFC9A7 EQ PUSH2 0x1C9 JUMPI DUP1 PUSH4 0x6FDDE03 EQ PUSH2 0x1F9 JUMPI DUP1 PUSH4 0x81812FC EQ PUSH2 0x217 JUMPI JUMPDEST PUSH1 0x0 DUP1 REVERT JUMPDEST PUSH2 0x1E3 PUSH1 0x4 DUP1 CALLDATASIZE SUB DUP2 ADD SWAP1 PUSH2 0x1DE SWAP2 SWAP1 PUSH2 0x2616 JUMP JUMPDEST PUSH2 0x5D2 JUMP JUMPDEST PUSH1 0x40 MLOAD PUSH2 0x1F0 SWAP2 SWAP1 PUSH2 0x265E JUMP JUMPDEST PUSH1 0x40 MLOAD DUP1 SWAP2 SUB SWAP1 RETURN JUMPDEST PUSH2 0x201 PUSH2 0x6B4 JUMP JUMPDEST PUSH1 0x40 MLOAD PUSH2 0x20E SWAP2 SWAP1 PUSH2 0x2709 JUMP JUMPDEST PUSH1 0x40 MLOAD DUP1 SWAP2 SUB SWAP1 RETURN JUMPDEST PUSH2 0x231 PUSH1 0x4 DUP1 CALLDATASIZE SUB DUP2 ADD SWAP1 PUSH2 0x22C SWAP2 SWAP1 PUSH2 0x2761 JUMP JUMPDEST PUSH2 0x746 JUMP JUMPDEST PUSH1 0x40 MLOAD PUSH2 0x23E SWAP2 SWAP1 PUSH2 0x27CF JUMP JUMPDEST PUSH1 0x40 MLOAD DUP1 SWAP2 SUB SWAP1 RETURN JUMPDEST PUSH2 0x261 PUSH1 0x4 DUP1 CALLDATASIZE SUB DUP2 ADD SWAP1 PUSH2 0x25C SWAP2 SWAP1 PUSH2 0x2816 JUMP JUMPDEST PUSH2 0x762 JUMP JUMPDEST STOP JUMPDEST PUSH2 0x27D PUSH1 0x4 DUP1 CALLDATASIZE SUB DUP2 ADD SWAP1 PUSH2 0x278 SWAP2 SWAP1 PUSH2 0x2882 JUMP JUMPDEST PUSH2 0x778 JUMP JUMPDEST STOP JUMPDEST PUSH2 0x299 PUSH1 0x4 DUP1 CALLDATASIZE SUB DUP2 ADD SWAP1 PUSH2 0x294 SWAP2 SWAP1 PUSH2 0x2761 JUMP JUMPDEST PUSH2 0x832 JUMP JUMPDEST PUSH1 0x40 MLOAD PUSH2 0x2AD SWAP9 SWAP8 SWAP7 SWAP6 SWAP5 SWAP4 SWAP3 SWAP2 SWAP1 PUSH2 0x28D1 JUMP JUMPDEST PUSH1 0x40 MLOAD DUP1 SWAP2 SUB SWAP1 RETURN JUMPDEST PUSH2 0x2D0 PUSH1 0x4 DUP1 CALLDATASIZE SUB DUP2 ADD SWAP1 PUSH2 0x2CB SWAP2 SWAP1 PUSH2 0x295D JUMP JUMPDEST PUSH2 0x997 JUMP JUMPDEST STOP JUMPDEST PUSH2 0x2EC PUSH1 0x4 DUP1 CALLDATASIZE SUB DUP2 ADD SWAP1 PUSH2 0x2E7 SWAP2 SWAP1 PUSH2 0x2761 JUMP JUMPDEST PUSH2 0xA99 JUMP JUMPDEST PUSH1 0x40 MLOAD PUSH2 0x2F9 SWAP2 SWAP1 PUSH2 0x29B0 JUMP JUMPDEST PUSH1 0x40 MLOAD DUP1 SWAP2 SUB SWAP1 RETURN JUMPDEST PUSH2 0x31C PUSH1 0x4 DUP1 CALLDATASIZE SUB DUP2 ADD SWAP1 PUSH2 0x317 SWAP2 SWAP1 PUSH2 0x295D JUMP JUMPDEST PUSH2 0xABB JUMP JUMPDEST STOP JUMPDEST PUSH2 0x338 PUSH1 0x4 DUP1 CALLDATASIZE SUB DUP2 ADD SWAP1 PUSH2 0x333 SWAP2 SWAP1 PUSH2 0x2761 JUMP JUMPDEST PUSH2 0xADB JUMP JUMPDEST PUSH1 0x40 MLOAD PUSH2 0x345 SWAP2 SWAP1 PUSH2 0x265E JUMP JUMPDEST PUSH1 0x40 MLOAD DUP1 SWAP2 SUB SWAP1 RETURN JUMPDEST PUSH2 0x356 PUSH2 0xB1C JUMP JUMPDEST PUSH1 0x40 MLOAD PUSH2 0x363 SWAP2 SWAP1 PUSH2 0x2709 JUMP JUMPDEST PUSH1 0x40 MLOAD DUP1 SWAP2 SUB SWAP1 RETURN JUMPDEST PUSH2 0x374 PUSH2 0xB55 JUMP JUMPDEST PUSH1 0x40 MLOAD PUSH2 0x382 SWAP3 SWAP2 SWAP1 PUSH2 0x29CB JUMP JUMPDEST PUSH1 0x40 MLOAD DUP1 SWAP2 SUB SWAP1 RETURN JUMPDEST PUSH2 0x3A5 PUSH1 0x4 DUP1 CALLDATASIZE SUB DUP2 ADD SWAP1 PUSH2 0x3A0 SWAP2 SWAP1 PUSH2 0x2761 JUMP JUMPDEST PUSH2 0xBCC JUMP JUMPDEST PUSH1 0x40 MLOAD PUSH2 0x3B2 SWAP2 SWAP1 PUSH2 0x27CF JUMP JUMPDEST PUSH1 0x40 MLOAD DUP1 SWAP2 SUB SWAP1 RETURN JUMPDEST PUSH2 0x3D5 PUSH1 0x4 DUP1 CALLDATASIZE SUB DUP2 ADD SWAP1 PUSH2 0x3D0 SWAP2 SWAP1 PUSH2 0x2A02 JUMP JUMPDEST PUSH2 0xBDE JUMP JUMPDEST PUSH1 0x40 MLOAD PUSH2 0x3E2 SWAP2 SWAP1 PUSH2 0x29B0 JUMP JUMPDEST PUSH1 0x40 MLOAD DUP1 SWAP2 SUB SWAP1 RETURN JUMPDEST PUSH2 0x3F3 PUSH2 0xC98 JUMP JUMPDEST STOP JUMPDEST PUSH2 0x3FD PUSH2 0xCAC JUMP JUMPDEST PUSH1 0x40 MLOAD PUSH2 0x40A SWAP2 SWAP1 PUSH2 0x27CF JUMP JUMPDEST PUSH1 0x40 MLOAD DUP1 SWAP2 SUB SWAP1 RETURN JUMPDEST PUSH2 0x42D PUSH1 0x4 DUP1 CALLDATASIZE SUB DUP2 ADD SWAP1 PUSH2 0x428 SWAP2 SWAP1 PUSH2 0x2B64 JUMP JUMPDEST PUSH2 0xCD6 JUMP JUMPDEST PUSH1 0x40 MLOAD PUSH2 0x43A SWAP2 SWAP1 PUSH2 0x265E JUMP JUMPDEST PUSH1 0x40 MLOAD DUP1 SWAP2 SUB SWAP1 RETURN JUMPDEST PUSH2 0x44B PUSH2 0xF37 JUMP JUMPDEST PUSH1 0x40 MLOAD PUSH2 0x458 SWAP2 SWAP1 PUSH2 0x2709 JUMP JUMPDEST PUSH1 0x40 MLOAD DUP1 SWAP2 SUB SWAP1 RETURN JUMPDEST PUSH2 0x47B PUSH1 0x4 DUP1 CALLDATASIZE SUB DUP2 ADD SWAP1 PUSH2 0x476 SWAP2 SWAP1 PUSH2 0x2BD3 JUMP JUMPDEST PUSH2 0xFC9 JUMP JUMPDEST STOP JUMPDEST PUSH2 0x497 PUSH1 0x4 DUP1 CALLDATASIZE SUB DUP2 ADD SWAP1 PUSH2 0x492 SWAP2 SWAP1 PUSH2 0x2CB4 JUMP JUMPDEST PUSH2 0xFDF JUMP JUMPDEST STOP JUMPDEST PUSH2 0x4B3 PUSH1 0x4 DUP1 CALLDATASIZE SUB DUP2 ADD SWAP1 PUSH2 0x4AE SWAP2 SWAP1 PUSH2 0x2761 JUMP JUMPDEST PUSH2 0x1004 JUMP JUMPDEST PUSH1 0x40 MLOAD PUSH2 0x4C0 SWAP2 SWAP1 PUSH2 0x2709 JUMP JUMPDEST PUSH1 0x40 MLOAD DUP1 SWAP2 SUB SWAP1 RETURN JUMPDEST PUSH2 0x4E3 PUSH1 0x4 DUP1 CALLDATASIZE SUB DUP2 ADD SWAP1 PUSH2 0x4DE SWAP2 SWAP1 PUSH2 0x2761 JUMP JUMPDEST PUSH2 0x106D JUMP JUMPDEST PUSH1 0x40 MLOAD PUSH2 0x4F7 SWAP9 SWAP8 SWAP7 SWAP6 SWAP5 SWAP4 SWAP3 SWAP2 SWAP1 PUSH2 0x28D1 JUMP JUMPDEST PUSH1 0x40 MLOAD DUP1 SWAP2 SUB SWAP1 RETURN JUMPDEST PUSH2 0x51A PUSH1 0x4 DUP1 CALLDATASIZE SUB DUP2 ADD SWAP1 PUSH2 0x515 SWAP2 SWAP1 PUSH2 0x2D37 JUMP JUMPDEST PUSH2 0x129A JUMP JUMPDEST STOP JUMPDEST PUSH2 0x536 PUSH1 0x4 DUP1 CALLDATASIZE SUB DUP2 ADD SWAP1 PUSH2 0x531 SWAP2 SWAP1 PUSH2 0x2D77 JUMP JUMPDEST PUSH2 0x1341 JUMP JUMPDEST STOP JUMPDEST PUSH2 0x552 PUSH1 0x4 DUP1 CALLDATASIZE SUB DUP2 ADD SWAP1 PUSH2 0x54D SWAP2 SWAP1 PUSH2 0x2DE6 JUMP JUMPDEST PUSH2 0x142A JUMP JUMPDEST PUSH1 0x40 MLOAD PUSH2 0x55F SWAP2 SWAP1 PUSH2 0x265E JUMP JUMPDEST PUSH1 0x40 MLOAD DUP1 SWAP2 SUB SWAP1 RETURN JUMPDEST PUSH2 0x582 PUSH1 0x4 DUP1 CALLDATASIZE SUB DUP2 ADD SWAP1 PUSH2 0x57D SWAP2 SWAP1 PUSH2 0x2A02 JUMP JUMPDEST PUSH2 0x14BE JUMP JUMPDEST STOP JUMPDEST PUSH2 0x59E PUSH1 0x4 DUP1 CALLDATASIZE SUB DUP2 ADD SWAP1 PUSH2 0x599 SWAP2 SWAP1 PUSH2 0x2E26 JUMP JUMPDEST PUSH2 0x1544 JUMP JUMPDEST PUSH1 0x40 MLOAD PUSH2 0x5AB SWAP2 SWAP1 PUSH2 0x29B0 JUMP JUMPDEST PUSH1 0x40 MLOAD DUP1 SWAP2 SUB SWAP1 RETURN JUMPDEST PUSH2 0x5BC PUSH2 0x1683 JUMP JUMPDEST PUSH1 0x40 MLOAD PUSH2 0x5C9 SWAP2 SWAP1 PUSH2 0x2709 JUMP JUMPDEST PUSH1 0x40 MLOAD DUP1 SWAP2 SUB SWAP1 RETURN JUMPDEST PUSH1 0x0 PUSH32 0x80AC58CD00000000000000000000000000000000000000000000000000000000 PUSH28 0xFFFFFFFFFFFFFFFFFFFFFFFFFFFFFFFFFFFFFFFFFFFFFFFFFFFFFFFF NOT AND DUP3 PUSH28 0xFFFFFFFFFFFFFFFFFFFFFFFFFFFFFFFFFFFFFFFFFFFFFFFFFFFFFFFF NOT AND EQ DUP1 PUSH2 0x69D JUMPI POP PUSH32 0x5B5E139F00000000000000000000000000000000000000000000000000000000 PUSH28 0xFFFFFFFFFFFFFFFFFFFFFFFFFFFFFFFFFFFFFFFFFFFFFFFFFFFFFFFF NOT AND DUP3 PUSH28 0xFFFFFFFFFFFFFFFFFFFFFFFFFFFFFFFFFFFFFFFFFFFFFFFFFFFFFFFF NOT AND EQ JUMPDEST DUP1 PUSH2 0x6AD JUMPI POP PUSH2 0x6AC DUP3 PUSH2 0x16BC JUMP JUMPDEST JUMPDEST SWAP1 POP SWAP2 SWAP1 POP JUMP JUMPDEST PUSH1 0x60 PUSH1 0x0 DUP1 SLOAD PUSH2 0x6C3 SWAP1 PUSH2 0x2EF4 JUMP JUMPDEST DUP1 PUSH1 0x1F ADD PUSH1 0x20 DUP1 SWAP2 DIV MUL PUSH1 0x20 ADD PUSH1 0x40 MLOAD SWAP1 DUP2 ADD PUSH1 0x40 MSTORE DUP1 SWAP3 SWAP2 SWAP1 DUP2 DUP2 MSTORE PUSH1 0x20 ADD DUP3 DUP1 SLOAD PUSH2 0x6EF SWAP1 PUSH2 0x2EF4 JUMP JUMPDEST DUP1 ISZERO PUSH2 0x73C JUMPI DUP1 PUSH1 0x1F LT PUSH2 0x711 JUMPI PUSH2 0x100 DUP1 DUP4 SLOAD DIV MUL DUP4 MSTORE SWAP2 PUSH1 0x20 ADD SWAP2 PUSH2 0x73C JUMP JUMPDEST DUP3 ADD SWAP2 SWAP1 PUSH1 0x0 MSTORE PUSH1 0x20 PUSH1 0x0 KECCAK256 SWAP1 JUMPDEST DUP2 SLOAD DUP2 MSTORE SWAP1 PUSH1 0x1 ADD SWAP1 PUSH1 0x20 ADD DUP1 DUP4 GT PUSH2 0x71F JUMPI DUP3 SWAP1 SUB PUSH1 0x1F AND DUP3 ADD SWAP2 JUMPDEST POP POP POP POP POP SWAP1 POP SWAP1 JUMP JUMPDEST PUSH1 0x0 PUSH2 0x751 DUP3 PUSH2 0x1726 JUMP JUMPDEST POP PUSH2 0x75B DUP3 PUSH2 0x17AE JUMP JUMPDEST SWAP1 POP SWAP2 SWAP1 POP JUMP JUMPDEST PUSH2 0x774 DUP3 DUP3 PUSH2 0x76F PUSH2 0x17EB JUMP JUMPDEST PUSH2 0x17F3 JUMP JUMPDEST POP POP JUMP JUMPDEST PUSH2 0x780 PUSH2 0x1805 JUMP JUMPDEST PUSH2 0x789 DUP3 PUSH2 0xADB JUMP JUMPDEST PUSH2 0x7C8 JUMPI PUSH1 0x40 MLOAD PUSH32 0x8C379A000000000000000000000000000000000000000000000000000000000 DUP2 MSTORE PUSH1 0x4 ADD PUSH2 0x7BF SWAP1 PUSH2 0x2F71 JUMP JUMPDEST PUSH1 0x40 MLOAD DUP1 SWAP2 SUB SWAP1 REVERT JUMPDEST DUP1 PUSH1 0x8 PUSH1 0x0 DUP5 DUP2 MSTORE PUSH1 0x20 ADD SWAP1 DUP2 MSTORE PUSH1 0x20 ADD PUSH1 0x0 KECCAK256 PUSH1 0x3 ADD PUSH1 0x0 PUSH2 0x100 EXP DUP2 SLOAD DUP2 PUSH1 0xFF MUL NOT AND SWAP1 DUP4 ISZERO ISZERO MUL OR SWAP1 SSTORE POP DUP2 PUSH32 0xC03020D2ADF1B6AA3EB2D84172D6F3BF992C3FEC852BEFA29DF3B990634E801C DUP3 PUSH1 0x40 MLOAD PUSH2 0x826 SWAP2 SWAP1 PUSH2 0x265E JUMP JUMPDEST PUSH1 0x40 MLOAD DUP1 SWAP2 SUB SWAP1 LOG2 POP POP JUMP JUMPDEST PUSH1 0x8 PUSH1 0x20 MSTORE DUP1 PUSH1 0x0 MSTORE PUSH1 0x40 PUSH1 0x0 KECCAK256 PUSH1 0x0 SWAP2 POP SWAP1 POP DUP1 PUSH1 0x0 ADD DUP1 SLOAD PUSH2 0x855 SWAP1 PUSH2 0x2EF4 JUMP JUMPDEST DUP1 PUSH1 0x1F ADD PUSH1 0x20 DUP1 SWAP2 DIV MUL PUSH1 0x20 ADD PUSH1 0x40 MLOAD SWAP1 DUP2 ADD PUSH1 0x40 MSTORE DUP1 SWAP3 SWAP2 SWAP1 DUP2 DUP2 MSTORE PUSH1 0x20 ADD DUP3 DUP1 SLOAD PUSH2 0x881 SWAP1 PUSH2 0x2EF4 JUMP JUMPDEST DUP1 ISZERO PUSH2 0x8CE JUMPI DUP1 PUSH1 0x1F LT PUSH2 0x8A3 JUMPI PUSH2 0x100 DUP1 DUP4 SLOAD DIV MUL DUP4 MSTORE SWAP2 PUSH1 0x20 ADD SWAP2 PUSH2 0x8CE JUMP JUMPDEST DUP3 ADD SWAP2 SWAP1 PUSH1 0x0 MSTORE PUSH1 0x20 PUSH1 0x0 KECCAK256 SWAP1 JUMPDEST DUP2 SLOAD DUP2 MSTORE SWAP1 PUSH1 0x1 ADD SWAP1 PUSH1 0x20 ADD DUP1 DUP4 GT PUSH2 0x8B1 JUMPI DUP3 SWAP1 SUB PUSH1 0x1F AND DUP3 ADD SWAP2 JUMPDEST POP POP POP POP POP SWAP1 DUP1 PUSH1 0x1 ADD SLOAD SWAP1 DUP1 PUSH1 0x2 ADD SLOAD SWAP1 DUP1 PUSH1 0x3 ADD PUSH1 0x0 SWAP1 SLOAD SWAP1 PUSH2 0x100 EXP SWAP1 DIV PUSH1 0xFF AND SWAP1 DUP1 PUSH1 0x4 ADD SLOAD SWAP1 DUP1 PUSH1 0x5 ADD DUP1 SLOAD PUSH2 0x908 SWAP1 PUSH2 0x2EF4 JUMP JUMPDEST DUP1 PUSH1 0x1F ADD PUSH1 0x20 DUP1 SWAP2 DIV MUL PUSH1 0x20 ADD PUSH1 0x40 MLOAD SWAP1 DUP2 ADD PUSH1 0x40 MSTORE DUP1 SWAP3 SWAP2 SWAP1 DUP2 DUP2 MSTORE PUSH1 0x20 ADD DUP3 DUP1 SLOAD PUSH2 0x934 SWAP1 PUSH2 0x2EF4 JUMP JUMPDEST DUP1 ISZERO PUSH2 0x981 JUMPI DUP1 PUSH1 0x1F LT PUSH2 0x956 JUMPI PUSH2 0x100 DUP1 DUP4 SLOAD DIV MUL DUP4 MSTORE SWAP2 PUSH1 0x20 ADD SWAP2 PUSH2 0x981 JUMP JUMPDEST DUP3 ADD SWAP2 SWAP1 PUSH1 0x0 MSTORE PUSH1 0x20 PUSH1 0x0 KECCAK256 SWAP1 JUMPDEST DUP2 SLOAD DUP2 MSTORE SWAP1 PUSH1 0x1 ADD SWAP1 PUSH1 0x20 ADD DUP1 DUP4 GT PUSH2 0x964 JUMPI DUP3 SWAP1 SUB PUSH1 0x1F AND DUP3 ADD SWAP2 JUMPDEST POP POP POP POP POP SWAP1 DUP1 PUSH1 0x6 ADD SLOAD SWAP1 DUP1 PUSH1 0x7 ADD SLOAD SWAP1 POP DUP9 JUMP JUMPDEST PUSH1 0x0 PUSH20 0xFFFFFFFFFFFFFFFFFFFFFFFFFFFFFFFFFFFFFFFF AND DUP3 PUSH20 0xFFFFFFFFFFFFFFFFFFFFFFFFFFFFFFFFFFFFFFFF AND SUB PUSH2 0xA09 JUMPI PUSH1 0x0 PUSH1 0x40 MLOAD PUSH32 0x64A0AE9200000000000000000000000000000000000000000000000000000000 DUP2 MSTORE PUSH1 0x4 ADD PUSH2 0xA00 SWAP2 SWAP1 PUSH2 0x27CF JUMP JUMPDEST PUSH1 0x40 MLOAD DUP1 SWAP2 SUB SWAP1 REVERT JUMPDEST PUSH1 0x0 PUSH2 0xA1D DUP4 DUP4 PUSH2 0xA18 PUSH2 0x17EB JUMP JUMPDEST PUSH2 0x188C JUMP JUMPDEST SWAP1 POP DUP4 PUSH20 0xFFFFFFFFFFFFFFFFFFFFFFFFFFFFFFFFFFFFFFFF AND DUP2 PUSH20 0xFFFFFFFFFFFFFFFFFFFFFFFFFFFFFFFFFFFFFFFF AND EQ PUSH2 0xA93 JUMPI DUP4 DUP3 DUP3 PUSH1 0x40 MLOAD PUSH32 0x64283D7B00000000000000000000000000000000000000000000000000000000 DUP2 MSTORE PUSH1 0x4 ADD PUSH2 0xA8A SWAP4 SWAP3 SWAP2 SWAP1 PUSH2 0x2F91 JUMP JUMPDEST PUSH1 0x40 MLOAD DUP1 SWAP2 SUB SWAP1 REVERT JUMPDEST POP POP POP POP JUMP JUMPDEST PUSH1 0x0 PUSH2 0x3E8 DUP3 DUP4 PUSH2 0xAAA SWAP2 SWAP1 PUSH2 0x2FF7 JUMP JUMPDEST PUSH2 0xAB4 SWAP2 SWAP1 PUSH2 0x3068 JUMP JUMPDEST SWAP1 POP SWAP2 SWAP1 POP JUMP JUMPDEST PUSH2 0xAD6 DUP4 DUP4 DUP4 PUSH1 0x40 MLOAD DUP1 PUSH1 0x20 ADD PUSH1 0x40 MSTORE DUP1 PUSH1 0x0 DUP2 MSTORE POP PUSH2 0xFDF JUMP JUMPDEST POP POP POP JUMP JUMPDEST PUSH1 0x0 DUP1 PUSH20 0xFFFFFFFFFFFFFFFFFFFFFFFFFFFFFFFFFFFFFFFF AND PUSH2 0xAFD DUP4 PUSH2 0x1AA6 JUMP JUMPDEST PUSH20 0xFFFFFFFFFFFFFFFFFFFFFFFFFFFFFFFFFFFFFFFF AND EQ ISZERO SWAP1 POP SWAP2 SWAP1 POP JUMP JUMPDEST PUSH1 0x40 MLOAD DUP1 PUSH1 0x40 ADD PUSH1 0x40 MSTORE DUP1 PUSH1 0x7 DUP2 MSTORE PUSH1 0x20 ADD PUSH32 0x3233333632343500000000000000000000000000000000000000000000000000 DUP2 MSTORE POP DUP2 JUMP JUMPDEST PUSH1 0x60 DUP1 PUSH1 0x40 MLOAD DUP1 PUSH1 0x40 ADD PUSH1 0x40 MSTORE DUP1 PUSH1 0x7 DUP2 MSTORE PUSH1 0x20 ADD PUSH32 0x3233333632343500000000000000000000000000000000000000000000000000 DUP2 MSTORE POP PUSH1 0x40 MLOAD DUP1 PUSH1 0x40 ADD PUSH1 0x40 MSTORE DUP1 PUSH1 0x10 DUP2 MSTORE PUSH1 0x20 ADD PUSH32 0x5758454552305451425833443652595900000000000000000000000000000000 DUP2 MSTORE POP SWAP2 POP SWAP2 POP SWAP1 SWAP2 JUMP JUMPDEST PUSH1 0x0 PUSH2 0xBD7 DUP3 PUSH2 0x1726 JUMP JUMPDEST SWAP1 POP SWAP2 SWAP1 POP JUMP JUMPDEST PUSH1 0x0 DUP1 PUSH20 0xFFFFFFFFFFFFFFFFFFFFFFFFFFFFFFFFFFFFFFFF AND DUP3 PUSH20 0xFFFFFFFFFFFFFFFFFFFFFFFFFFFFFFFFFFFFFFFF AND SUB PUSH2 0xC51 JUMPI PUSH1 0x0 PUSH1 0x40 MLOAD PUSH32 0x89C62B6400000000000000000000000000000000000000000000000000000000 DUP2 MSTORE PUSH1 0x4 ADD PUSH2 0xC48 SWAP2 SWAP1 PUSH2 0x27CF JUMP JUMPDEST PUSH1 0x40 MLOAD DUP1 SWAP2 SUB SWAP1 REVERT JUMPDEST PUSH1 0x3 PUSH1 0x0 DUP4 PUSH20 0xFFFFFFFFFFFFFFFFFFFFFFFFFFFFFFFFFFFFFFFF AND PUSH20 0xFFFFFFFFFFFFFFFFFFFFFFFFFFFFFFFFFFFFFFFF AND DUP2 MSTORE PUSH1 0x20 ADD SWAP1 DUP2 MSTORE PUSH1 0x20 ADD PUSH1 0x0 KECCAK256 SLOAD SWAP1 POP SWAP2 SWAP1 POP JUMP JUMPDEST PUSH2 0xCA0 PUSH2 0x1805 JUMP JUMPDEST PUSH2 0xCAA PUSH1 0x0 PUSH2 0x1AE3 JUMP JUMPDEST JUMP JUMPDEST PUSH1 0x0 PUSH1 0x6 PUSH1 0x0 SWAP1 SLOAD SWAP1 PUSH2 0x100 EXP SWAP1 DIV PUSH20 0xFFFFFFFFFFFFFFFFFFFFFFFFFFFFFFFFFFFFFFFF AND SWAP1 POP SWAP1 JUMP JUMPDEST PUSH1 0x0 PUSH2 0xCE1 DUP5 PUSH2 0xADB JUMP JUMPDEST PUSH2 0xD20 JUMPI PUSH1 0x40 MLOAD PUSH32 0x8C379A000000000000000000000000000000000000000000000000000000000 DUP2 MSTORE PUSH1 0x4 ADD PUSH2 0xD17 SWAP1 PUSH2 0x2F71 JUMP JUMPDEST PUSH1 0x40 MLOAD DUP1 SWAP2 SUB SWAP1 REVERT JUMPDEST PUSH1 0x0 PUSH1 0x8 PUSH1 0x0 DUP7 DUP2 MSTORE PUSH1 0x20 ADD SWAP1 DUP2 MSTORE PUSH1 0x20 ADD PUSH1 0x0 KECCAK256 PUSH1 0x40 MLOAD DUP1 PUSH2 0x100 ADD PUSH1 0x40 MSTORE SWAP1 DUP2 PUSH1 0x0 DUP3 ADD DUP1 SLOAD PUSH2 0xD51 SWAP1 PUSH2 0x2EF4 JUMP JUMPDEST DUP1 PUSH1 0x1F ADD PUSH1 0x20 DUP1 SWAP2 DIV MUL PUSH1 0x20 ADD PUSH1 0x40 MLOAD SWAP1 DUP2 ADD PUSH1 0x40 MSTORE DUP1 SWAP3 SWAP2 SWAP1 DUP2 DUP2 MSTORE PUSH1 0x20 ADD DUP3 DUP1 SLOAD PUSH2 0xD7D SWAP1 PUSH2 0x2EF4 JUMP JUMPDEST DUP1 ISZERO PUSH2 0xDCA JUMPI DUP1 PUSH1 0x1F LT PUSH2 0xD9F JUMPI PUSH2 0x100 DUP1 DUP4 SLOAD DIV MUL DUP4 MSTORE SWAP2 PUSH1 0x20 ADD SWAP2 PUSH2 0xDCA JUMP JUMPDEST DUP3 ADD SWAP2 SWAP1 PUSH1 0x0 MSTORE PUSH1 0x20 PUSH1 0x0 KECCAK256 SWAP1 JUMPDEST DUP2 SLOAD DUP2 MSTORE SWAP1 PUSH1 0x1 ADD SWAP1 PUSH1 0x20 ADD DUP1 DUP4 GT PUSH2 0xDAD JUMPI DUP3 SWAP1 SUB PUSH1 0x1F AND DUP3 ADD SWAP2 JUMPDEST POP POP POP POP POP DUP2 MSTORE PUSH1 0x20 ADD PUSH1 0x1 DUP3 ADD SLOAD DUP2 MSTORE PUSH1 0x20 ADD PUSH1 0x2 DUP3 ADD SLOAD DUP2 MSTORE PUSH1 0x20 ADD PUSH1 0x3 DUP3 ADD PUSH1 0x0 SWAP1 SLOAD SWAP1 PUSH2 0x100 EXP SWAP1 DIV PUSH1 0xFF AND ISZERO ISZERO ISZERO ISZERO DUP2 MSTORE PUSH1 0x20 ADD PUSH1 0x4 DUP3 ADD SLOAD DUP2 MSTORE PUSH1 0x20 ADD PUSH1 0x5 DUP3 ADD DUP1 SLOAD PUSH2 0xE1C SWAP1 PUSH2 0x2EF4 JUMP JUMPDEST DUP1 PUSH1 0x1F ADD PUSH1 0x20 DUP1 SWAP2 DIV MUL PUSH1 0x20 ADD PUSH1 0x40 MLOAD SWAP1 DUP2 ADD PUSH1 0x40 MSTORE DUP1 SWAP3 SWAP2 SWAP1 DUP2 DUP2 MSTORE PUSH1 0x20 ADD DUP3 DUP1 SLOAD PUSH2 0xE48 SWAP1 PUSH2 0x2EF4 JUMP JUMPDEST DUP1 ISZERO PUSH2 0xE95 JUMPI DUP1 PUSH1 0x1F LT PUSH2 0xE6A JUMPI PUSH2 0x100 DUP1 DUP4 SLOAD DIV MUL DUP4 MSTORE SWAP2 PUSH1 0x20 ADD SWAP2 PUSH2 0xE95 JUMP JUMPDEST DUP3 ADD SWAP2 SWAP1 PUSH1 0x0 MSTORE PUSH1 0x20 PUSH1 0x0 KECCAK256 SWAP1 JUMPDEST DUP2 SLOAD DUP2 MSTORE SWAP1 PUSH1 0x1 ADD SWAP1 PUSH1 0x20 ADD DUP1 DUP4 GT PUSH2 0xE78 JUMPI DUP3 SWAP1 SUB PUSH1 0x1F AND DUP3 ADD SWAP2 JUMPDEST POP POP POP POP POP DUP2 MSTORE PUSH1 0x20 ADD PUSH1 0x6 DUP3 ADD SLOAD DUP2 MSTORE PUSH1 0x20 ADD PUSH1 0x7 DUP3 ADD SLOAD DUP2 MSTORE POP POP SWAP1 POP PUSH1 0x0 DUP5 DUP1 MLOAD SWAP1 PUSH1 0x20 ADD KECCAK256 DUP3 PUSH1 0x0 ADD MLOAD DUP1 MLOAD SWAP1 PUSH1 0x20 ADD KECCAK256 EQ SWAP1 POP PUSH1 0x0 PUSH1 0x64 PUSH1 0x5 DUP5 PUSH1 0x80 ADD MLOAD PUSH2 0xEE2 SWAP2 SWAP1 PUSH2 0x2FF7 JUMP JUMPDEST PUSH2 0xEEC SWAP2 SWAP1 PUSH2 0x3068 JUMP JUMPDEST SWAP1 POP PUSH1 0x0 DUP2 DUP5 PUSH1 0x80 ADD MLOAD PUSH2 0xF00 SWAP2 SWAP1 PUSH2 0x3099 JUMP JUMPDEST DUP7 LT ISZERO DUP1 ISZERO PUSH2 0xF1E JUMPI POP DUP2 DUP5 PUSH1 0x80 ADD MLOAD PUSH2 0xF1A SWAP2 SWAP1 PUSH2 0x30CD JUMP JUMPDEST DUP7 GT ISZERO JUMPDEST SWAP1 POP DUP3 DUP1 ISZERO PUSH2 0xF2A JUMPI POP DUP1 JUMPDEST SWAP5 POP POP POP POP POP SWAP4 SWAP3 POP POP POP JUMP JUMPDEST PUSH1 0x60 PUSH1 0x1 DUP1 SLOAD PUSH2 0xF46 SWAP1 PUSH2 0x2EF4 JUMP JUMPDEST DUP1 PUSH1 0x1F ADD PUSH1 0x20 DUP1 SWAP2 DIV MUL PUSH1 0x20 ADD PUSH1 0x40 MLOAD SWAP1 DUP2 ADD PUSH1 0x40 MSTORE DUP1 SWAP3 SWAP2 SWAP1 DUP2 DUP2 MSTORE PUSH1 0x20 ADD DUP3 DUP1 SLOAD PUSH2 0xF72 SWAP1 PUSH2 0x2EF4 JUMP JUMPDEST DUP1 ISZERO PUSH2 0xFBF JUMPI DUP1 PUSH1 0x1F LT PUSH2 0xF94 JUMPI PUSH2 0x100 DUP1 DUP4 SLOAD DIV MUL DUP4 MSTORE SWAP2 PUSH1 0x20 ADD SWAP2 PUSH2 0xFBF JUMP JUMPDEST DUP3 ADD SWAP2 SWAP1 PUSH1 0x0 MSTORE PUSH1 0x20 PUSH1 0x0 KECCAK256 SWAP1 JUMPDEST DUP2 SLOAD DUP2 MSTORE SWAP1 PUSH1 0x1 ADD SWAP1 PUSH1 0x20 ADD DUP1 DUP4 GT PUSH2 0xFA2 JUMPI DUP3 SWAP1 SUB PUSH1 0x1F AND DUP3 ADD SWAP2 JUMPDEST POP POP POP POP POP SWAP1 POP SWAP1 JUMP JUMPDEST PUSH2 0xFDB PUSH2 0xFD4 PUSH2 0x17EB JUMP JUMPDEST DUP4 DUP4 PUSH2 0x1BA9 JUMP JUMPDEST POP POP JUMP JUMPDEST PUSH2 0xFEA DUP5 DUP5 DUP5 PUSH2 0x997 JUMP JUMPDEST PUSH2 0xFFE PUSH2 0xFF5 PUSH2 0x17EB JUMP JUMPDEST DUP6 DUP6 DUP6 DUP6 PUSH2 0x1D18 JUMP JUMPDEST POP POP POP POP JUMP JUMPDEST PUSH1 0x60 PUSH2 0x100F DUP3 PUSH2 0x1726 JUMP JUMPDEST POP PUSH1 0x0 PUSH2 0x101A PUSH2 0x1EC9 JUMP JUMPDEST SWAP1 POP PUSH1 0x0 DUP2 MLOAD GT PUSH2 0x103A JUMPI PUSH1 0x40 MLOAD DUP1 PUSH1 0x20 ADD PUSH1 0x40 MSTORE DUP1 PUSH1 0x0 DUP2 MSTORE POP PUSH2 0x1065 JUMP JUMPDEST DUP1 PUSH2 0x1044 DUP5 PUSH2 0x1EE0 JUMP JUMPDEST PUSH1 0x40 MLOAD PUSH1 0x20 ADD PUSH2 0x1055 SWAP3 SWAP2 SWAP1 PUSH2 0x313D JUMP JUMPDEST PUSH1 0x40 MLOAD PUSH1 0x20 DUP2 DUP4 SUB SUB DUP2 MSTORE SWAP1 PUSH1 0x40 MSTORE JUMPDEST SWAP2 POP POP SWAP2 SWAP1 POP JUMP JUMPDEST PUSH1 0x60 PUSH1 0x0 DUP1 PUSH1 0x0 DUP1 PUSH1 0x60 PUSH1 0x0 DUP1 PUSH2 0x1083 DUP10 PUSH2 0xADB JUMP JUMPDEST PUSH2 0x10C2 JUMPI PUSH1 0x40 MLOAD PUSH32 0x8C379A000000000000000000000000000000000000000000000000000000000 DUP2 MSTORE PUSH1 0x4 ADD PUSH2 0x10B9 SWAP1 PUSH2 0x2F71 JUMP JUMPDEST PUSH1 0x40 MLOAD DUP1 SWAP2 SUB SWAP1 REVERT JUMPDEST PUSH1 0x0 PUSH1 0x8 PUSH1 0x0 DUP12 DUP2 MSTORE PUSH1 0x20 ADD SWAP1 DUP2 MSTORE PUSH1 0x20 ADD PUSH1 0x0 KECCAK256 PUSH1 0x40 MLOAD DUP1 PUSH2 0x100 ADD PUSH1 0x40 MSTORE SWAP1 DUP2 PUSH1 0x0 DUP3 ADD DUP1 SLOAD PUSH2 0x10F3 SWAP1 PUSH2 0x2EF4 JUMP JUMPDEST DUP1 PUSH1 0x1F ADD PUSH1 0x20 DUP1 SWAP2 DIV MUL PUSH1 0x20 ADD PUSH1 0x40 MLOAD SWAP1 DUP2 ADD PUSH1 0x40 MSTORE DUP1 SWAP3 SWAP2 SWAP1 DUP2 DUP2 MSTORE PUSH1 0x20 ADD DUP3 DUP1 SLOAD PUSH2 0x111F SWAP1 PUSH2 0x2EF4 JUMP JUMPDEST DUP1 ISZERO PUSH2 0x116C JUMPI DUP1 PUSH1 0x1F LT PUSH2 0x1141 JUMPI PUSH2 0x100 DUP1 DUP4 SLOAD DIV MUL DUP4 MSTORE SWAP2 PUSH1 0x20 ADD SWAP2 PUSH2 0x116C JUMP JUMPDEST DUP3 ADD SWAP2 SWAP1 PUSH1 0x0 MSTORE PUSH1 0x20 PUSH1 0x0 KECCAK256 SWAP1 JUMPDEST DUP2 SLOAD DUP2 MSTORE SWAP1 PUSH1 0x1 ADD SWAP1 PUSH1 0x20 ADD DUP1 DUP4 GT PUSH2 0x114F JUMPI DUP3 SWAP1 SUB PUSH1 0x1F AND DUP3 ADD SWAP2 JUMPDEST POP POP POP POP POP DUP2 MSTORE PUSH1 0x20 ADD PUSH1 0x1 DUP3 ADD SLOAD DUP2 MSTORE PUSH1 0x20 ADD PUSH1 0x2 DUP3 ADD SLOAD DUP2 MSTORE PUSH1 0x20 ADD PUSH1 0x3 DUP3 ADD PUSH1 0x0 SWAP1 SLOAD SWAP1 PUSH2 0x100 EXP SWAP1 DIV PUSH1 0xFF AND ISZERO ISZERO ISZERO ISZERO DUP2 MSTORE PUSH1 0x20 ADD PUSH1 0x4 DUP3 ADD SLOAD DUP2 MSTORE PUSH1 0x20 ADD PUSH1 0x5 DUP3 ADD DUP1 SLOAD PUSH2 0x11BE SWAP1 PUSH2 0x2EF4 JUMP JUMPDEST DUP1 PUSH1 0x1F ADD PUSH1 0x20 DUP1 SWAP2 DIV MUL PUSH1 0x20 ADD PUSH1 0x40 MLOAD SWAP1 DUP2 ADD PUSH1 0x40 MSTORE DUP1 SWAP3 SWAP2 SWAP1 DUP2 DUP2 MSTORE PUSH1 0x20 ADD DUP3 DUP1 SLOAD PUSH2 0x11EA SWAP1 PUSH2 0x2EF4 JUMP JUMPDEST DUP1 ISZERO PUSH2 0x1237 JUMPI DUP1 PUSH1 0x1F LT PUSH2 0x120C JUMPI PUSH2 0x100 DUP1 DUP4 SLOAD DIV MUL DUP4 MSTORE SWAP2 PUSH1 0x20 ADD SWAP2 PUSH2 0x1237 JUMP JUMPDEST DUP3 ADD SWAP2 SWAP1 PUSH1 0x0 MSTORE PUSH1 0x20 PUSH1 0x0 KECCAK256 SWAP1 JUMPDEST DUP2 SLOAD DUP2 MSTORE SWAP1 PUSH1 0x1 ADD SWAP1 PUSH1 0x20 ADD DUP1 DUP4 GT PUSH2 0x121A JUMPI DUP3 SWAP1 SUB PUSH1 0x1F AND DUP3 ADD SWAP2 JUMPDEST POP POP POP POP POP DUP2 MSTORE PUSH1 0x20 ADD PUSH1 0x6 DUP3 ADD SLOAD DUP2 MSTORE PUSH1 0x20 ADD PUSH1 0x7 DUP3 ADD SLOAD DUP2 MSTORE POP POP SWAP1 POP DUP1 PUSH1 0x0 ADD MLOAD DUP2 PUSH1 0x20 ADD MLOAD DUP3 PUSH1 0x40 ADD MLOAD DUP4 PUSH1 0x60 ADD MLOAD DUP5 PUSH1 0x80 ADD MLOAD DUP6 PUSH1 0xA0 ADD MLOAD DUP7 PUSH1 0xC0 ADD MLOAD DUP8 PUSH1 0xE0 ADD MLOAD SWAP9 POP SWAP9 POP SWAP9 POP SWAP9 POP SWAP9 POP SWAP9 POP SWAP9 POP SWAP9 POP POP SWAP2 SWAP4 SWAP6 SWAP8 POP SWAP2 SWAP4 SWAP6 SWAP8 JUMP JUMPDEST PUSH2 0x12A2 PUSH2 0x1805 JUMP JUMPDEST PUSH2 0x12AB DUP3 PUSH2 0xADB JUMP JUMPDEST PUSH2 0x12EA JUMPI PUSH1 0x40 MLOAD PUSH32 0x8C379A000000000000000000000000000000000000000000000000000000000 DUP2 MSTORE PUSH1 0x4 ADD PUSH2 0x12E1 SWAP1 PUSH2 0x2F71 JUMP JUMPDEST PUSH1 0x40 MLOAD DUP1 SWAP2 SUB SWAP1 REVERT JUMPDEST DUP1 PUSH1 0x8 PUSH1 0x0 DUP5 DUP2 MSTORE PUSH1 0x20 ADD SWAP1 DUP2 MSTORE PUSH1 0x20 ADD PUSH1 0x0 KECCAK256 PUSH1 0x2 ADD DUP2 SWAP1 SSTORE POP DUP2 PUSH32 0xD6CD605C806FF5DAE8B0842A3546836032B46DA42A50717460AA91DE9485E57D DUP3 PUSH1 0x40 MLOAD PUSH2 0x1335 SWAP2 SWAP1 PUSH2 0x29B0 JUMP JUMPDEST PUSH1 0x40 MLOAD DUP1 SWAP2 SUB SWAP1 LOG2 POP POP JUMP JUMPDEST PUSH2 0x1349 PUSH2 0x1805 JUMP JUMPDEST PUSH2 0x1352 DUP4 PUSH2 0xADB JUMP JUMPDEST PUSH2 0x1391 JUMPI PUSH1 0x40 MLOAD PUSH32 0x8C379A000000000000000000000000000000000000000000000000000000000 DUP2 MSTORE PUSH1 0x4 ADD PUSH2 0x1388 SWAP1 PUSH2 0x2F71 JUMP JUMPDEST PUSH1 0x40 MLOAD DUP1 SWAP2 SUB SWAP1 REVERT JUMPDEST DUP2 PUSH1 0x8 PUSH1 0x0 DUP6 DUP2 MSTORE PUSH1 0x20 ADD SWAP1 DUP2 MSTORE PUSH1 0x20 ADD PUSH1 0x0 KECCAK256 PUSH1 0x4 ADD DUP2 SWAP1 SSTORE POP DUP1 PUSH1 0x8 PUSH1 0x0 DUP6 DUP2 MSTORE PUSH1 0x20 ADD SWAP1 DUP2 MSTORE PUSH1 0x20 ADD PUSH1 0x0 KECCAK256 PUSH1 0x5 ADD SWAP1 DUP2 PUSH2 0x13CF SWAP2 SWAP1 PUSH2 0x330D JUMP JUMPDEST POP TIMESTAMP PUSH1 0x8 PUSH1 0x0 DUP6 DUP2 MSTORE PUSH1 0x20 ADD SWAP1 DUP2 MSTORE PUSH1 0x20 ADD PUSH1 0x0 KECCAK256 PUSH1 0x6 ADD DUP2 SWAP1 SSTORE POP DUP3 PUSH32 0x606D8B1EBE934E7371EED38B93AC297F4B8552E39260E95CE221C4A450B6B65C DUP4 TIMESTAMP PUSH1 0x40 MLOAD PUSH2 0x141D SWAP3 SWAP2 SWAP1 PUSH2 0x33DF JUMP JUMPDEST PUSH1 0x40 MLOAD DUP1 SWAP2 SUB SWAP1 LOG2 POP POP POP JUMP JUMPDEST PUSH1 0x0 PUSH1 0x5 PUSH1 0x0 DUP5 PUSH20 0xFFFFFFFFFFFFFFFFFFFFFFFFFFFFFFFFFFFFFFFF AND PUSH20 0xFFFFFFFFFFFFFFFFFFFFFFFFFFFFFFFFFFFFFFFF AND DUP2 MSTORE PUSH1 0x20 ADD SWAP1 DUP2 MSTORE PUSH1 0x20 ADD PUSH1 0x0 KECCAK256 PUSH1 0x0 DUP4 PUSH20 0xFFFFFFFFFFFFFFFFFFFFFFFFFFFFFFFFFFFFFFFF AND PUSH20 0xFFFFFFFFFFFFFFFFFFFFFFFFFFFFFFFFFFFFFFFF AND DUP2 MSTORE PUSH1 0x20 ADD SWAP1 DUP2 MSTORE PUSH1 0x20 ADD PUSH1 0x0 KECCAK256 PUSH1 0x0 SWAP1 SLOAD SWAP1 PUSH2 0x100 EXP SWAP1 DIV PUSH1 0xFF AND SWAP1 POP SWAP3 SWAP2 POP POP JUMP JUMPDEST PUSH2 0x14C6 PUSH2 0x1805 JUMP JUMPDEST PUSH1 0x0 PUSH20 0xFFFFFFFFFFFFFFFFFFFFFFFFFFFFFFFFFFFFFFFF AND DUP2 PUSH20 0xFFFFFFFFFFFFFFFFFFFFFFFFFFFFFFFFFFFFFFFF AND SUB PUSH2 0x1538 JUMPI PUSH1 0x0 PUSH1 0x40 MLOAD PUSH32 0x1E4FBDF700000000000000000000000000000000000000000000000000000000 DUP2 MSTORE PUSH1 0x4 ADD PUSH2 0x152F SWAP2 SWAP1 PUSH2 0x27CF JUMP JUMPDEST PUSH1 0x40 MLOAD DUP1 SWAP2 SUB SWAP1 REVERT JUMPDEST PUSH2 0x1541 DUP2 PUSH2 0x1AE3 JUMP JUMPDEST POP JUMP JUMPDEST PUSH1 0x0 PUSH2 0x1550 PUSH1 0x7 PUSH2 0x1FAE JUMP JUMPDEST PUSH1 0x0 PUSH2 0x155C PUSH1 0x7 PUSH2 0x1FC4 JUMP JUMPDEST SWAP1 POP PUSH2 0x1568 CALLER DUP3 PUSH2 0x1FD2 JUMP JUMPDEST PUSH1 0x40 MLOAD DUP1 PUSH2 0x100 ADD PUSH1 0x40 MSTORE DUP1 DUP8 DUP2 MSTORE PUSH1 0x20 ADD TIMESTAMP DUP2 MSTORE PUSH1 0x20 ADD DUP7 DUP2 MSTORE PUSH1 0x20 ADD PUSH1 0x0 ISZERO ISZERO DUP2 MSTORE PUSH1 0x20 ADD DUP6 DUP2 MSTORE PUSH1 0x20 ADD DUP5 DUP2 MSTORE PUSH1 0x20 ADD TIMESTAMP DUP2 MSTORE PUSH1 0x20 ADD PUSH3 0x23A5F5 DUP2 MSTORE POP PUSH1 0x8 PUSH1 0x0 DUP4 DUP2 MSTORE PUSH1 0x20 ADD SWAP1 DUP2 MSTORE PUSH1 0x20 ADD PUSH1 0x0 KECCAK256 PUSH1 0x0 DUP3 ADD MLOAD DUP2 PUSH1 0x0 ADD SWAP1 DUP2 PUSH2 0x15D0 SWAP2 SWAP1 PUSH2 0x330D JUMP JUMPDEST POP PUSH1 0x20 DUP3 ADD MLOAD DUP2 PUSH1 0x1 ADD SSTORE PUSH1 0x40 DUP3 ADD MLOAD DUP2 PUSH1 0x2 ADD SSTORE PUSH1 0x60 DUP3 ADD MLOAD DUP2 PUSH1 0x3 ADD PUSH1 0x0 PUSH2 0x100 EXP DUP2 SLOAD DUP2 PUSH1 0xFF MUL NOT AND SWAP1 DUP4 ISZERO ISZERO MUL OR SWAP1 SSTORE POP PUSH1 0x80 DUP3 ADD MLOAD DUP2 PUSH1 0x4 ADD SSTORE PUSH1 0xA0 DUP3 ADD MLOAD DUP2 PUSH1 0x5 ADD SWAP1 DUP2 PUSH2 0x1624 SWAP2 SWAP1 PUSH2 0x330D JUMP JUMPDEST POP PUSH1 0xC0 DUP3 ADD MLOAD DUP2 PUSH1 0x6 ADD SSTORE PUSH1 0xE0 DUP3 ADD MLOAD DUP2 PUSH1 0x7 ADD SSTORE SWAP1 POP POP DUP1 PUSH31 0xFDEF70896233D13AECAEB348100609B605AD8AD14FDD19A153BEF0C4A16FD0 DUP8 DUP7 TIMESTAMP PUSH1 0x40 MLOAD PUSH2 0x166F SWAP4 SWAP3 SWAP2 SWAP1 PUSH2 0x3408 JUMP JUMPDEST PUSH1 0x40 MLOAD DUP1 SWAP2 SUB SWAP1 LOG2 DUP1 SWAP2 POP POP SWAP5 SWAP4 POP POP POP POP JUMP JUMPDEST PUSH1 0x40 MLOAD DUP1 PUSH1 0x40 ADD PUSH1 0x40 MSTORE DUP1 PUSH1 0x10 DUP2 MSTORE PUSH1 0x20 ADD PUSH32 0x5758454552305451425833443652595900000000000000000000000000000000 DUP2 MSTORE POP DUP2 JUMP JUMPDEST PUSH1 0x0 PUSH32 0x1FFC9A700000000000000000000000000000000000000000000000000000000 PUSH28 0xFFFFFFFFFFFFFFFFFFFFFFFFFFFFFFFFFFFFFFFFFFFFFFFFFFFFFFFF NOT AND DUP3 PUSH28 0xFFFFFFFFFFFFFFFFFFFFFFFFFFFFFFFFFFFFFFFFFFFFFFFFFFFFFFFF NOT AND EQ SWAP1 POP SWAP2 SWAP1 POP JUMP JUMPDEST PUSH1 0x0 DUP1 PUSH2 0x1732 DUP4 PUSH2 0x1AA6 JUMP JUMPDEST SWAP1 POP PUSH1 0x0 PUSH20 0xFFFFFFFFFFFFFFFFFFFFFFFFFFFFFFFFFFFFFFFF AND DUP2 PUSH20 0xFFFFFFFFFFFFFFFFFFFFFFFFFFFFFFFFFFFFFFFF AND SUB PUSH2 0x17A5 JUMPI DUP3 PUSH1 0x40 MLOAD PUSH32 0x7E27328900000000000000000000000000000000000000000000000000000000 DUP2 MSTORE PUSH1 0x4 ADD PUSH2 0x179C SWAP2 SWAP1 PUSH2 0x29B0 JUMP JUMPDEST PUSH1 0x40 MLOAD DUP1 SWAP2 SUB SWAP1 REVERT JUMPDEST DUP1 SWAP2 POP POP SWAP2 SWAP1 POP JUMP JUMPDEST PUSH1 0x0 PUSH1 0x4 PUSH1 0x0 DUP4 DUP2 MSTORE PUSH1 0x20 ADD SWAP1 DUP2 MSTORE PUSH1 0x20 ADD PUSH1 0x0 KECCAK256 PUSH1 0x0 SWAP1 SLOAD SWAP1 PUSH2 0x100 EXP SWAP1 DIV PUSH20 0xFFFFFFFFFFFFFFFFFFFFFFFFFFFFFFFFFFFFFFFF AND SWAP1 POP SWAP2 SWAP1 POP JUMP JUMPDEST PUSH1 0x0 CALLER SWAP1 POP SWAP1 JUMP JUMPDEST PUSH2 0x1800 DUP4 DUP4 DUP4 PUSH1 0x1 PUSH2 0x1FF0 JUMP JUMPDEST POP POP POP JUMP JUMPDEST PUSH2 0x180D PUSH2 0x17EB JUMP JUMPDEST PUSH20 0xFFFFFFFFFFFFFFFFFFFFFFFFFFFFFFFFFFFFFFFF AND PUSH2 0x182B PUSH2 0xCAC JUMP JUMPDEST PUSH20 0xFFFFFFFFFFFFFFFFFFFFFFFFFFFFFFFFFFFFFFFF AND EQ PUSH2 0x188A JUMPI PUSH2 0x184E PUSH2 0x17EB JUMP JUMPDEST PUSH1 0x40 MLOAD PUSH32 0x118CDAA700000000000000000000000000000000000000000000000000000000 DUP2 MSTORE PUSH1 0x4 ADD PUSH2 0x1881 SWAP2 SWAP1 PUSH2 0x27CF JUMP JUMPDEST PUSH1 0x40 MLOAD DUP1 SWAP2 SUB SWAP1 REVERT JUMPDEST JUMP JUMPDEST PUSH1 0x0 DUP1 PUSH2 0x1898 DUP5 PUSH2 0x1AA6 JUMP JUMPDEST SWAP1 POP PUSH1 0x0 PUSH20 0xFFFFFFFFFFFFFFFFFFFFFFFFFFFFFFFFFFFFFFFF AND DUP4 PUSH20 0xFFFFFFFFFFFFFFFFFFFFFFFFFFFFFFFFFFFFFFFF AND EQ PUSH2 0x18DA JUMPI PUSH2 0x18D9 DUP2 DUP5 DUP7 PUSH2 0x21B5 JUMP JUMPDEST JUMPDEST PUSH1 0x0 PUSH20 0xFFFFFFFFFFFFFFFFFFFFFFFFFFFFFFFFFFFFFFFF AND DUP2 PUSH20 0xFFFFFFFFFFFFFFFFFFFFFFFFFFFFFFFFFFFFFFFF AND EQ PUSH2 0x196B JUMPI PUSH2 0x191C PUSH1 0x0 DUP6 PUSH1 0x0 DUP1 PUSH2 0x1FF0 JUMP JUMPDEST PUSH1 0x1 PUSH1 0x3 PUSH1 0x0 DUP4 PUSH20 0xFFFFFFFFFFFFFFFFFFFFFFFFFFFFFFFFFFFFFFFF AND PUSH20 0xFFFFFFFFFFFFFFFFFFFFFFFFFFFFFFFFFFFFFFFF AND DUP2 MSTORE PUSH1 0x20 ADD SWAP1 DUP2 MSTORE PUSH1 0x20 ADD PUSH1 0x0 KECCAK256 PUSH1 0x0 DUP3 DUP3 SLOAD SUB SWAP3 POP POP DUP2 SWAP1 SSTORE POP JUMPDEST PUSH1 0x0 PUSH20 0xFFFFFFFFFFFFFFFFFFFFFFFFFFFFFFFFFFFFFFFF AND DUP6 PUSH20 0xFFFFFFFFFFFFFFFFFFFFFFFFFFFFFFFFFFFFFFFF AND EQ PUSH2 0x19EE JUMPI PUSH1 0x1 PUSH1 0x3 PUSH1 0x0 DUP8 PUSH20 0xFFFFFFFFFFFFFFFFFFFFFFFFFFFFFFFFFFFFFFFF AND PUSH20 0xFFFFFFFFFFFFFFFFFFFFFFFFFFFFFFFFFFFFFFFF AND DUP2 MSTORE PUSH1 0x20 ADD SWAP1 DUP2 MSTORE PUSH1 0x20 ADD PUSH1 0x0 KECCAK256 PUSH1 0x0 DUP3 DUP3 SLOAD ADD SWAP3 POP POP DUP2 SWAP1 SSTORE POP JUMPDEST DUP5 PUSH1 0x2 PUSH1 0x0 DUP7 DUP2 MSTORE PUSH1 0x20 ADD SWAP1 DUP2 MSTORE PUSH1 0x20 ADD PUSH1 0x0 KECCAK256 PUSH1 0x0 PUSH2 0x100 EXP DUP2 SLOAD DUP2 PUSH20 0xFFFFFFFFFFFFFFFFFFFFFFFFFFFFFFFFFFFFFFFF MUL NOT AND SWAP1 DUP4 PUSH20 0xFFFFFFFFFFFFFFFFFFFFFFFFFFFFFFFFFFFFFFFF AND MUL OR SWAP1 SSTORE POP DUP4 DUP6 PUSH20 0xFFFFFFFFFFFFFFFFFFFFFFFFFFFFFFFFFFFFFFFF AND DUP3 PUSH20 0xFFFFFFFFFFFFFFFFFFFFFFFFFFFFFFFFFFFFFFFF AND PUSH32 0xDDF252AD1BE2C89B69C2B068FC378DAA952BA7F163C4A11628F55A4DF523B3EF PUSH1 0x40 MLOAD PUSH1 0x40 MLOAD DUP1 SWAP2 SUB SWAP1 LOG4 DUP1 SWAP2 POP POP SWAP4 SWAP3 POP POP POP JUMP JUMPDEST PUSH1 0x0 PUSH1 0x2 PUSH1 0x0 DUP4 DUP2 MSTORE PUSH1 0x20 ADD SWAP1 DUP2 MSTORE PUSH1 0x20 ADD PUSH1 0x0 KECCAK256 PUSH1 0x0 SWAP1 SLOAD SWAP1 PUSH2 0x100 EXP SWAP1 DIV PUSH20 0xFFFFFFFFFFFFFFFFFFFFFFFFFFFFFFFFFFFFFFFF AND SWAP1 POP SWAP2 SWAP1 POP JUMP JUMPDEST PUSH1 0x0 PUSH1 0x6 PUSH1 0x0 SWAP1 SLOAD SWAP1 PUSH2 0x100 EXP SWAP1 DIV PUSH20 0xFFFFFFFFFFFFFFFFFFFFFFFFFFFFFFFFFFFFFFFF AND SWAP1 POP DUP2 PUSH1 0x6 PUSH1 0x0 PUSH2 0x100 EXP DUP2 SLOAD DUP2 PUSH20 0xFFFFFFFFFFFFFFFFFFFFFFFFFFFFFFFFFFFFFFFF MUL NOT AND SWAP1 DUP4 PUSH20 0xFFFFFFFFFFFFFFFFFFFFFFFFFFFFFFFFFFFFFFFF AND MUL OR SWAP1 SSTORE POP DUP2 PUSH20 0xFFFFFFFFFFFFFFFFFFFFFFFFFFFFFFFFFFFFFFFF AND DUP2 PUSH20 0xFFFFFFFFFFFFFFFFFFFFFFFFFFFFFFFFFFFFFFFF AND PUSH32 0x8BE0079C531659141344CD1FD0A4F28419497F9722A3DAAFE3B4186F6B6457E0 PUSH1 0x40 MLOAD PUSH1 0x40 MLOAD DUP1 SWAP2 SUB SWAP1 LOG3 POP POP JUMP JUMPDEST PUSH1 0x0 PUSH20 0xFFFFFFFFFFFFFFFFFFFFFFFFFFFFFFFFFFFFFFFF AND DUP3 PUSH20 0xFFFFFFFFFFFFFFFFFFFFFFFFFFFFFFFFFFFFFFFF AND SUB PUSH2 0x1C1A JUMPI DUP2 PUSH1 0x40 MLOAD PUSH32 0x5B08BA1800000000000000000000000000000000000000000000000000000000 DUP2 MSTORE PUSH1 0x4 ADD PUSH2 0x1C11 SWAP2 SWAP1 PUSH2 0x27CF JUMP JUMPDEST PUSH1 0x40 MLOAD DUP1 SWAP2 SUB SWAP1 REVERT JUMPDEST DUP1 PUSH1 0x5 PUSH1 0x0 DUP6 PUSH20 0xFFFFFFFFFFFFFFFFFFFFFFFFFFFFFFFFFFFFFFFF AND PUSH20 0xFFFFFFFFFFFFFFFFFFFFFFFFFFFFFFFFFFFFFFFF AND DUP2 MSTORE PUSH1 0x20 ADD SWAP1 DUP2 MSTORE PUSH1 0x20 ADD PUSH1 0x0 KECCAK256 PUSH1 0x0 DUP5 PUSH20 0xFFFFFFFFFFFFFFFFFFFFFFFFFFFFFFFFFFFFFFFF AND PUSH20 0xFFFFFFFFFFFFFFFFFFFFFFFFFFFFFFFFFFFFFFFF AND DUP2 MSTORE PUSH1 0x20 ADD SWAP1 DUP2 MSTORE PUSH1 0x20 ADD PUSH1 0x0 KECCAK256 PUSH1 0x0 PUSH2 0x100 EXP DUP2 SLOAD DUP2 PUSH1 0xFF MUL NOT AND SWAP1 DUP4 ISZERO ISZERO MUL OR SWAP1 SSTORE POP DUP2 PUSH20 0xFFFFFFFFFFFFFFFFFFFFFFFFFFFFFFFFFFFFFFFF AND DUP4 PUSH20 0xFFFFFFFFFFFFFFFFFFFFFFFFFFFFFFFFFFFFFFFF AND PUSH32 0x17307EAB39AB6107E8899845AD3D59BD9653F200F220920489CA2B5937696C31 DUP4 PUSH1 0x40 MLOAD PUSH2 0x1D0B SWAP2 SWAP1 PUSH2 0x265E JUMP JUMPDEST PUSH1 0x40 MLOAD DUP1 SWAP2 SUB SWAP1 LOG3 POP POP POP JUMP JUMPDEST PUSH1 0x0 DUP4 PUSH20 0xFFFFFFFFFFFFFFFFFFFFFFFFFFFFFFFFFFFFFFFF AND EXTCODESIZE GT ISZERO PUSH2 0x1EC2 JUMPI DUP3 PUSH20 0xFFFFFFFFFFFFFFFFFFFFFFFFFFFFFFFFFFFFFFFF AND PUSH4 0x150B7A02 DUP7 DUP7 DUP6 DUP6 PUSH1 0x40 MLOAD DUP6 PUSH4 0xFFFFFFFF AND PUSH1 0xE0 SHL DUP2 MSTORE PUSH1 0x4 ADD PUSH2 0x1D77 SWAP5 SWAP4 SWAP3 SWAP2 SWAP1 PUSH2 0x349B JUMP JUMPDEST PUSH1 0x20 PUSH1 0x40 MLOAD DUP1 DUP4 SUB DUP2 PUSH1 0x0 DUP8 GAS CALL SWAP3 POP POP POP DUP1 ISZERO PUSH2 0x1DB3 JUMPI POP PUSH1 0x40 MLOAD RETURNDATASIZE PUSH1 0x1F NOT PUSH1 0x1F DUP3 ADD AND DUP3 ADD DUP1 PUSH1 0x40 MSTORE POP DUP2 ADD SWAP1 PUSH2 0x1DB0 SWAP2 SWAP1 PUSH2 0x34FC JUMP JUMPDEST PUSH1 0x1 JUMPDEST PUSH2 0x1E37 JUMPI RETURNDATASIZE DUP1 PUSH1 0x0 DUP2 EQ PUSH2 0x1DE3 JUMPI PUSH1 0x40 MLOAD SWAP2 POP PUSH1 0x1F NOT PUSH1 0x3F RETURNDATASIZE ADD AND DUP3 ADD PUSH1 0x40 MSTORE RETURNDATASIZE DUP3 MSTORE RETURNDATASIZE PUSH1 0x0 PUSH1 0x20 DUP5 ADD RETURNDATACOPY PUSH2 0x1DE8 JUMP JUMPDEST PUSH1 0x60 SWAP2 POP JUMPDEST POP PUSH1 0x0 DUP2 MLOAD SUB PUSH2 0x1E2F JUMPI DUP4 PUSH1 0x40 MLOAD PUSH32 0x64A0AE9200000000000000000000000000000000000000000000000000000000 DUP2 MSTORE PUSH1 0x4 ADD PUSH2 0x1E26 SWAP2 SWAP1 PUSH2 0x27CF JUMP JUMPDEST PUSH1 0x40 MLOAD DUP1 SWAP2 SUB SWAP1 REVERT JUMPDEST DUP1 MLOAD DUP2 PUSH1 0x20 ADD REVERT JUMPDEST PUSH4 0x150B7A02 PUSH1 0xE0 SHL PUSH28 0xFFFFFFFFFFFFFFFFFFFFFFFFFFFFFFFFFFFFFFFFFFFFFFFFFFFFFFFF NOT AND DUP2 PUSH28 0xFFFFFFFFFFFFFFFFFFFFFFFFFFFFFFFFFFFFFFFFFFFFFFFFFFFFFFFF NOT AND EQ PUSH2 0x1EC0 JUMPI DUP4 PUSH1 0x40 MLOAD PUSH32 0x64A0AE9200000000000000000000000000000000000000000000000000000000 DUP2 MSTORE PUSH1 0x4 ADD PUSH2 0x1EB7 SWAP2 SWAP1 PUSH2 0x27CF JUMP JUMPDEST PUSH1 0x40 MLOAD DUP1 SWAP2 SUB SWAP1 REVERT JUMPDEST POP JUMPDEST POP POP POP POP POP JUMP JUMPDEST PUSH1 0x60 PUSH1 0x40 MLOAD DUP1 PUSH1 0x20 ADD PUSH1 0x40 MSTORE DUP1 PUSH1 0x0 DUP2 MSTORE POP SWAP1 POP SWAP1 JUMP JUMPDEST PUSH1 0x60 PUSH1 0x0 PUSH1 0x1 PUSH2 0x1EEF DUP5 PUSH2 0x2279 JUMP JUMPDEST ADD SWAP1 POP PUSH1 0x0 DUP2 PUSH8 0xFFFFFFFFFFFFFFFF DUP2 GT ISZERO PUSH2 0x1F0E JUMPI PUSH2 0x1F0D PUSH2 0x2A39 JUMP JUMPDEST JUMPDEST PUSH1 0x40 MLOAD SWAP1 DUP1 DUP3 MSTORE DUP1 PUSH1 0x1F ADD PUSH1 0x1F NOT AND PUSH1 0x20 ADD DUP3 ADD PUSH1 0x40 MSTORE DUP1 ISZERO PUSH2 0x1F40 JUMPI DUP2 PUSH1 0x20 ADD PUSH1 0x1 DUP3 MUL DUP1 CALLDATASIZE DUP4 CALLDATACOPY DUP1 DUP3 ADD SWAP2 POP POP SWAP1 POP JUMPDEST POP SWAP1 POP PUSH1 0x0 DUP3 PUSH1 0x20 ADD DUP3 ADD SWAP1 POP JUMPDEST PUSH1 0x1 ISZERO PUSH2 0x1FA3 JUMPI DUP1 DUP1 PUSH1 0x1 SWAP1 SUB SWAP2 POP POP PUSH32 0x3031323334353637383961626364656600000000000000000000000000000000 PUSH1 0xA DUP7 MOD BYTE DUP2 MSTORE8 PUSH1 0xA DUP6 DUP2 PUSH2 0x1F97 JUMPI PUSH2 0x1F96 PUSH2 0x3039 JUMP JUMPDEST JUMPDEST DIV SWAP5 POP PUSH1 0x0 DUP6 SUB PUSH2 0x1F4E JUMPI JUMPDEST DUP2 SWAP4 POP POP POP POP SWAP2 SWAP1 POP JUMP JUMPDEST PUSH1 0x1 DUP2 PUSH1 0x0 ADD PUSH1 0x0 DUP3 DUP3 SLOAD ADD SWAP3 POP POP DUP2 SWAP1 SSTORE POP POP JUMP JUMPDEST PUSH1 0x0 DUP2 PUSH1 0x0 ADD SLOAD SWAP1 POP SWAP2 SWAP1 POP JUMP JUMPDEST PUSH2 0x1FEC DUP3 DUP3 PUSH1 0x40 MLOAD DUP1 PUSH1 0x20 ADD PUSH1 0x40 MSTORE DUP1 PUSH1 0x0 DUP2 MSTORE POP PUSH2 0x23CC JUMP JUMPDEST POP POP JUMP JUMPDEST DUP1 DUP1 PUSH2 0x2029 JUMPI POP PUSH1 0x0 PUSH20 0xFFFFFFFFFFFFFFFFFFFFFFFFFFFFFFFFFFFFFFFF AND DUP3 PUSH20 0xFFFFFFFFFFFFFFFFFFFFFFFFFFFFFFFFFFFFFFFF AND EQ ISZERO JUMPDEST ISZERO PUSH2 0x215D JUMPI PUSH1 0x0 PUSH2 0x2039 DUP5 PUSH2 0x1726 JUMP JUMPDEST SWAP1 POP PUSH1 0x0 PUSH20 0xFFFFFFFFFFFFFFFFFFFFFFFFFFFFFFFFFFFFFFFF AND DUP4 PUSH20 0xFFFFFFFFFFFFFFFFFFFFFFFFFFFFFFFFFFFFFFFF AND EQ ISZERO DUP1 ISZERO PUSH2 0x20A4 JUMPI POP DUP3 PUSH20 0xFFFFFFFFFFFFFFFFFFFFFFFFFFFFFFFFFFFFFFFF AND DUP2 PUSH20 0xFFFFFFFFFFFFFFFFFFFFFFFFFFFFFFFFFFFFFFFF AND EQ ISZERO JUMPDEST DUP1 ISZERO PUSH2 0x20B7 JUMPI POP PUSH2 0x20B5 DUP2 DUP5 PUSH2 0x142A JUMP JUMPDEST ISZERO JUMPDEST ISZERO PUSH2 0x20F9 JUMPI DUP3 PUSH1 0x40 MLOAD PUSH32 0xA9FBF51F00000000000000000000000000000000000000000000000000000000 DUP2 MSTORE PUSH1 0x4 ADD PUSH2 0x20F0 SWAP2 SWAP1 PUSH2 0x27CF JUMP JUMPDEST PUSH1 0x40 MLOAD DUP1 SWAP2 SUB SWAP1 REVERT JUMPDEST DUP2 ISZERO PUSH2 0x215B JUMPI DUP4 DUP6 PUSH20 0xFFFFFFFFFFFFFFFFFFFFFFFFFFFFFFFFFFFFFFFF AND DUP3 PUSH20 0xFFFFFFFFFFFFFFFFFFFFFFFFFFFFFFFFFFFFFFFF AND PUSH32 0x8C5BE1E5EBEC7D5BD14F71427D1E84F3DD0314C0F7B2291E5B200AC8C7C3B925 PUSH1 0x40 MLOAD PUSH1 0x40 MLOAD DUP1 SWAP2 SUB SWAP1 LOG4 JUMPDEST POP JUMPDEST DUP4 PUSH1 0x4 PUSH1 0x0 DUP6 DUP2 MSTORE PUSH1 0x20 ADD SWAP1 DUP2 MSTORE PUSH1 0x20 ADD PUSH1 0x0 KECCAK256 PUSH1 0x0 PUSH2 0x100 EXP DUP2 SLOAD DUP2 PUSH20 0xFFFFFFFFFFFFFFFFFFFFFFFFFFFFFFFFFFFFFFFF MUL NOT AND SWAP1 DUP4 PUSH20 0xFFFFFFFFFFFFFFFFFFFFFFFFFFFFFFFFFFFFFFFF AND MUL OR SWAP1 SSTORE POP POP POP POP POP JUMP JUMPDEST PUSH2 0x21C0 DUP4 DUP4 DUP4 PUSH2 0x23F0 JUMP JUMPDEST PUSH2 0x2274 JUMPI PUSH1 0x0 PUSH20 0xFFFFFFFFFFFFFFFFFFFFFFFFFFFFFFFFFFFFFFFF AND DUP4 PUSH20 0xFFFFFFFFFFFFFFFFFFFFFFFFFFFFFFFFFFFFFFFF AND SUB PUSH2 0x2235 JUMPI DUP1 PUSH1 0x40 MLOAD PUSH32 0x7E27328900000000000000000000000000000000000000000000000000000000 DUP2 MSTORE PUSH1 0x4 ADD PUSH2 0x222C SWAP2 SWAP1 PUSH2 0x29B0 JUMP JUMPDEST PUSH1 0x40 MLOAD DUP1 SWAP2 SUB SWAP1 REVERT JUMPDEST DUP2 DUP2 PUSH1 0x40 MLOAD PUSH32 0x177E802F00000000000000000000000000000000000000000000000000000000 DUP2 MSTORE PUSH1 0x4 ADD PUSH2 0x226B SWAP3 SWAP2 SWAP1 PUSH2 0x3529 JUMP JUMPDEST PUSH1 0x40 MLOAD DUP1 SWAP2 SUB SWAP1 REVERT JUMPDEST POP POP POP JUMP JUMPDEST PUSH1 0x0 DUP1 PUSH1 0x0 SWAP1 POP PUSH27 0x184F03E93FF9F4DAA797ED6E38ED64BF6A1F010000000000000000 DUP4 LT PUSH2 0x22D7 JUMPI PUSH27 0x184F03E93FF9F4DAA797ED6E38ED64BF6A1F010000000000000000 DUP4 DUP2 PUSH2 0x22CD JUMPI PUSH2 0x22CC PUSH2 0x3039 JUMP JUMPDEST JUMPDEST DIV SWAP3 POP PUSH1 0x40 DUP2 ADD SWAP1 POP JUMPDEST PUSH14 0x4EE2D6D415B85ACEF8100000000 DUP4 LT PUSH2 0x2314 JUMPI PUSH14 0x4EE2D6D415B85ACEF8100000000 DUP4 DUP2 PUSH2 0x230A JUMPI PUSH2 0x2309 PUSH2 0x3039 JUMP JUMPDEST JUMPDEST DIV SWAP3 POP PUSH1 0x20 DUP2 ADD SWAP1 POP JUMPDEST PUSH7 0x2386F26FC10000 DUP4 LT PUSH2 0x2343 JUMPI PUSH7 0x2386F26FC10000 DUP4 DUP2 PUSH2 0x2339 JUMPI PUSH2 0x2338 PUSH2 0x3039 JUMP JUMPDEST JUMPDEST DIV SWAP3 POP PUSH1 0x10 DUP2 ADD SWAP1 POP JUMPDEST PUSH4 0x5F5E100 DUP4 LT PUSH2 0x236C JUMPI PUSH4 0x5F5E100 DUP4 DUP2 PUSH2 0x2362 JUMPI PUSH2 0x2361 PUSH2 0x3039 JUMP JUMPDEST JUMPDEST DIV SWAP3 POP PUSH1 0x8 DUP2 ADD SWAP1 POP JUMPDEST PUSH2 0x2710 DUP4 LT PUSH2 0x2391 JUMPI PUSH2 0x2710 DUP4 DUP2 PUSH2 0x2387 JUMPI PUSH2 0x2386 PUSH2 0x3039 JUMP JUMPDEST JUMPDEST DIV SWAP3 POP PUSH1 0x4 DUP2 ADD SWAP1 POP JUMPDEST PUSH1 0x64 DUP4 LT PUSH2 0x23B4 JUMPI PUSH1 0x64 DUP4 DUP2 PUSH2 0x23AA JUMPI PUSH2 0x23A9 PUSH2 0x3039 JUMP JUMPDEST JUMPDEST DIV SWAP3 POP PUSH1 0x2 DUP2 ADD SWAP1 POP JUMPDEST PUSH1 0xA DUP4 LT PUSH2 0x23C3 JUMPI PUSH1 0x1 DUP2 ADD SWAP1 POP JUMPDEST DUP1 SWAP2 POP POP SWAP2 SWAP1 POP JUMP JUMPDEST PUSH2 0x23D6 DUP4 DUP4 PUSH2 0x24B1 JUMP JUMPDEST PUSH2 0x23EB PUSH2 0x23E1 PUSH2 0x17EB JUMP JUMPDEST PUSH1 0x0 DUP6 DUP6 DUP6 PUSH2 0x1D18 JUMP JUMPDEST POP POP POP JUMP JUMPDEST PUSH1 0x0 DUP1 PUSH20 0xFFFFFFFFFFFFFFFFFFFFFFFFFFFFFFFFFFFFFFFF AND DUP4 PUSH20 0xFFFFFFFFFFFFFFFFFFFFFFFFFFFFFFFFFFFFFFFF AND EQ ISZERO DUP1 ISZERO PUSH2 0x24A8 JUMPI POP DUP3 PUSH20 0xFFFFFFFFFFFFFFFFFFFFFFFFFFFFFFFFFFFFFFFF AND DUP5 PUSH20 0xFFFFFFFFFFFFFFFFFFFFFFFFFFFFFFFFFFFFFFFF AND EQ DUP1 PUSH2 0x2469 JUMPI POP PUSH2 0x2468 DUP5 DUP5 PUSH2 0x142A JUMP JUMPDEST JUMPDEST DUP1 PUSH2 0x24A7 JUMPI POP DUP3 PUSH20 0xFFFFFFFFFFFFFFFFFFFFFFFFFFFFFFFFFFFFFFFF AND PUSH2 0x248F DUP4 PUSH2 0x17AE JUMP JUMPDEST PUSH20 0xFFFFFFFFFFFFFFFFFFFFFFFFFFFFFFFFFFFFFFFF AND EQ JUMPDEST JUMPDEST SWAP1 POP SWAP4 SWAP3 POP POP POP JUMP JUMPDEST PUSH1 0x0 PUSH20 0xFFFFFFFFFFFFFFFFFFFFFFFFFFFFFFFFFFFFFFFF AND DUP3 PUSH20 0xFFFFFFFFFFFFFFFFFFFFFFFFFFFFFFFFFFFFFFFF AND SUB PUSH2 0x2523 JUMPI PUSH1 0x0 PUSH1 0x40 MLOAD PUSH32 0x64A0AE9200000000000000000000000000000000000000000000000000000000 DUP2 MSTORE PUSH1 0x4 ADD PUSH2 0x251A SWAP2 SWAP1 PUSH2 0x27CF JUMP JUMPDEST PUSH1 0x40 MLOAD DUP1 SWAP2 SUB SWAP1 REVERT JUMPDEST PUSH1 0x0 PUSH2 0x2531 DUP4 DUP4 PUSH1 0x0 PUSH2 0x188C JUMP JUMPDEST SWAP1 POP PUSH1 0x0 PUSH20 0xFFFFFFFFFFFFFFFFFFFFFFFFFFFFFFFFFFFFFFFF AND DUP2 PUSH20 0xFFFFFFFFFFFFFFFFFFFFFFFFFFFFFFFFFFFFFFFF AND EQ PUSH2 0x25A5 JUMPI PUSH1 0x0 PUSH1 0x40 MLOAD PUSH32 0x73C6AC6E00000000000000000000000000000000000000000000000000000000 DUP2 MSTORE PUSH1 0x4 ADD PUSH2 0x259C SWAP2 SWAP1 PUSH2 0x27CF JUMP JUMPDEST PUSH1 0x40 MLOAD DUP1 SWAP2 SUB SWAP1 REVERT JUMPDEST POP POP POP JUMP JUMPDEST PUSH1 0x0 PUSH1 0x40 MLOAD SWAP1 POP SWAP1 JUMP JUMPDEST PUSH1 0x0 DUP1 REVERT JUMPDEST PUSH1 0x0 DUP1 REVERT JUMPDEST PUSH1 0x0 PUSH32 0xFFFFFFFF00000000000000000000000000000000000000000000000000000000 DUP3 AND SWAP1 POP SWAP2 SWAP1 POP JUMP JUMPDEST PUSH2 0x25F3 DUP2 PUSH2 0x25BE JUMP JUMPDEST DUP2 EQ PUSH2 0x25FE JUMPI PUSH1 0x0 DUP1 REVERT JUMPDEST POP JUMP JUMPDEST PUSH1 0x0 DUP2 CALLDATALOAD SWAP1 POP PUSH2 0x2610 DUP2 PUSH2 0x25EA JUMP JUMPDEST SWAP3 SWAP2 POP POP JUMP JUMPDEST PUSH1 0x0 PUSH1 0x20 DUP3 DUP5 SUB SLT ISZERO PUSH2 0x262C JUMPI PUSH2 0x262B PUSH2 0x25B4 JUMP JUMPDEST JUMPDEST PUSH1 0x0 PUSH2 0x263A DUP5 DUP3 DUP6 ADD PUSH2 0x2601 JUMP JUMPDEST SWAP2 POP POP SWAP3 SWAP2 POP POP JUMP JUMPDEST PUSH1 0x0 DUP2 ISZERO ISZERO SWAP1 POP SWAP2 SWAP1 POP JUMP JUMPDEST PUSH2 0x2658 DUP2 PUSH2 0x2643 JUMP JUMPDEST DUP3 MSTORE POP POP JUMP JUMPDEST PUSH1 0x0 PUSH1 0x20 DUP3 ADD SWAP1 POP PUSH2 0x2673 PUSH1 0x0 DUP4 ADD DUP5 PUSH2 0x264F JUMP JUMPDEST SWAP3 SWAP2 POP POP JUMP JUMPDEST PUSH1 0x0 DUP2 MLOAD SWAP1 POP SWAP2 SWAP1 POP JUMP JUMPDEST PUSH1 0x0 DUP3 DUP3 MSTORE PUSH1 0x20 DUP3 ADD SWAP1 POP SWAP3 SWAP2 POP POP JUMP JUMPDEST PUSH1 0x0 JUMPDEST DUP4 DUP2 LT ISZERO PUSH2 0x26B3 JUMPI DUP1 DUP3 ADD MLOAD DUP2 DUP5 ADD MSTORE PUSH1 0x20 DUP2 ADD SWAP1 POP PUSH2 0x2698 JUMP JUMPDEST PUSH1 0x0 DUP5 DUP5 ADD MSTORE POP POP POP POP JUMP JUMPDEST PUSH1 0x0 PUSH1 0x1F NOT PUSH1 0x1F DUP4 ADD AND SWAP1 POP SWAP2 SWAP1 POP JUMP JUMPDEST PUSH1 0x0 PUSH2 0x26DB DUP3 PUSH2 0x2679 JUMP JUMPDEST PUSH2 0x26E5 DUP2 DUP6 PUSH2 0x2684 JUMP JUMPDEST SWAP4 POP PUSH2 0x26F5 DUP2 DUP6 PUSH1 0x20 DUP7 ADD PUSH2 0x2695 JUMP JUMPDEST PUSH2 0x26FE DUP2 PUSH2 0x26BF JUMP JUMPDEST DUP5 ADD SWAP2 POP POP SWAP3 SWAP2 POP POP JUMP JUMPDEST PUSH1 0x0 PUSH1 0x20 DUP3 ADD SWAP1 POP DUP2 DUP2 SUB PUSH1 0x0 DUP4 ADD MSTORE PUSH2 0x2723 DUP2 DUP5 PUSH2 0x26D0 JUMP JUMPDEST SWAP1 POP SWAP3 SWAP2 POP POP JUMP JUMPDEST PUSH1 0x0 DUP2 SWAP1 POP SWAP2 SWAP1 POP JUMP JUMPDEST PUSH2 0x273E DUP2 PUSH2 0x272B JUMP JUMPDEST DUP2 EQ PUSH2 0x2749 JUMPI PUSH1 0x0 DUP1 REVERT JUMPDEST POP JUMP JUMPDEST PUSH1 0x0 DUP2 CALLDATALOAD SWAP1 POP PUSH2 0x275B DUP2 PUSH2 0x2735 JUMP JUMPDEST SWAP3 SWAP2 POP POP JUMP JUMPDEST PUSH1 0x0 PUSH1 0x20 DUP3 DUP5 SUB SLT ISZERO PUSH2 0x2777 JUMPI PUSH2 0x2776 PUSH2 0x25B4 JUMP JUMPDEST JUMPDEST PUSH1 0x0 PUSH2 0x2785 DUP5 DUP3 DUP6 ADD PUSH2 0x274C JUMP JUMPDEST SWAP2 POP POP SWAP3 SWAP2 POP POP JUMP JUMPDEST PUSH1 0x0 PUSH20 0xFFFFFFFFFFFFFFFFFFFFFFFFFFFFFFFFFFFFFFFF DUP3 AND SWAP1 POP SWAP2 SWAP1 POP JUMP JUMPDEST PUSH1 0x0 PUSH2 0x27B9 DUP3 PUSH2 0x278E JUMP JUMPDEST SWAP1 POP SWAP2 SWAP1 POP JUMP JUMPDEST PUSH2 0x27C9 DUP2 PUSH2 0x27AE JUMP JUMPDEST DUP3 MSTORE POP POP JUMP JUMPDEST PUSH1 0x0 PUSH1 0x20 DUP3 ADD SWAP1 POP PUSH2 0x27E4 PUSH1 0x0 DUP4 ADD DUP5 PUSH2 0x27C0 JUMP JUMPDEST SWAP3 SWAP2 POP POP JUMP JUMPDEST PUSH2 0x27F3 DUP2 PUSH2 0x27AE JUMP JUMPDEST DUP2 EQ PUSH2 0x27FE JUMPI PUSH1 0x0 DUP1 REVERT JUMPDEST POP JUMP JUMPDEST PUSH1 0x0 DUP2 CALLDATALOAD SWAP1 POP PUSH2 0x2810 DUP2 PUSH2 0x27EA JUMP JUMPDEST SWAP3 SWAP2 POP POP JUMP JUMPDEST PUSH1 0x0 DUP1 PUSH1 0x40 DUP4 DUP6 SUB SLT ISZERO PUSH2 0x282D JUMPI PUSH2 0x282C PUSH2 0x25B4 JUMP JUMPDEST JUMPDEST PUSH1 0x0 PUSH2 0x283B DUP6 DUP3 DUP7 ADD PUSH2 0x2801 JUMP JUMPDEST SWAP3 POP POP PUSH1 0x20 PUSH2 0x284C DUP6 DUP3 DUP7 ADD PUSH2 0x274C JUMP JUMPDEST SWAP2 POP POP SWAP3 POP SWAP3 SWAP1 POP JUMP JUMPDEST PUSH2 0x285F DUP2 PUSH2 0x2643 JUMP JUMPDEST DUP2 EQ PUSH2 0x286A JUMPI PUSH1 0x0 DUP1 REVERT JUMPDEST POP JUMP JUMPDEST PUSH1 0x0 DUP2 CALLDATALOAD SWAP1 POP PUSH2 0x287C DUP2 PUSH2 0x2856 JUMP JUMPDEST SWAP3 SWAP2 POP POP JUMP JUMPDEST PUSH1 0x0 DUP1 PUSH1 0x40 DUP4 DUP6 SUB SLT ISZERO PUSH2 0x2899 JUMPI PUSH2 0x2898 PUSH2 0x25B4 JUMP JUMPDEST JUMPDEST PUSH1 0x0 PUSH2 0x28A7 DUP6 DUP3 DUP7 ADD PUSH2 0x274C JUMP JUMPDEST SWAP3 POP POP PUSH1 0x20 PUSH2 0x28B8 DUP6 DUP3 DUP7 ADD PUSH2 0x286D JUMP JUMPDEST SWAP2 POP POP SWAP3 POP SWAP3 SWAP1 POP JUMP JUMPDEST PUSH2 0x28CB DUP2 PUSH2 0x272B JUMP JUMPDEST DUP3 MSTORE POP POP JUMP JUMPDEST PUSH1 0x0 PUSH2 0x100 DUP3 ADD SWAP1 POP DUP2 DUP2 SUB PUSH1 0x0 DUP4 ADD MSTORE PUSH2 0x28EC DUP2 DUP12 PUSH2 0x26D0 JUMP JUMPDEST SWAP1 POP PUSH2 0x28FB PUSH1 0x20 DUP4 ADD DUP11 PUSH2 0x28C2 JUMP JUMPDEST PUSH2 0x2908 PUSH1 0x40 DUP4 ADD DUP10 PUSH2 0x28C2 JUMP JUMPDEST PUSH2 0x2915 PUSH1 0x60 DUP4 ADD DUP9 PUSH2 0x264F JUMP JUMPDEST PUSH2 0x2922 PUSH1 0x80 DUP4 ADD DUP8 PUSH2 0x28C2 JUMP JUMPDEST DUP2 DUP2 SUB PUSH1 0xA0 DUP4 ADD MSTORE PUSH2 0x2934 DUP2 DUP7 PUSH2 0x26D0 JUMP JUMPDEST SWAP1 POP PUSH2 0x2943 PUSH1 0xC0 DUP4 ADD DUP6 PUSH2 0x28C2 JUMP JUMPDEST PUSH2 0x2950 PUSH1 0xE0 DUP4 ADD DUP5 PUSH2 0x28C2 JUMP JUMPDEST SWAP10 SWAP9 POP POP POP POP POP POP POP POP POP JUMP JUMPDEST PUSH1 0x0 DUP1 PUSH1 0x0 PUSH1 0x60 DUP5 DUP7 SUB SLT ISZERO PUSH2 0x2976 JUMPI PUSH2 0x2975 PUSH2 0x25B4 JUMP JUMPDEST JUMPDEST PUSH1 0x0 PUSH2 0x2984 DUP7 DUP3 DUP8 ADD PUSH2 0x2801 JUMP JUMPDEST SWAP4 POP POP PUSH1 0x20 PUSH2 0x2995 DUP7 DUP3 DUP8 ADD PUSH2 0x2801 JUMP JUMPDEST SWAP3 POP POP PUSH1 0x40 PUSH2 0x29A6 DUP7 DUP3 DUP8 ADD PUSH2 0x274C JUMP JUMPDEST SWAP2 POP POP SWAP3 POP SWAP3 POP SWAP3 JUMP JUMPDEST PUSH1 0x0 PUSH1 0x20 DUP3 ADD SWAP1 POP PUSH2 0x29C5 PUSH1 0x0 DUP4 ADD DUP5 PUSH2 0x28C2 JUMP JUMPDEST SWAP3 SWAP2 POP POP JUMP JUMPDEST PUSH1 0x0 PUSH1 0x40 DUP3 ADD SWAP1 POP DUP2 DUP2 SUB PUSH1 0x0 DUP4 ADD MSTORE PUSH2 0x29E5 DUP2 DUP6 PUSH2 0x26D0 JUMP JUMPDEST SWAP1 POP DUP2 DUP2 SUB PUSH1 0x20 DUP4 ADD MSTORE PUSH2 0x29F9 DUP2 DUP5 PUSH2 0x26D0 JUMP JUMPDEST SWAP1 POP SWAP4 SWAP3 POP POP POP JUMP JUMPDEST PUSH1 0x0 PUSH1 0x20 DUP3 DUP5 SUB SLT ISZERO PUSH2 0x2A18 JUMPI PUSH2 0x2A17 PUSH2 0x25B4 JUMP JUMPDEST JUMPDEST PUSH1 0x0 PUSH2 0x2A26 DUP5 DUP3 DUP6 ADD PUSH2 0x2801 JUMP JUMPDEST SWAP2 POP POP SWAP3 SWAP2 POP POP JUMP JUMPDEST PUSH1 0x0 DUP1 REVERT JUMPDEST PUSH1 0x0 DUP1 REVERT JUMPDEST PUSH32 0x4E487B7100000000000000000000000000000000000000000000000000000000 PUSH1 0x0 MSTORE PUSH1 0x41 PUSH1 0x4 MSTORE PUSH1 0x24 PUSH1 0x0 REVERT JUMPDEST PUSH2 0x2A71 DUP3 PUSH2 0x26BF JUMP JUMPDEST DUP2 ADD DUP2 DUP2 LT PUSH8 0xFFFFFFFFFFFFFFFF DUP3 GT OR ISZERO PUSH2 0x2A90 JUMPI PUSH2 0x2A8F PUSH2 0x2A39 JUMP JUMPDEST JUMPDEST DUP1 PUSH1 0x40 MSTORE POP POP POP JUMP JUMPDEST PUSH1 0x0 PUSH2 0x2AA3 PUSH2 0x25AA JUMP JUMPDEST SWAP1 POP PUSH2 0x2AAF DUP3 DUP3 PUSH2 0x2A68 JUMP JUMPDEST SWAP2 SWAP1 POP JUMP JUMPDEST PUSH1 0x0 PUSH8 0xFFFFFFFFFFFFFFFF DUP3 GT ISZERO PUSH2 0x2ACF JUMPI PUSH2 0x2ACE PUSH2 0x2A39 JUMP JUMPDEST JUMPDEST PUSH2 0x2AD8 DUP3 PUSH2 0x26BF JUMP JUMPDEST SWAP1 POP PUSH1 0x20 DUP2 ADD SWAP1 POP SWAP2 SWAP1 POP JUMP JUMPDEST DUP3 DUP2 DUP4 CALLDATACOPY PUSH1 0x0 DUP4 DUP4 ADD MSTORE POP POP POP JUMP JUMPDEST PUSH1 0x0 PUSH2 0x2B07 PUSH2 0x2B02 DUP5 PUSH2 0x2AB4 JUMP JUMPDEST PUSH2 0x2A99 JUMP JUMPDEST SWAP1 POP DUP3 DUP2 MSTORE PUSH1 0x20 DUP2 ADD DUP5 DUP5 DUP5 ADD GT ISZERO PUSH2 0x2B23 JUMPI PUSH2 0x2B22 PUSH2 0x2A34 JUMP JUMPDEST JUMPDEST PUSH2 0x2B2E DUP5 DUP3 DUP6 PUSH2 0x2AE5 JUMP JUMPDEST POP SWAP4 SWAP3 POP POP POP JUMP JUMPDEST PUSH1 0x0 DUP3 PUSH1 0x1F DUP4 ADD SLT PUSH2 0x2B4B JUMPI PUSH2 0x2B4A PUSH2 0x2A2F JUMP JUMPDEST JUMPDEST DUP2 CALLDATALOAD PUSH2 0x2B5B DUP5 DUP3 PUSH1 0x20 DUP7 ADD PUSH2 0x2AF4 JUMP JUMPDEST SWAP2 POP POP SWAP3 SWAP2 POP POP JUMP JUMPDEST PUSH1 0x0 DUP1 PUSH1 0x0 PUSH1 0x60 DUP5 DUP7 SUB SLT ISZERO PUSH2 0x2B7D JUMPI PUSH2 0x2B7C PUSH2 0x25B4 JUMP JUMPDEST JUMPDEST PUSH1 0x0 PUSH2 0x2B8B DUP7 DUP3 DUP8 ADD PUSH2 0x274C JUMP JUMPDEST SWAP4 POP POP PUSH1 0x20 DUP5 ADD CALLDATALOAD PUSH8 0xFFFFFFFFFFFFFFFF DUP2 GT ISZERO PUSH2 0x2BAC JUMPI PUSH2 0x2BAB PUSH2 0x25B9 JUMP JUMPDEST JUMPDEST PUSH2 0x2BB8 DUP7 DUP3 DUP8 ADD PUSH2 0x2B36 JUMP JUMPDEST SWAP3 POP POP PUSH1 0x40 PUSH2 0x2BC9 DUP7 DUP3 DUP8 ADD PUSH2 0x274C JUMP JUMPDEST SWAP2 POP POP SWAP3 POP SWAP3 POP SWAP3 JUMP JUMPDEST PUSH1 0x0 DUP1 PUSH1 0x40 DUP4 DUP6 SUB SLT ISZERO PUSH2 0x2BEA JUMPI PUSH2 0x2BE9 PUSH2 0x25B4 JUMP JUMPDEST JUMPDEST PUSH1 0x0 PUSH2 0x2BF8 DUP6 DUP3 DUP7 ADD PUSH2 0x2801 JUMP JUMPDEST SWAP3 POP POP PUSH1 0x20 PUSH2 0x2C09 DUP6 DUP3 DUP7 ADD PUSH2 0x286D JUMP JUMPDEST SWAP2 POP POP SWAP3 POP SWAP3 SWAP1 POP JUMP JUMPDEST PUSH1 0x0 PUSH8 0xFFFFFFFFFFFFFFFF DUP3 GT ISZERO PUSH2 0x2C2E JUMPI PUSH2 0x2C2D PUSH2 0x2A39 JUMP JUMPDEST JUMPDEST PUSH2 0x2C37 DUP3 PUSH2 0x26BF JUMP JUMPDEST SWAP1 POP PUSH1 0x20 DUP2 ADD SWAP1 POP SWAP2 SWAP1 POP JUMP JUMPDEST PUSH1 0x0 PUSH2 0x2C57 PUSH2 0x2C52 DUP5 PUSH2 0x2C13 JUMP JUMPDEST PUSH2 0x2A99 JUMP JUMPDEST SWAP1 POP DUP3 DUP2 MSTORE PUSH1 0x20 DUP2 ADD DUP5 DUP5 DUP5 ADD GT ISZERO PUSH2 0x2C73 JUMPI PUSH2 0x2C72 PUSH2 0x2A34 JUMP JUMPDEST JUMPDEST PUSH2 0x2C7E DUP5 DUP3 DUP6 PUSH2 0x2AE5 JUMP JUMPDEST POP SWAP4 SWAP3 POP POP POP JUMP JUMPDEST PUSH1 0x0 DUP3 PUSH1 0x1F DUP4 ADD SLT PUSH2 0x2C9B JUMPI PUSH2 0x2C9A PUSH2 0x2A2F JUMP JUMPDEST JUMPDEST DUP2 CALLDATALOAD PUSH2 0x2CAB DUP5 DUP3 PUSH1 0x20 DUP7 ADD PUSH2 0x2C44 JUMP JUMPDEST SWAP2 POP POP SWAP3 SWAP2 POP POP JUMP JUMPDEST PUSH1 0x0 DUP1 PUSH1 0x0 DUP1 PUSH1 0x80 DUP6 DUP8 SUB SLT ISZERO PUSH2 0x2CCE JUMPI PUSH2 0x2CCD PUSH2 0x25B4 JUMP JUMPDEST JUMPDEST PUSH1 0x0 PUSH2 0x2CDC DUP8 DUP3 DUP9 ADD PUSH2 0x2801 JUMP JUMPDEST SWAP5 POP POP PUSH1 0x20 PUSH2 0x2CED DUP8 DUP3 DUP9 ADD PUSH2 0x2801 JUMP JUMPDEST SWAP4 POP POP PUSH1 0x40 PUSH2 0x2CFE DUP8 DUP3 DUP9 ADD PUSH2 0x274C JUMP JUMPDEST SWAP3 POP POP PUSH1 0x60 DUP6 ADD CALLDATALOAD PUSH8 0xFFFFFFFFFFFFFFFF DUP2 GT ISZERO PUSH2 0x2D1F JUMPI PUSH2 0x2D1E PUSH2 0x25B9 JUMP JUMPDEST JUMPDEST PUSH2 0x2D2B DUP8 DUP3 DUP9 ADD PUSH2 0x2C86 JUMP JUMPDEST SWAP2 POP POP SWAP3 SWAP6 SWAP2 SWAP5 POP SWAP3 POP JUMP JUMPDEST PUSH1 0x0 DUP1 PUSH1 0x40 DUP4 DUP6 SUB SLT ISZERO PUSH2 0x2D4E JUMPI PUSH2 0x2D4D PUSH2 0x25B4 JUMP JUMPDEST JUMPDEST PUSH1 0x0 PUSH2 0x2D5C DUP6 DUP3 DUP7 ADD PUSH2 0x274C JUMP JUMPDEST SWAP3 POP POP PUSH1 0x20 PUSH2 0x2D6D DUP6 DUP3 DUP7 ADD PUSH2 0x274C JUMP JUMPDEST SWAP2 POP POP SWAP3 POP SWAP3 SWAP1 POP JUMP JUMPDEST PUSH1 0x0 DUP1 PUSH1 0x0 PUSH1 0x60 DUP5 DUP7 SUB SLT ISZERO PUSH2 0x2D90 JUMPI PUSH2 0x2D8F PUSH2 0x25B4 JUMP JUMPDEST JUMPDEST PUSH1 0x0 PUSH2 0x2D9E DUP7 DUP3 DUP8 ADD PUSH2 0x274C JUMP JUMPDEST SWAP4 POP POP PUSH1 0x20 PUSH2 0x2DAF DUP7 DUP3 DUP8 ADD PUSH2 0x274C JUMP JUMPDEST SWAP3 POP POP PUSH1 0x40 DUP5 ADD CALLDATALOAD PUSH8 0xFFFFFFFFFFFFFFFF DUP2 GT ISZERO PUSH2 0x2DD0 JUMPI PUSH2 0x2DCF PUSH2 0x25B9 JUMP JUMPDEST JUMPDEST PUSH2 0x2DDC DUP7 DUP3 DUP8 ADD PUSH2 0x2B36 JUMP JUMPDEST SWAP2 POP POP SWAP3 POP SWAP3 POP SWAP3 JUMP JUMPDEST PUSH1 0x0 DUP1 PUSH1 0x40 DUP4 DUP6 SUB SLT ISZERO PUSH2 0x2DFD JUMPI PUSH2 0x2DFC PUSH2 0x25B4 JUMP JUMPDEST JUMPDEST PUSH1 0x0 PUSH2 0x2E0B DUP6 DUP3 DUP7 ADD PUSH2 0x2801 JUMP JUMPDEST SWAP3 POP POP PUSH1 0x20 PUSH2 0x2E1C DUP6 DUP3 DUP7 ADD PUSH2 0x2801 JUMP JUMPDEST SWAP2 POP POP SWAP3 POP SWAP3 SWAP1 POP JUMP JUMPDEST PUSH1 0x0 DUP1 PUSH1 0x0 DUP1 PUSH1 0x80 DUP6 DUP8 SUB SLT ISZERO PUSH2 0x2E40 JUMPI PUSH2 0x2E3F PUSH2 0x25B4 JUMP JUMPDEST JUMPDEST PUSH1 0x0 DUP6 ADD CALLDATALOAD PUSH8 0xFFFFFFFFFFFFFFFF DUP2 GT ISZERO PUSH2 0x2E5E JUMPI PUSH2 0x2E5D PUSH2 0x25B9 JUMP JUMPDEST JUMPDEST PUSH2 0x2E6A DUP8 DUP3 DUP9 ADD PUSH2 0x2B36 JUMP JUMPDEST SWAP5 POP POP PUSH1 0x20 PUSH2 0x2E7B DUP8 DUP3 DUP9 ADD PUSH2 0x274C JUMP JUMPDEST SWAP4 POP POP PUSH1 0x40 PUSH2 0x2E8C DUP8 DUP3 DUP9 ADD PUSH2 0x274C JUMP JUMPDEST SWAP3 POP POP PUSH1 0x60 DUP6 ADD CALLDATALOAD PUSH8 0xFFFFFFFFFFFFFFFF DUP2 GT ISZERO PUSH2 0x2EAD JUMPI PUSH2 0x2EAC PUSH2 0x25B9 JUMP JUMPDEST JUMPDEST PUSH2 0x2EB9 DUP8 DUP3 DUP9 ADD PUSH2 0x2B36 JUMP JUMPDEST SWAP2 POP POP SWAP3 SWAP6 SWAP2 SWAP5 POP SWAP3 POP JUMP JUMPDEST PUSH32 0x4E487B7100000000000000000000000000000000000000000000000000000000 PUSH1 0x0 MSTORE PUSH1 0x22 PUSH1 0x4 MSTORE PUSH1 0x24 PUSH1 0x0 REVERT JUMPDEST PUSH1 0x0 PUSH1 0x2 DUP3 DIV SWAP1 POP PUSH1 0x1 DUP3 AND DUP1 PUSH2 0x2F0C JUMPI PUSH1 0x7F DUP3 AND SWAP2 POP JUMPDEST PUSH1 0x20 DUP3 LT DUP2 SUB PUSH2 0x2F1F JUMPI PUSH2 0x2F1E PUSH2 0x2EC5 JUMP JUMPDEST JUMPDEST POP SWAP2 SWAP1 POP JUMP JUMPDEST PUSH32 0x445353433A20546F6B656E20646F6573206E6F74206578697374000000000000 PUSH1 0x0 DUP3 ADD MSTORE POP JUMP JUMPDEST PUSH1 0x0 PUSH2 0x2F5B PUSH1 0x1A DUP4 PUSH2 0x2684 JUMP JUMPDEST SWAP2 POP PUSH2 0x2F66 DUP3 PUSH2 0x2F25 JUMP JUMPDEST PUSH1 0x20 DUP3 ADD SWAP1 POP SWAP2 SWAP1 POP JUMP JUMPDEST PUSH1 0x0 PUSH1 0x20 DUP3 ADD SWAP1 POP DUP2 DUP2 SUB PUSH1 0x0 DUP4 ADD MSTORE PUSH2 0x2F8A DUP2 PUSH2 0x2F4E JUMP JUMPDEST SWAP1 POP SWAP2 SWAP1 POP JUMP JUMPDEST PUSH1 0x0 PUSH1 0x60 DUP3 ADD SWAP1 POP PUSH2 0x2FA6 PUSH1 0x0 DUP4 ADD DUP7 PUSH2 0x27C0 JUMP JUMPDEST PUSH2 0x2FB3 PUSH1 0x20 DUP4 ADD DUP6 PUSH2 0x28C2 JUMP JUMPDEST PUSH2 0x2FC0 PUSH1 0x40 DUP4 ADD DUP5 PUSH2 0x27C0 JUMP JUMPDEST SWAP5 SWAP4 POP POP POP POP JUMP JUMPDEST PUSH32 0x4E487B7100000000000000000000000000000000000000000000000000000000 PUSH1 0x0 MSTORE PUSH1 0x11 PUSH1 0x4 MSTORE PUSH1 0x24 PUSH1 0x0 REVERT JUMPDEST PUSH1 0x0 PUSH2 0x3002 DUP3 PUSH2 0x272B JUMP JUMPDEST SWAP2 POP PUSH2 0x300D DUP4 PUSH2 0x272B JUMP JUMPDEST SWAP3 POP DUP3 DUP3 MUL PUSH2 0x301B DUP2 PUSH2 0x272B JUMP JUMPDEST SWAP2 POP DUP3 DUP3 DIV DUP5 EQ DUP4 ISZERO OR PUSH2 0x3032 JUMPI PUSH2 0x3031 PUSH2 0x2FC8 JUMP JUMPDEST JUMPDEST POP SWAP3 SWAP2 POP POP JUMP JUMPDEST PUSH32 0x4E487B7100000000000000000000000000000000000000000000000000000000 PUSH1 0x0 MSTORE PUSH1 0x12 PUSH1 0x4 MSTORE PUSH1 0x24 PUSH1 0x0 REVERT JUMPDEST PUSH1 0x0 PUSH2 0x3073 DUP3 PUSH2 0x272B JUMP JUMPDEST SWAP2 POP PUSH2 0x307E DUP4 PUSH2 0x272B JUMP JUMPDEST SWAP3 POP DUP3 PUSH2 0x308E JUMPI PUSH2 0x308D PUSH2 0x3039 JUMP JUMPDEST JUMPDEST DUP3 DUP3 DIV SWAP1 POP SWAP3 SWAP2 POP POP JUMP JUMPDEST PUSH1 0x0 PUSH2 0x30A4 DUP3 PUSH2 0x272B JUMP JUMPDEST SWAP2 POP PUSH2 0x30AF DUP4 PUSH2 0x272B JUMP JUMPDEST SWAP3 POP DUP3 DUP3 SUB SWAP1 POP DUP2 DUP2 GT ISZERO PUSH2 0x30C7 JUMPI PUSH2 0x30C6 PUSH2 0x2FC8 JUMP JUMPDEST JUMPDEST SWAP3 SWAP2 POP POP JUMP JUMPDEST PUSH1 0x0 PUSH2 0x30D8 DUP3 PUSH2 0x272B JUMP JUMPDEST SWAP2 POP PUSH2 0x30E3 DUP4 PUSH2 0x272B JUMP JUMPDEST SWAP3 POP DUP3 DUP3 ADD SWAP1 POP DUP1 DUP3 GT ISZERO PUSH2 0x30FB JUMPI PUSH2 0x30FA PUSH2 0x2FC8 JUMP JUMPDEST JUMPDEST SWAP3 SWAP2 POP POP JUMP JUMPDEST PUSH1 0x0 DUP2 SWAP1 POP SWAP3 SWAP2 POP POP JUMP JUMPDEST PUSH1 0x0 PUSH2 0x3117 DUP3 PUSH2 0x2679 JUMP JUMPDEST PUSH2 0x3121 DUP2 DUP6 PUSH2 0x3101 JUMP JUMPDEST SWAP4 POP PUSH2 0x3131 DUP2 DUP6 PUSH1 0x20 DUP7 ADD PUSH2 0x2695 JUMP JUMPDEST DUP1 DUP5 ADD SWAP2 POP POP SWAP3 SWAP2 POP POP JUMP JUMPDEST PUSH1 0x0 PUSH2 0x3149 DUP3 DUP6 PUSH2 0x310C JUMP JUMPDEST SWAP2 POP PUSH2 0x3155 DUP3 DUP5 PUSH2 0x310C JUMP JUMPDEST SWAP2 POP DUP2 SWAP1 POP SWAP4 SWAP3 POP POP POP JUMP JUMPDEST PUSH1 0x0 DUP2 SWAP1 POP DUP2 PUSH1 0x0 MSTORE PUSH1 0x20 PUSH1 0x0 KECCAK256 SWAP1 POP SWAP2 SWAP1 POP JUMP JUMPDEST PUSH1 0x0 PUSH1 0x20 PUSH1 0x1F DUP4 ADD DIV SWAP1 POP SWAP2 SWAP1 POP JUMP JUMPDEST PUSH1 0x0 DUP3 DUP3 SHL SWAP1 POP SWAP3 SWAP2 POP POP JUMP JUMPDEST PUSH1 0x0 PUSH1 0x8 DUP4 MUL PUSH2 0x31C3 PUSH32 0xFFFFFFFFFFFFFFFFFFFFFFFFFFFFFFFFFFFFFFFFFFFFFFFFFFFFFFFFFFFFFFFF DUP3 PUSH2 0x3186 JUMP JUMPDEST PUSH2 0x31CD DUP7 DUP4 PUSH2 0x3186 JUMP JUMPDEST SWAP6 POP DUP1 NOT DUP5 AND SWAP4 POP DUP1 DUP7 AND DUP5 OR SWAP3 POP POP POP SWAP4 SWAP3 POP POP POP JUMP JUMPDEST PUSH1 0x0 DUP2 SWAP1 POP SWAP2 SWAP1 POP JUMP JUMPDEST PUSH1 0x0 PUSH2 0x320A PUSH2 0x3205 PUSH2 0x3200 DUP5 PUSH2 0x272B JUMP JUMPDEST PUSH2 0x31E5 JUMP JUMPDEST PUSH2 0x272B JUMP JUMPDEST SWAP1 POP SWAP2 SWAP1 POP JUMP JUMPDEST PUSH1 0x0 DUP2 SWAP1 POP SWAP2 SWAP1 POP JUMP JUMPDEST PUSH2 0x3224 DUP4 PUSH2 0x31EF JUMP JUMPDEST PUSH2 0x3238 PUSH2 0x3230 DUP3 PUSH2 0x3211 JUMP JUMPDEST DUP5 DUP5 SLOAD PUSH2 0x3193 JUMP JUMPDEST DUP3 SSTORE POP POP POP POP JUMP JUMPDEST PUSH1 0x0 SWAP1 JUMP JUMPDEST PUSH2 0x324D PUSH2 0x3240 JUMP JUMPDEST PUSH2 0x3258 DUP2 DUP5 DUP5 PUSH2 0x321B JUMP JUMPDEST POP POP POP JUMP JUMPDEST JUMPDEST DUP2 DUP2 LT ISZERO PUSH2 0x327C JUMPI PUSH2 0x3271 PUSH1 0x0 DUP3 PUSH2 0x3245 JUMP JUMPDEST PUSH1 0x1 DUP2 ADD SWAP1 POP PUSH2 0x325E JUMP JUMPDEST POP POP JUMP JUMPDEST PUSH1 0x1F DUP3 GT ISZERO PUSH2 0x32C1 JUMPI PUSH2 0x3292 DUP2 PUSH2 0x3161 JUMP JUMPDEST PUSH2 0x329B DUP5 PUSH2 0x3176 JUMP JUMPDEST DUP2 ADD PUSH1 0x20 DUP6 LT ISZERO PUSH2 0x32AA JUMPI DUP2 SWAP1 POP JUMPDEST PUSH2 0x32BE PUSH2 0x32B6 DUP6 PUSH2 0x3176 JUMP JUMPDEST DUP4 ADD DUP3 PUSH2 0x325D JUMP JUMPDEST POP POP JUMPDEST POP POP POP JUMP JUMPDEST PUSH1 0x0 DUP3 DUP3 SHR SWAP1 POP SWAP3 SWAP2 POP POP JUMP JUMPDEST PUSH1 0x0 PUSH2 0x32E4 PUSH1 0x0 NOT DUP5 PUSH1 0x8 MUL PUSH2 0x32C6 JUMP JUMPDEST NOT DUP1 DUP4 AND SWAP2 POP POP SWAP3 SWAP2 POP POP JUMP JUMPDEST PUSH1 0x0 PUSH2 0x32FD DUP4 DUP4 PUSH2 0x32D3 JUMP JUMPDEST SWAP2 POP DUP3 PUSH1 0x2 MUL DUP3 OR SWAP1 POP SWAP3 SWAP2 POP POP JUMP JUMPDEST PUSH2 0x3316 DUP3 PUSH2 0x2679 JUMP JUMPDEST PUSH8 0xFFFFFFFFFFFFFFFF DUP2 GT ISZERO PUSH2 0x332F JUMPI PUSH2 0x332E PUSH2 0x2A39 JUMP JUMPDEST JUMPDEST PUSH2 0x3339 DUP3 SLOAD PUSH2 0x2EF4 JUMP JUMPDEST PUSH2 0x3344 DUP3 DUP3 DUP6 PUSH2 0x3280 JUMP JUMPDEST PUSH1 0x0 PUSH1 0x20 SWAP1 POP PUSH1 0x1F DUP4 GT PUSH1 0x1 DUP2 EQ PUSH2 0x3377 JUMPI PUSH1 0x0 DUP5 ISZERO PUSH2 0x3365 JUMPI DUP3 DUP8 ADD MLOAD SWAP1 POP JUMPDEST PUSH2 0x336F DUP6 DUP3 PUSH2 0x32F1 JUMP JUMPDEST DUP7 SSTORE POP PUSH2 0x33D7 JUMP JUMPDEST PUSH1 0x1F NOT DUP5 AND PUSH2 0x3385 DUP7 PUSH2 0x3161 JUMP JUMPDEST PUSH1 0x0 JUMPDEST DUP3 DUP2 LT ISZERO PUSH2 0x33AD JUMPI DUP5 DUP10 ADD MLOAD DUP3 SSTORE PUSH1 0x1 DUP3 ADD SWAP2 POP PUSH1 0x20 DUP6 ADD SWAP5 POP PUSH1 0x20 DUP2 ADD SWAP1 POP PUSH2 0x3388 JUMP JUMPDEST DUP7 DUP4 LT ISZERO PUSH2 0x33CA JUMPI DUP5 DUP10 ADD MLOAD PUSH2 0x33C6 PUSH1 0x1F DUP10 AND DUP3 PUSH2 0x32D3 JUMP JUMPDEST DUP4 SSTORE POP JUMPDEST PUSH1 0x1 PUSH1 0x2 DUP9 MUL ADD DUP9 SSTORE POP POP POP JUMPDEST POP POP POP POP POP POP JUMP JUMPDEST PUSH1 0x0 PUSH1 0x40 DUP3 ADD SWAP1 POP PUSH2 0x33F4 PUSH1 0x0 DUP4 ADD DUP6 PUSH2 0x28C2 JUMP JUMPDEST PUSH2 0x3401 PUSH1 0x20 DUP4 ADD DUP5 PUSH2 0x28C2 JUMP JUMPDEST SWAP4 SWAP3 POP POP POP JUMP JUMPDEST PUSH1 0x0 PUSH1 0x60 DUP3 ADD SWAP1 POP DUP2 DUP2 SUB PUSH1 0x0 DUP4 ADD MSTORE PUSH2 0x3422 DUP2 DUP7 PUSH2 0x26D0 JUMP JUMPDEST SWAP1 POP PUSH2 0x3431 PUSH1 0x20 DUP4 ADD DUP6 PUSH2 0x28C2 JUMP JUMPDEST PUSH2 0x343E PUSH1 0x40 DUP4 ADD DUP5 PUSH2 0x28C2 JUMP JUMPDEST SWAP5 SWAP4 POP POP POP POP JUMP JUMPDEST PUSH1 0x0 DUP2 MLOAD SWAP1 POP SWAP2 SWAP1 POP JUMP JUMPDEST PUSH1 0x0 DUP3 DUP3 MSTORE PUSH1 0x20 DUP3 ADD SWAP1 POP SWAP3 SWAP2 POP POP JUMP JUMPDEST PUSH1 0x0 PUSH2 0x346D DUP3 PUSH2 0x3446 JUMP JUMPDEST PUSH2 0x3477 DUP2 DUP6 PUSH2 0x3451 JUMP JUMPDEST SWAP4 POP PUSH2 0x3487 DUP2 DUP6 PUSH1 0x20 DUP7 ADD PUSH2 0x2695 JUMP JUMPDEST PUSH2 0x3490 DUP2 PUSH2 0x26BF JUMP JUMPDEST DUP5 ADD SWAP2 POP POP SWAP3 SWAP2 POP POP JUMP JUMPDEST PUSH1 0x0 PUSH1 0x80 DUP3 ADD SWAP1 POP PUSH2 0x34B0 PUSH1 0x0 DUP4 ADD DUP8 PUSH2 0x27C0 JUMP JUMPDEST PUSH2 0x34BD PUSH1 0x20 DUP4 ADD DUP7 PUSH2 0x27C0 JUMP JUMPDEST PUSH2 0x34CA PUSH1 0x40 DUP4 ADD DUP6 PUSH2 0x28C2 JUMP JUMPDEST DUP2 DUP2 SUB PUSH1 0x60 DUP4 ADD MSTORE PUSH2 0x34DC DUP2 DUP5 PUSH2 0x3462 JUMP JUMPDEST SWAP1 POP SWAP6 SWAP5 POP POP POP POP POP JUMP JUMPDEST PUSH1 0x0 DUP2 MLOAD SWAP1 POP PUSH2 0x34F6 DUP2 PUSH2 0x25EA JUMP JUMPDEST SWAP3 SWAP2 POP POP JUMP JUMPDEST PUSH1 0x0 PUSH1 0x20 DUP3 DUP5 SUB SLT ISZERO PUSH2 0x3512 JUMPI PUSH2 0x3511 PUSH2 0x25B4 JUMP JUMPDEST JUMPDEST PUSH1 0x0 PUSH2 0x3520 DUP5 DUP3 DUP6 ADD PUSH2 0x34E7 JUMP JUMPDEST SWAP2 POP POP SWAP3 SWAP2 POP POP JUMP JUMPDEST PUSH1 0x0 PUSH1 0x40 DUP3 ADD SWAP1 POP PUSH2 0x353E PUSH1 0x0 DUP4 ADD DUP6 PUSH2 0x27C0 JUMP JUMPDEST PUSH2 0x354B PUSH1 0x20 DUP4 ADD DUP5 PUSH2 0x28C2 JUMP JUMPDEST SWAP4 SWAP3 POP POP POP JUMP INVALID LOG2 PUSH5 0x6970667358 0x22 SLT KECCAK256 MOD MSTORE8 0x4E 0x24 0x26 PUSH18 0xD6AF08717E575EF768532F6E1B806128897A 0xB2 0xDF AND PUSH11 0xF399DE9864736F6C634300 ADDMOD SHL STOP CALLER "
		},
		"gasEstimates": {
			"creation": {
				"codeDepositCost": "2740800",
				"executionCost": "infinite",
				"totalCost": "infinite"
			},
			"external": {
				"THINGSPEAK_API_KEY()": "infinite",
				"THINGSPEAK_CHANNEL()": "infinite",
				"approve(address,uint256)": "infinite",
				"balanceOf(address)": "infinite",
				"calculatePower(uint256)": "infinite",
				"cells(uint256)": "infinite",
				"exists(uint256)": "2976",
				"getApproved(uint256)": "infinite",
				"getDSSCData(uint256)": "infinite",
				"getThingSpeakConfig()": "infinite",
				"isApprovedForAll(address,address)": "infinite",
				"name()": "infinite",
				"owner()": "2590",
				"ownerOf(uint256)": "infinite",
				"registerDSSCWithVoltage(string,uint256,uint256,string)": "infinite",
				"renounceOwnership()": "infinite",
				"safeTransferFrom(address,address,uint256)": "infinite",
				"safeTransferFrom(address,address,uint256,bytes)": "infinite",
				"setApprovalForAll(address,bool)": "infinite",
				"setVerificationStatus(uint256,bool)": "infinite",
				"supportsInterface(bytes4)": "820",
				"symbol()": "infinite",
				"tokenURI(uint256)": "infinite",
				"transferFrom(address,address,uint256)": "infinite",
				"transferOwnership(address)": "infinite",
				"updatePowerRating(uint256,uint256)": "infinite",
				"updateVoltageReading(uint256,uint256,string)": "infinite",
				"verifyDSSCWithVoltage(uint256,string,uint256)": "infinite"
			}
		},
		"methodIdentifiers": {
			"THINGSPEAK_API_KEY()": "f403cfb6",
			"THINGSPEAK_CHANNEL()": "60c5d7a4",
			"approve(address,uint256)": "095ea7b3",
			"balanceOf(address)": "70a08231",
			"calculatePower(uint256)": "348d7362",
			"cells(uint256)": "1941fd14",
			"exists(uint256)": "4f558e79",
			"getApproved(uint256)": "081812fc",
			"getDSSCData(uint256)": "ccc772e7",
			"getThingSpeakConfig()": "61b1ca27",
			"isApprovedForAll(address,address)": "e985e9c5",
			"name()": "06fdde03",
			"owner()": "8da5cb5b",
			"ownerOf(uint256)": "6352211e",
			"registerDSSCWithVoltage(string,uint256,uint256,string)": "f3e15def",
			"renounceOwnership()": "715018a6",
			"safeTransferFrom(address,address,uint256)": "42842e0e",
			"safeTransferFrom(address,address,uint256,bytes)": "b88d4fde",
			"setApprovalForAll(address,bool)": "a22cb465",
			"setVerificationStatus(uint256,bool)": "0ef644a5",
			"supportsInterface(bytes4)": "01ffc9a7",
			"symbol()": "95d89b41",
			"tokenURI(uint256)": "c87b56dd",
			"transferFrom(address,address,uint256)": "23b872dd",
			"transferOwnership(address)": "f2fde38b",
			"updatePowerRating(uint256,uint256)": "e7e027f1",
			"updateVoltageReading(uint256,uint256,string)": "e815cf24",
			"verifyDSSCWithVoltage(uint256,string,uint256)": "95839cb2"
		}
	},
	"abi": [
		{
			"inputs": [
				{
					"internalType": "address",
					"name": "initialOwner",
					"type": "address"
				}
			],
			"stateMutability": "nonpayable",
			"type": "constructor"
		},
		{
			"inputs": [
				{
					"internalType": "address",
					"name": "sender",
					"type": "address"
				},
				{
					"internalType": "uint256",
					"name": "tokenId",
					"type": "uint256"
				},
				{
					"internalType": "address",
					"name": "owner",
					"type": "address"
				}
			],
			"name": "ERC721IncorrectOwner",
			"type": "error"
		},
		{
			"inputs": [
				{
					"internalType": "address",
					"name": "operator",
					"type": "address"
				},
				{
					"internalType": "uint256",
					"name": "tokenId",
					"type": "uint256"
				}
			],
			"name": "ERC721InsufficientApproval",
			"type": "error"
		},
		{
			"inputs": [
				{
					"internalType": "address",
					"name": "approver",
					"type": "address"
				}
			],
			"name": "ERC721InvalidApprover",
			"type": "error"
		},
		{
			"inputs": [
				{
					"internalType": "address",
					"name": "operator",
					"type": "address"
				}
			],
			"name": "ERC721InvalidOperator",
			"type": "error"
		},
		{
			"inputs": [
				{
					"internalType": "address",
					"name": "owner",
					"type": "address"
				}
			],
			"name": "ERC721InvalidOwner",
			"type": "error"
		},
		{
			"inputs": [
				{
					"internalType": "address",
					"name": "receiver",
					"type": "address"
				}
			],
			"name": "ERC721InvalidReceiver",
			"type": "error"
		},
		{
			"inputs": [
				{
					"internalType": "address",
					"name": "sender",
					"type": "address"
				}
			],
			"name": "ERC721InvalidSender",
			"type": "error"
		},
		{
			"inputs": [
				{
					"internalType": "uint256",
					"name": "tokenId",
					"type": "uint256"
				}
			],
			"name": "ERC721NonexistentToken",
			"type": "error"
		},
		{
			"inputs": [
				{
					"internalType": "address",
					"name": "owner",
					"type": "address"
				}
			],
			"name": "OwnableInvalidOwner",
			"type": "error"
		},
		{
			"inputs": [
				{
					"internalType": "address",
					"name": "account",
					"type": "address"
				}
			],
			"name": "OwnableUnauthorizedAccount",
			"type": "error"
		},
		{
			"anonymous": false,
			"inputs": [
				{
					"indexed": true,
					"internalType": "address",
					"name": "owner",
					"type": "address"
				},
				{
					"indexed": true,
					"internalType": "address",
					"name": "approved",
					"type": "address"
				},
				{
					"indexed": true,
					"internalType": "uint256",
					"name": "tokenId",
					"type": "uint256"
				}
			],
			"name": "Approval",
			"type": "event"
		},
		{
			"anonymous": false,
			"inputs": [
				{
					"indexed": true,
					"internalType": "address",
					"name": "owner",
					"type": "address"
				},
				{
					"indexed": true,
					"internalType": "address",
					"name": "operator",
					"type": "address"
				},
				{
					"indexed": false,
					"internalType": "bool",
					"name": "approved",
					"type": "bool"
				}
			],
			"name": "ApprovalForAll",
			"type": "event"
		},
		{
			"anonymous": false,
			"inputs": [
				{
					"indexed": true,
					"internalType": "uint256",
					"name": "tokenId",
					"type": "uint256"
				},
				{
					"indexed": false,
					"internalType": "string",
					"name": "ivCurveHash",
					"type": "string"
				},
				{
					"indexed": false,
					"internalType": "uint256",
					"name": "voltage",
					"type": "uint256"
				},
				{
					"indexed": false,
					"internalType": "uint256",
					"name": "timestamp",
					"type": "uint256"
				}
			],
			"name": "DSSCRegistered",
			"type": "event"
		},
		{
			"anonymous": false,
			"inputs": [
				{
					"indexed": true,
					"internalType": "uint256",
					"name": "tokenId",
					"type": "uint256"
				},
				{
					"indexed": false,
					"internalType": "bool",
					"name": "status",
					"type": "bool"
				}
			],
			"name": "DSSCVerified",
			"type": "event"
		},
		{
			"anonymous": false,
			"inputs": [
				{
					"indexed": true,
					"internalType": "address",
					"name": "previousOwner",
					"type": "address"
				},
				{
					"indexed": true,
					"internalType": "address",
					"name": "newOwner",
					"type": "address"
				}
			],
			"name": "OwnershipTransferred",
			"type": "event"
		},
		{
			"anonymous": false,
			"inputs": [
				{
					"indexed": true,
					"internalType": "uint256",
					"name": "tokenId",
					"type": "uint256"
				},
				{
					"indexed": false,
					"internalType": "uint256",
					"name": "newRating",
					"type": "uint256"
				}
			],
			"name": "PowerRatingUpdated",
			"type": "event"
		},
		{
			"anonymous": false,
			"inputs": [
				{
					"indexed": true,
					"internalType": "address",
					"name": "from",
					"type": "address"
				},
				{
					"indexed": true,
					"internalType": "address",
					"name": "to",
					"type": "address"
				},
				{
					"indexed": true,
					"internalType": "uint256",
					"name": "tokenId",
					"type": "uint256"
				}
			],
			"name": "Transfer",
			"type": "event"
		},
		{
			"anonymous": false,
			"inputs": [
				{
					"indexed": true,
					"internalType": "uint256",
					"name": "tokenId",
					"type": "uint256"
				},
				{
					"indexed": false,
					"internalType": "uint256",
					"name": "newVoltage",
					"type": "uint256"
				},
				{
					"indexed": false,
					"internalType": "uint256",
					"name": "timestamp",
					"type": "uint256"
				}
			],
			"name": "VoltageUpdated",
			"type": "event"
		},
		{
			"inputs": [],
			"name": "THINGSPEAK_API_KEY",
			"outputs": [
				{
					"internalType": "string",
					"name": "",
					"type": "string"
				}
			],
			"stateMutability": "view",
			"type": "function"
		},
		{
			"inputs": [],
			"name": "THINGSPEAK_CHANNEL",
			"outputs": [
				{
					"internalType": "string",
					"name": "",
					"type": "string"
				}
			],
			"stateMutability": "view",
			"type": "function"
		},
		{
			"inputs": [
				{
					"internalType": "address",
					"name": "to",
					"type": "address"
				},
				{
					"internalType": "uint256",
					"name": "tokenId",
					"type": "uint256"
				}
			],
			"name": "approve",
			"outputs": [],
			"stateMutability": "nonpayable",
			"type": "function"
		},
		{
			"inputs": [
				{
					"internalType": "address",
					"name": "owner",
					"type": "address"
				}
			],
			"name": "balanceOf",
			"outputs": [
				{
					"internalType": "uint256",
					"name": "",
					"type": "uint256"
				}
			],
			"stateMutability": "view",
			"type": "function"
		},
		{
			"inputs": [
				{
					"internalType": "uint256",
					"name": "voltage",
					"type": "uint256"
				}
			],
			"name": "calculatePower",
			"outputs": [
				{
					"internalType": "uint256",
					"name": "",
					"type": "uint256"
				}
			],
			"stateMutability": "pure",
			"type": "function"
		},
		{
			"inputs": [
				{
					"internalType": "uint256",
					"name": "",
					"type": "uint256"
				}
			],
			"name": "cells",
			"outputs": [
				{
					"internalType": "string",
					"name": "ivCurveHash",
					"type": "string"
				},
				{
					"internalType": "uint256",
					"name": "timestamp",
					"type": "uint256"
				},
				{
					"internalType": "uint256",
					"name": "powerRating",
					"type": "uint256"
				},
				{
					"internalType": "bool",
					"name": "isVerified",
					"type": "bool"
				},
				{
					"internalType": "uint256",
					"name": "voltage",
					"type": "uint256"
				},
				{
					"internalType": "string",
					"name": "thingspeakData",
					"type": "string"
				},
				{
					"internalType": "uint256",
					"name": "lastUpdateTime",
					"type": "uint256"
				},
				{
					"internalType": "uint256",
					"name": "channelId",
					"type": "uint256"
				}
			],
			"stateMutability": "view",
			"type": "function"
		},
		{
			"inputs": [
				{
					"internalType": "uint256",
					"name": "tokenId",
					"type": "uint256"
				}
			],
			"name": "exists",
			"outputs": [
				{
					"internalType": "bool",
					"name": "",
					"type": "bool"
				}
			],
			"stateMutability": "view",
			"type": "function"
		},
		{
			"inputs": [
				{
					"internalType": "uint256",
					"name": "tokenId",
					"type": "uint256"
				}
			],
			"name": "getApproved",
			"outputs": [
				{
					"internalType": "address",
					"name": "",
					"type": "address"
				}
			],
			"stateMutability": "view",
			"type": "function"
		},
		{
			"inputs": [
				{
					"internalType": "uint256",
					"name": "tokenId",
					"type": "uint256"
				}
			],
			"name": "getDSSCData",
			"outputs": [
				{
					"internalType": "string",
					"name": "ivCurveHash",
					"type": "string"
				},
				{
					"internalType": "uint256",
					"name": "timestamp",
					"type": "uint256"
				},
				{
					"internalType": "uint256",
					"name": "powerRating",
					"type": "uint256"
				},
				{
					"internalType": "bool",
					"name": "isVerified",
					"type": "bool"
				},
				{
					"internalType": "uint256",
					"name": "voltage",
					"type": "uint256"
				},
				{
					"internalType": "string",
					"name": "thingspeakData",
					"type": "string"
				},
				{
					"internalType": "uint256",
					"name": "lastUpdateTime",
					"type": "uint256"
				},
				{
					"internalType": "uint256",
					"name": "channelId",
					"type": "uint256"
				}
			],
			"stateMutability": "view",
			"type": "function"
		},
		{
			"inputs": [],
			"name": "getThingSpeakConfig",
			"outputs": [
				{
					"internalType": "string",
					"name": "channelId",
					"type": "string"
				},
				{
					"internalType": "string",
					"name": "apiKey",
					"type": "string"
				}
			],
			"stateMutability": "pure",
			"type": "function"
		},
		{
			"inputs": [
				{
					"internalType": "address",
					"name": "owner",
					"type": "address"
				},
				{
					"internalType": "address",
					"name": "operator",
					"type": "address"
				}
			],
			"name": "isApprovedForAll",
			"outputs": [
				{
					"internalType": "bool",
					"name": "",
					"type": "bool"
				}
			],
			"stateMutability": "view",
			"type": "function"
		},
		{
			"inputs": [],
			"name": "name",
			"outputs": [
				{
					"internalType": "string",
					"name": "",
					"type": "string"
				}
			],
			"stateMutability": "view",
			"type": "function"
		},
		{
			"inputs": [],
			"name": "owner",
			"outputs": [
				{
					"internalType": "address",
					"name": "",
					"type": "address"
				}
			],
			"stateMutability": "view",
			"type": "function"
		},
		{
			"inputs": [
				{
					"internalType": "uint256",
					"name": "tokenId",
					"type": "uint256"
				}
			],
			"name": "ownerOf",
			"outputs": [
				{
					"internalType": "address",
					"name": "",
					"type": "address"
				}
			],
			"stateMutability": "view",
			"type": "function"
		},
		{
			"inputs": [
				{
					"internalType": "string",
					"name": "ivCurveHash",
					"type": "string"
				},
				{
					"internalType": "uint256",
					"name": "powerRating",
					"type": "uint256"
				},
				{
					"internalType": "uint256",
					"name": "voltage",
					"type": "uint256"
				},
				{
					"internalType": "string",
					"name": "thingspeakData",
					"type": "string"
				}
			],
			"name": "registerDSSCWithVoltage",
			"outputs": [
				{
					"internalType": "uint256",
					"name": "",
					"type": "uint256"
				}
			],
			"stateMutability": "nonpayable",
			"type": "function"
		},
		{
			"inputs": [],
			"name": "renounceOwnership",
			"outputs": [],
			"stateMutability": "nonpayable",
			"type": "function"
		},
		{
			"inputs": [
				{
					"internalType": "address",
					"name": "from",
					"type": "address"
				},
				{
					"internalType": "address",
					"name": "to",
					"type": "address"
				},
				{
					"internalType": "uint256",
					"name": "tokenId",
					"type": "uint256"
				}
			],
			"name": "safeTransferFrom",
			"outputs": [],
			"stateMutability": "nonpayable",
			"type": "function"
		},
		{
			"inputs": [
				{
					"internalType": "address",
					"name": "from",
					"type": "address"
				},
				{
					"internalType": "address",
					"name": "to",
					"type": "address"
				},
				{
					"internalType": "uint256",
					"name": "tokenId",
					"type": "uint256"
				},
				{
					"internalType": "bytes",
					"name": "data",
					"type": "bytes"
				}
			],
			"name": "safeTransferFrom",
			"outputs": [],
			"stateMutability": "nonpayable",
			"type": "function"
		},
		{
			"inputs": [
				{
					"internalType": "address",
					"name": "operator",
					"type": "address"
				},
				{
					"internalType": "bool",
					"name": "approved",
					"type": "bool"
				}
			],
			"name": "setApprovalForAll",
			"outputs": [],
			"stateMutability": "nonpayable",
			"type": "function"
		},
		{
			"inputs": [
				{
					"internalType": "uint256",
					"name": "tokenId",
					"type": "uint256"
				},
				{
					"internalType": "bool",
					"name": "status",
					"type": "bool"
				}
			],
			"name": "setVerificationStatus",
			"outputs": [],
			"stateMutability": "nonpayable",
			"type": "function"
		},
		{
			"inputs": [
				{
					"internalType": "bytes4",
					"name": "interfaceId",
					"type": "bytes4"
				}
			],
			"name": "supportsInterface",
			"outputs": [
				{
					"internalType": "bool",
					"name": "",
					"type": "bool"
				}
			],
			"stateMutability": "view",
			"type": "function"
		},
		{
			"inputs": [],
			"name": "symbol",
			"outputs": [
				{
					"internalType": "string",
					"name": "",
					"type": "string"
				}
			],
			"stateMutability": "view",
			"type": "function"
		},
		{
			"inputs": [
				{
					"internalType": "uint256",
					"name": "tokenId",
					"type": "uint256"
				}
			],
			"name": "tokenURI",
			"outputs": [
				{
					"internalType": "string",
					"name": "",
					"type": "string"
				}
			],
			"stateMutability": "view",
			"type": "function"
		},
		{
			"inputs": [
				{
					"internalType": "address",
					"name": "from",
					"type": "address"
				},
				{
					"internalType": "address",
					"name": "to",
					"type": "address"
				},
				{
					"internalType": "uint256",
					"name": "tokenId",
					"type": "uint256"
				}
			],
			"name": "transferFrom",
			"outputs": [],
			"stateMutability": "nonpayable",
			"type": "function"
		},
		{
			"inputs": [
				{
					"internalType": "address",
					"name": "newOwner",
					"type": "address"
				}
			],
			"name": "transferOwnership",
			"outputs": [],
			"stateMutability": "nonpayable",
			"type": "function"
		},
		{
			"inputs": [
				{
					"internalType": "uint256",
					"name": "tokenId",
					"type": "uint256"
				},
				{
					"internalType": "uint256",
					"name": "newRating",
					"type": "uint256"
				}
			],
			"name": "updatePowerRating",
			"outputs": [],
			"stateMutability": "nonpayable",
			"type": "function"
		},
		{
			"inputs": [
				{
					"internalType": "uint256",
					"name": "tokenId",
					"type": "uint256"
				},
				{
					"internalType": "uint256",
					"name": "newVoltage",
					"type": "uint256"
				},
				{
					"internalType": "string",
					"name": "newThingspeakData",
					"type": "string"
				}
			],
			"name": "updateVoltageReading",
			"outputs": [],
			"stateMutability": "nonpayable",
			"type": "function"
		},
		{
			"inputs": [
				{
					"internalType": "uint256",
					"name": "tokenId",
					"type": "uint256"
				},
				{
					"internalType": "string",
					"name": "currentHash",
					"type": "string"
				},
				{
					"internalType": "uint256",
					"name": "currentVoltage",
					"type": "uint256"
				}
			],
			"name": "verifyDSSCWithVoltage",
			"outputs": [
				{
					"internalType": "bool",
					"name": "",
					"type": "bool"
				}
			],
			"stateMutability": "view",
			"type": "function"
		}
	]
}